{
	"mlmContracts/contracts-upgradeable@4.8/token/ERC721/ERC721Upgradeable.sol": {
		"ERC721Upgradeable": {
			"abi": [
				{
					"anonymous": false,
					"inputs": [
						{
							"indexed": true,
							"internalType": "address",
							"name": "owner",
							"type": "address"
						},
						{
							"indexed": true,
							"internalType": "address",
							"name": "approved",
							"type": "address"
						},
						{
							"indexed": true,
							"internalType": "uint256",
							"name": "tokenId",
							"type": "uint256"
						}
					],
					"name": "Approval",
					"type": "event"
				},
				{
					"anonymous": false,
					"inputs": [
						{
							"indexed": true,
							"internalType": "address",
							"name": "owner",
							"type": "address"
						},
						{
							"indexed": true,
							"internalType": "address",
							"name": "operator",
							"type": "address"
						},
						{
							"indexed": false,
							"internalType": "bool",
							"name": "approved",
							"type": "bool"
						}
					],
					"name": "ApprovalForAll",
					"type": "event"
				},
				{
					"anonymous": false,
					"inputs": [
						{
							"indexed": false,
							"internalType": "uint8",
							"name": "version",
							"type": "uint8"
						}
					],
					"name": "Initialized",
					"type": "event"
				},
				{
					"anonymous": false,
					"inputs": [
						{
							"indexed": true,
							"internalType": "address",
							"name": "from",
							"type": "address"
						},
						{
							"indexed": true,
							"internalType": "address",
							"name": "to",
							"type": "address"
						},
						{
							"indexed": true,
							"internalType": "uint256",
							"name": "tokenId",
							"type": "uint256"
						}
					],
					"name": "Transfer",
					"type": "event"
				},
				{
					"inputs": [
						{
							"internalType": "address",
							"name": "to",
							"type": "address"
						},
						{
							"internalType": "uint256",
							"name": "tokenId",
							"type": "uint256"
						}
					],
					"name": "approve",
					"outputs": [],
					"stateMutability": "nonpayable",
					"type": "function"
				},
				{
					"inputs": [
						{
							"internalType": "address",
							"name": "owner",
							"type": "address"
						}
					],
					"name": "balanceOf",
					"outputs": [
						{
							"internalType": "uint256",
							"name": "",
							"type": "uint256"
						}
					],
					"stateMutability": "view",
					"type": "function"
				},
				{
					"inputs": [
						{
							"internalType": "uint256",
							"name": "tokenId",
							"type": "uint256"
						}
					],
					"name": "getApproved",
					"outputs": [
						{
							"internalType": "address",
							"name": "",
							"type": "address"
						}
					],
					"stateMutability": "view",
					"type": "function"
				},
				{
					"inputs": [
						{
							"internalType": "address",
							"name": "owner",
							"type": "address"
						},
						{
							"internalType": "address",
							"name": "operator",
							"type": "address"
						}
					],
					"name": "isApprovedForAll",
					"outputs": [
						{
							"internalType": "bool",
							"name": "",
							"type": "bool"
						}
					],
					"stateMutability": "view",
					"type": "function"
				},
				{
					"inputs": [],
					"name": "name",
					"outputs": [
						{
							"internalType": "string",
							"name": "",
							"type": "string"
						}
					],
					"stateMutability": "view",
					"type": "function"
				},
				{
					"inputs": [
						{
							"internalType": "uint256",
							"name": "tokenId",
							"type": "uint256"
						}
					],
					"name": "ownerOf",
					"outputs": [
						{
							"internalType": "address",
							"name": "",
							"type": "address"
						}
					],
					"stateMutability": "view",
					"type": "function"
				},
				{
					"inputs": [
						{
							"internalType": "address",
							"name": "from",
							"type": "address"
						},
						{
							"internalType": "address",
							"name": "to",
							"type": "address"
						},
						{
							"internalType": "uint256",
							"name": "tokenId",
							"type": "uint256"
						}
					],
					"name": "safeTransferFrom",
					"outputs": [],
					"stateMutability": "nonpayable",
					"type": "function"
				},
				{
					"inputs": [
						{
							"internalType": "address",
							"name": "from",
							"type": "address"
						},
						{
							"internalType": "address",
							"name": "to",
							"type": "address"
						},
						{
							"internalType": "uint256",
							"name": "tokenId",
							"type": "uint256"
						},
						{
							"internalType": "bytes",
							"name": "data",
							"type": "bytes"
						}
					],
					"name": "safeTransferFrom",
					"outputs": [],
					"stateMutability": "nonpayable",
					"type": "function"
				},
				{
					"inputs": [
						{
							"internalType": "address",
							"name": "operator",
							"type": "address"
						},
						{
							"internalType": "bool",
							"name": "approved",
							"type": "bool"
						}
					],
					"name": "setApprovalForAll",
					"outputs": [],
					"stateMutability": "nonpayable",
					"type": "function"
				},
				{
					"inputs": [
						{
							"internalType": "bool",
							"name": "_flag",
							"type": "bool"
						}
					],
					"name": "setIsBounded",
					"outputs": [],
					"stateMutability": "nonpayable",
					"type": "function"
				},
				{
					"inputs": [
						{
							"internalType": "bytes4",
							"name": "interfaceId",
							"type": "bytes4"
						}
					],
					"name": "supportsInterface",
					"outputs": [
						{
							"internalType": "bool",
							"name": "",
							"type": "bool"
						}
					],
					"stateMutability": "view",
					"type": "function"
				},
				{
					"inputs": [],
					"name": "symbol",
					"outputs": [
						{
							"internalType": "string",
							"name": "",
							"type": "string"
						}
					],
					"stateMutability": "view",
					"type": "function"
				},
				{
					"inputs": [
						{
							"internalType": "uint256",
							"name": "tokenId",
							"type": "uint256"
						}
					],
					"name": "tokenURI",
					"outputs": [
						{
							"internalType": "string",
							"name": "",
							"type": "string"
						}
					],
					"stateMutability": "view",
					"type": "function"
				},
				{
					"inputs": [
						{
							"internalType": "address",
							"name": "from",
							"type": "address"
						},
						{
							"internalType": "address",
							"name": "to",
							"type": "address"
						},
						{
							"internalType": "uint256",
							"name": "tokenId",
							"type": "uint256"
						}
					],
					"name": "transferFrom",
					"outputs": [],
					"stateMutability": "nonpayable",
					"type": "function"
				}
			],
			"devdoc": {
				"details": "Implementation of https://eips.ethereum.org/EIPS/eip-721[ERC721] Non-Fungible Token Standard, including the Metadata extension, but not including the Enumerable extension, which is available separately as {ERC721Enumerable}.",
				"kind": "dev",
				"methods": {
					"approve(address,uint256)": {
						"details": "See {IERC721-approve}."
					},
					"balanceOf(address)": {
						"details": "See {IERC721-balanceOf}."
					},
					"getApproved(uint256)": {
						"details": "See {IERC721-getApproved}."
					},
					"isApprovedForAll(address,address)": {
						"details": "See {IERC721-isApprovedForAll}."
					},
					"name()": {
						"details": "See {IERC721Metadata-name}."
					},
					"ownerOf(uint256)": {
						"details": "See {IERC721-ownerOf}."
					},
					"safeTransferFrom(address,address,uint256)": {
						"details": "See {IERC721-safeTransferFrom}."
					},
					"safeTransferFrom(address,address,uint256,bytes)": {
						"details": "See {IERC721-safeTransferFrom}."
					},
					"setApprovalForAll(address,bool)": {
						"details": "See {IERC721-setApprovalForAll}."
					},
					"supportsInterface(bytes4)": {
						"details": "See {IERC165-supportsInterface}."
					},
					"symbol()": {
						"details": "See {IERC721Metadata-symbol}."
					},
					"tokenURI(uint256)": {
						"details": "See {IERC721Metadata-tokenURI}."
					},
					"transferFrom(address,address,uint256)": {
						"details": "See {IERC721-transferFrom}."
					}
				},
				"stateVariables": {
					"__gap": {
						"details": "This empty reserved space is put in place to allow future versions to add new variables without shifting down storage in the inheritance chain. See https://docs.openzeppelin.com/contracts/4.x/upgradeable#storage_gaps"
					}
				},
				"version": 1
			},
			"evm": {
				"assembly": "    /* \"mlmContracts/contracts-upgradeable@4.8/token/ERC721/ERC721Upgradeable.sol\":751:18455  contract ERC721Upgradeable is Initializable, ContextUpgradeable, ERC165Upgradeable, IERC721Upgradeable, IERC721MetadataUpgradeable {... */\n  mstore(0x40, 0x80)\n  callvalue\n  dup1\n  iszero\n  tag_1\n  jumpi\n  0x00\n  dup1\n  revert\ntag_1:\n  pop\n  dataSize(sub_0)\n  dup1\n  dataOffset(sub_0)\n  0x00\n  codecopy\n  0x00\n  return\nstop\n\nsub_0: assembly {\n        /* \"mlmContracts/contracts-upgradeable@4.8/token/ERC721/ERC721Upgradeable.sol\":751:18455  contract ERC721Upgradeable is Initializable, ContextUpgradeable, ERC165Upgradeable, IERC721Upgradeable, IERC721MetadataUpgradeable {... */\n      mstore(0x40, 0x80)\n      callvalue\n      dup1\n      iszero\n      tag_1\n      jumpi\n      0x00\n      dup1\n      revert\n    tag_1:\n      pop\n      jumpi(tag_2, lt(calldatasize, 0x04))\n      shr(0xe0, calldataload(0x00))\n      dup1\n      0x70a08231\n      gt\n      tag_17\n      jumpi\n      dup1\n      0xa9f51b23\n      gt\n      tag_18\n      jumpi\n      dup1\n      0xa9f51b23\n      eq\n      tag_13\n      jumpi\n      dup1\n      0xb88d4fde\n      eq\n      tag_14\n      jumpi\n      dup1\n      0xc87b56dd\n      eq\n      tag_15\n      jumpi\n      dup1\n      0xe985e9c5\n      eq\n      tag_16\n      jumpi\n      0x00\n      dup1\n      revert\n    tag_18:\n      dup1\n      0x70a08231\n      eq\n      tag_10\n      jumpi\n      dup1\n      0x95d89b41\n      eq\n      tag_11\n      jumpi\n      dup1\n      0xa22cb465\n      eq\n      tag_12\n      jumpi\n      0x00\n      dup1\n      revert\n    tag_17:\n      dup1\n      0x095ea7b3\n      gt\n      tag_19\n      jumpi\n      dup1\n      0x095ea7b3\n      eq\n      tag_6\n      jumpi\n      dup1\n      0x23b872dd\n      eq\n      tag_7\n      jumpi\n      dup1\n      0x42842e0e\n      eq\n      tag_8\n      jumpi\n      dup1\n      0x6352211e\n      eq\n      tag_9\n      jumpi\n      0x00\n      dup1\n      revert\n    tag_19:\n      dup1\n      0x01ffc9a7\n      eq\n      tag_3\n      jumpi\n      dup1\n      0x06fdde03\n      eq\n      tag_4\n      jumpi\n      dup1\n      0x081812fc\n      eq\n      tag_5\n      jumpi\n    tag_2:\n      0x00\n      dup1\n      revert\n        /* \"mlmContracts/contracts-upgradeable@4.8/token/ERC721/ERC721Upgradeable.sol\":2076:2420  function supportsInterface(bytes4 interfaceId) public view virtual override(ERC165Upgradeable, IERC165Upgradeable) returns (bool) {... */\n    tag_3:\n      tag_20\n      tag_21\n      calldatasize\n      0x04\n      tag_22\n      jump\t// in\n    tag_21:\n      tag_23\n      jump\t// in\n    tag_20:\n      mload(0x40)\n        /* \"#utility.yul\":565:579   */\n      swap1\n      iszero\n        /* \"#utility.yul\":558:580   */\n      iszero\n        /* \"#utility.yul\":540:581   */\n      dup2\n      mstore\n        /* \"#utility.yul\":528:530   */\n      0x20\n        /* \"#utility.yul\":513:531   */\n      add\n        /* \"mlmContracts/contracts-upgradeable@4.8/token/ERC721/ERC721Upgradeable.sol\":2076:2420  function supportsInterface(bytes4 interfaceId) public view virtual override(ERC165Upgradeable, IERC165Upgradeable) returns (bool) {... */\n    tag_24:\n      mload(0x40)\n      dup1\n      swap2\n      sub\n      swap1\n      return\n        /* \"mlmContracts/contracts-upgradeable@4.8/token/ERC721/ERC721Upgradeable.sol\":3021:3119  function name() public view virtual override returns (string memory) {... */\n    tag_4:\n      tag_26\n      tag_27\n      jump\t// in\n    tag_26:\n      mload(0x40)\n      tag_24\n      swap2\n      swap1\n      tag_29\n      jump\t// in\n        /* \"mlmContracts/contracts-upgradeable@4.8/token/ERC721/ERC721Upgradeable.sol\":4612:4779  function getApproved(uint256 tokenId) public view virtual override returns (address) {... */\n    tag_5:\n      tag_30\n      tag_31\n      calldatasize\n      0x04\n      tag_32\n      jump\t// in\n    tag_31:\n      tag_33\n      jump\t// in\n    tag_30:\n      mload(0x40)\n      sub(shl(0xa0, 0x01), 0x01)\n        /* \"#utility.yul\":1692:1724   */\n      swap1\n      swap2\n      and\n        /* \"#utility.yul\":1674:1725   */\n      dup2\n      mstore\n        /* \"#utility.yul\":1662:1664   */\n      0x20\n        /* \"#utility.yul\":1647:1665   */\n      add\n        /* \"mlmContracts/contracts-upgradeable@4.8/token/ERC721/ERC721Upgradeable.sol\":4612:4779  function getApproved(uint256 tokenId) public view virtual override returns (address) {... */\n      tag_24\n        /* \"#utility.yul\":1528:1731   */\n      jump\n        /* \"mlmContracts/contracts-upgradeable@4.8/token/ERC721/ERC721Upgradeable.sol\":4134:4551  function approve(address to, uint256 tokenId) public virtual override {... */\n    tag_6:\n      tag_36\n      tag_37\n      calldatasize\n      0x04\n      tag_38\n      jump\t// in\n    tag_37:\n      tag_39\n      jump\t// in\n    tag_36:\n      stop\n        /* \"mlmContracts/contracts-upgradeable@4.8/token/ERC721/ERC721Upgradeable.sol\":5381:5707  function transferFrom(... */\n    tag_7:\n      tag_36\n      tag_41\n      calldatasize\n      0x04\n      tag_42\n      jump\t// in\n    tag_41:\n      tag_43\n      jump\t// in\n        /* \"mlmContracts/contracts-upgradeable@4.8/token/ERC721/ERC721Upgradeable.sol\":5773:5952  function safeTransferFrom(... */\n    tag_8:\n      tag_36\n      tag_45\n      calldatasize\n      0x04\n      tag_42\n      jump\t// in\n    tag_45:\n      tag_46\n      jump\t// in\n        /* \"mlmContracts/contracts-upgradeable@4.8/token/ERC721/ERC721Upgradeable.sol\":2740:2959  function ownerOf(uint256 tokenId) public view virtual override returns (address) {... */\n    tag_9:\n      tag_30\n      tag_48\n      calldatasize\n      0x04\n      tag_32\n      jump\t// in\n    tag_48:\n      tag_49\n      jump\t// in\n        /* \"mlmContracts/contracts-upgradeable@4.8/token/ERC721/ERC721Upgradeable.sol\":2479:2683  function balanceOf(address owner) public view virtual override returns (uint256) {... */\n    tag_10:\n      tag_51\n      tag_52\n      calldatasize\n      0x04\n      tag_53\n      jump\t// in\n    tag_52:\n      tag_54\n      jump\t// in\n    tag_51:\n      mload(0x40)\n        /* \"#utility.yul\":2843:2868   */\n      swap1\n      dup2\n      mstore\n        /* \"#utility.yul\":2831:2833   */\n      0x20\n        /* \"#utility.yul\":2816:2834   */\n      add\n        /* \"mlmContracts/contracts-upgradeable@4.8/token/ERC721/ERC721Upgradeable.sol\":2479:2683  function balanceOf(address owner) public view virtual override returns (uint256) {... */\n      tag_24\n        /* \"#utility.yul\":2697:2874   */\n      jump\n        /* \"mlmContracts/contracts-upgradeable@4.8/token/ERC721/ERC721Upgradeable.sol\":3183:3285  function symbol() public view virtual override returns (string memory) {... */\n    tag_11:\n      tag_26\n      tag_58\n      jump\t// in\n        /* \"mlmContracts/contracts-upgradeable@4.8/token/ERC721/ERC721Upgradeable.sol\":4846:4999  function setApprovalForAll(address operator, bool approved) public virtual override {... */\n    tag_12:\n      tag_36\n      tag_61\n      calldatasize\n      0x04\n      tag_62\n      jump\t// in\n    tag_61:\n      tag_63\n      jump\t// in\n        /* \"mlmContracts/contracts-upgradeable@4.8/token/ERC721/ERC721Upgradeable.sol\":5005:5091  function setIsBounded(bool _flag) public onlyManager{... */\n    tag_13:\n      tag_36\n      tag_65\n      calldatasize\n      0x04\n      tag_66\n      jump\t// in\n    tag_65:\n      tag_67\n      jump\t// in\n        /* \"mlmContracts/contracts-upgradeable@4.8/token/ERC721/ERC721Upgradeable.sol\":6018:6332  function safeTransferFrom(... */\n    tag_14:\n      tag_36\n      tag_69\n      calldatasize\n      0x04\n      tag_70\n      jump\t// in\n    tag_69:\n      tag_71\n      jump\t// in\n        /* \"mlmContracts/contracts-upgradeable@4.8/token/ERC721/ERC721Upgradeable.sol\":3351:3627  function tokenURI(uint256 tokenId) public view virtual override returns (string memory) {... */\n    tag_15:\n      tag_26\n      tag_73\n      calldatasize\n      0x04\n      tag_32\n      jump\t// in\n    tag_73:\n      tag_74\n      jump\t// in\n        /* \"mlmContracts/contracts-upgradeable@4.8/token/ERC721/ERC721Upgradeable.sol\":5157:5319  function isApprovedForAll(address owner, address operator) public view virtual override returns (bool) {... */\n    tag_16:\n      tag_20\n      tag_77\n      calldatasize\n      0x04\n      tag_78\n      jump\t// in\n    tag_77:\n      sub(shl(0xa0, 0x01), 0x01)\n        /* \"mlmContracts/contracts-upgradeable@4.8/token/ERC721/ERC721Upgradeable.sol\":5277:5302  _operatorApprovals[owner] */\n      swap2\n      dup3\n      and\n        /* \"mlmContracts/contracts-upgradeable@4.8/token/ERC721/ERC721Upgradeable.sol\":5254:5258  bool */\n      0x00\n        /* \"mlmContracts/contracts-upgradeable@4.8/token/ERC721/ERC721Upgradeable.sol\":5277:5302  _operatorApprovals[owner] */\n      swap1\n      dup2\n      mstore\n        /* \"mlmContracts/contracts-upgradeable@4.8/token/ERC721/ERC721Upgradeable.sol\":5277:5295  _operatorApprovals */\n      0x6a\n        /* \"mlmContracts/contracts-upgradeable@4.8/token/ERC721/ERC721Upgradeable.sol\":5277:5302  _operatorApprovals[owner] */\n      0x20\n      swap1\n      dup2\n      mstore\n      0x40\n      dup1\n      dup4\n      keccak256\n        /* \"mlmContracts/contracts-upgradeable@4.8/token/ERC721/ERC721Upgradeable.sol\":5277:5312  _operatorApprovals[owner][operator] */\n      swap4\n      swap1\n      swap5\n      and\n      dup3\n      mstore\n      swap2\n      swap1\n      swap2\n      mstore\n      keccak256\n      sload\n      0xff\n      and\n      swap1\n        /* \"mlmContracts/contracts-upgradeable@4.8/token/ERC721/ERC721Upgradeable.sol\":5157:5319  function isApprovedForAll(address owner, address operator) public view virtual override returns (bool) {... */\n      jump\n        /* \"mlmContracts/contracts-upgradeable@4.8/token/ERC721/ERC721Upgradeable.sol\":2076:2420  function supportsInterface(bytes4 interfaceId) public view virtual override(ERC165Upgradeable, IERC165Upgradeable) returns (bool) {... */\n    tag_23:\n        /* \"mlmContracts/contracts-upgradeable@4.8/token/ERC721/ERC721Upgradeable.sol\":2200:2204  bool */\n      0x00\n      not(sub(shl(0xe0, 0x01), 0x01))\n        /* \"mlmContracts/contracts-upgradeable@4.8/token/ERC721/ERC721Upgradeable.sol\":2235:2286  interfaceId == type(IERC721Upgradeable).interfaceId */\n      dup3\n      and\n      shl(0xe0, 0x80ac58cd)\n      eq\n      dup1\n        /* \"mlmContracts/contracts-upgradeable@4.8/token/ERC721/ERC721Upgradeable.sol\":2235:2361  interfaceId == type(IERC721Upgradeable).interfaceId ||... */\n      tag_82\n      jumpi\n      pop\n      not(sub(shl(0xe0, 0x01), 0x01))\n        /* \"mlmContracts/contracts-upgradeable@4.8/token/ERC721/ERC721Upgradeable.sol\":2302:2361  interfaceId == type(IERC721MetadataUpgradeable).interfaceId */\n      dup3\n      and\n      shl(0xe0, 0x5b5e139f)\n      eq\n        /* \"mlmContracts/contracts-upgradeable@4.8/token/ERC721/ERC721Upgradeable.sol\":2235:2361  interfaceId == type(IERC721Upgradeable).interfaceId ||... */\n    tag_82:\n        /* \"mlmContracts/contracts-upgradeable@4.8/token/ERC721/ERC721Upgradeable.sol\":2235:2413  interfaceId == type(IERC721Upgradeable).interfaceId ||... */\n      dup1\n      tag_84\n      jumpi\n      pop\n      shl(0xe0, 0x01ffc9a7)\n      not(sub(shl(0xe0, 0x01), 0x01))\n        /* \"mlmContracts/contracts-upgradeable@4.8/utils/introspection/ERC165Upgradeable.sol\":1168:1219  interfaceId == type(IERC165Upgradeable).interfaceId */\n      dup4\n      and\n      eq\n        /* \"mlmContracts/contracts-upgradeable@4.8/token/ERC721/ERC721Upgradeable.sol\":2377:2413  super.supportsInterface(interfaceId) */\n    tag_84:\n        /* \"mlmContracts/contracts-upgradeable@4.8/token/ERC721/ERC721Upgradeable.sol\":2216:2413  return... */\n      swap3\n        /* \"mlmContracts/contracts-upgradeable@4.8/token/ERC721/ERC721Upgradeable.sol\":2076:2420  function supportsInterface(bytes4 interfaceId) public view virtual override(ERC165Upgradeable, IERC165Upgradeable) returns (bool) {... */\n      swap2\n      pop\n      pop\n      jump\t// out\n        /* \"mlmContracts/contracts-upgradeable@4.8/token/ERC721/ERC721Upgradeable.sol\":3021:3119  function name() public view virtual override returns (string memory) {... */\n    tag_27:\n        /* \"mlmContracts/contracts-upgradeable@4.8/token/ERC721/ERC721Upgradeable.sol\":3075:3088  string memory */\n      0x60\n        /* \"mlmContracts/contracts-upgradeable@4.8/token/ERC721/ERC721Upgradeable.sol\":3107:3112  _name */\n      0x65\n        /* \"mlmContracts/contracts-upgradeable@4.8/token/ERC721/ERC721Upgradeable.sol\":3100:3112  return _name */\n      dup1\n      sload\n      tag_87\n      swap1\n      tag_88\n      jump\t// in\n    tag_87:\n      dup1\n      0x1f\n      add\n      0x20\n      dup1\n      swap2\n      div\n      mul\n      0x20\n      add\n      mload(0x40)\n      swap1\n      dup2\n      add\n      0x40\n      mstore\n      dup1\n      swap3\n      swap2\n      swap1\n      dup2\n      dup2\n      mstore\n      0x20\n      add\n      dup3\n      dup1\n      sload\n      tag_89\n      swap1\n      tag_88\n      jump\t// in\n    tag_89:\n      dup1\n      iszero\n      tag_90\n      jumpi\n      dup1\n      0x1f\n      lt\n      tag_91\n      jumpi\n      0x0100\n      dup1\n      dup4\n      sload\n      div\n      mul\n      dup4\n      mstore\n      swap2\n      0x20\n      add\n      swap2\n      jump(tag_90)\n    tag_91:\n      dup3\n      add\n      swap2\n      swap1\n      0x00\n      mstore\n      keccak256(0x00, 0x20)\n      swap1\n    tag_92:\n      dup2\n      sload\n      dup2\n      mstore\n      swap1\n      0x01\n      add\n      swap1\n      0x20\n      add\n      dup1\n      dup4\n      gt\n      tag_92\n      jumpi\n      dup3\n      swap1\n      sub\n      0x1f\n      and\n      dup3\n      add\n      swap2\n    tag_90:\n      pop\n      pop\n      pop\n      pop\n      pop\n      swap1\n      pop\n        /* \"mlmContracts/contracts-upgradeable@4.8/token/ERC721/ERC721Upgradeable.sol\":3021:3119  function name() public view virtual override returns (string memory) {... */\n      swap1\n      jump\t// out\n        /* \"mlmContracts/contracts-upgradeable@4.8/token/ERC721/ERC721Upgradeable.sol\":4612:4779  function getApproved(uint256 tokenId) public view virtual override returns (address) {... */\n    tag_33:\n        /* \"mlmContracts/contracts-upgradeable@4.8/token/ERC721/ERC721Upgradeable.sol\":4688:4695  address */\n      0x00\n        /* \"mlmContracts/contracts-upgradeable@4.8/token/ERC721/ERC721Upgradeable.sol\":4707:4730  _requireMinted(tokenId) */\n      tag_94\n        /* \"mlmContracts/contracts-upgradeable@4.8/token/ERC721/ERC721Upgradeable.sol\":4722:4729  tokenId */\n      dup3\n        /* \"mlmContracts/contracts-upgradeable@4.8/token/ERC721/ERC721Upgradeable.sol\":4707:4721  _requireMinted */\n      tag_95\n        /* \"mlmContracts/contracts-upgradeable@4.8/token/ERC721/ERC721Upgradeable.sol\":4707:4730  _requireMinted(tokenId) */\n      jump\t// in\n    tag_94:\n      pop\n        /* \"mlmContracts/contracts-upgradeable@4.8/token/ERC721/ERC721Upgradeable.sol\":4748:4772  _tokenApprovals[tokenId] */\n      0x00\n      swap1\n      dup2\n      mstore\n        /* \"mlmContracts/contracts-upgradeable@4.8/token/ERC721/ERC721Upgradeable.sol\":4748:4763  _tokenApprovals */\n      0x69\n        /* \"mlmContracts/contracts-upgradeable@4.8/token/ERC721/ERC721Upgradeable.sol\":4748:4772  _tokenApprovals[tokenId] */\n      0x20\n      mstore\n      0x40\n      swap1\n      keccak256\n      sload\n      sub(shl(0xa0, 0x01), 0x01)\n      and\n      swap1\n        /* \"mlmContracts/contracts-upgradeable@4.8/token/ERC721/ERC721Upgradeable.sol\":4612:4779  function getApproved(uint256 tokenId) public view virtual override returns (address) {... */\n      jump\t// out\n        /* \"mlmContracts/contracts-upgradeable@4.8/token/ERC721/ERC721Upgradeable.sol\":4134:4551  function approve(address to, uint256 tokenId) public virtual override {... */\n    tag_39:\n        /* \"mlmContracts/contracts-upgradeable@4.8/token/ERC721/ERC721Upgradeable.sol\":4214:4227  address owner */\n      0x00\n        /* \"mlmContracts/contracts-upgradeable@4.8/token/ERC721/ERC721Upgradeable.sol\":4230:4264  ERC721Upgradeable.ownerOf(tokenId) */\n      tag_97\n        /* \"mlmContracts/contracts-upgradeable@4.8/token/ERC721/ERC721Upgradeable.sol\":4256:4263  tokenId */\n      dup3\n        /* \"mlmContracts/contracts-upgradeable@4.8/token/ERC721/ERC721Upgradeable.sol\":4230:4255  ERC721Upgradeable.ownerOf */\n      tag_49\n        /* \"mlmContracts/contracts-upgradeable@4.8/token/ERC721/ERC721Upgradeable.sol\":4230:4264  ERC721Upgradeable.ownerOf(tokenId) */\n      jump\t// in\n    tag_97:\n        /* \"mlmContracts/contracts-upgradeable@4.8/token/ERC721/ERC721Upgradeable.sol\":4214:4264  address owner = ERC721Upgradeable.ownerOf(tokenId) */\n      swap1\n      pop\n        /* \"mlmContracts/contracts-upgradeable@4.8/token/ERC721/ERC721Upgradeable.sol\":4288:4293  owner */\n      dup1\n      sub(shl(0xa0, 0x01), 0x01)\n        /* \"mlmContracts/contracts-upgradeable@4.8/token/ERC721/ERC721Upgradeable.sol\":4282:4293  to != owner */\n      and\n        /* \"mlmContracts/contracts-upgradeable@4.8/token/ERC721/ERC721Upgradeable.sol\":4282:4284  to */\n      dup4\n      sub(shl(0xa0, 0x01), 0x01)\n        /* \"mlmContracts/contracts-upgradeable@4.8/token/ERC721/ERC721Upgradeable.sol\":4282:4293  to != owner */\n      and\n      sub\n        /* \"mlmContracts/contracts-upgradeable@4.8/token/ERC721/ERC721Upgradeable.sol\":4274:4331  require(to != owner, \"ERC721: approval to current owner\") */\n      tag_98\n      jumpi\n      mload(0x40)\n      shl(0xe5, 0x461bcd)\n      dup2\n      mstore\n        /* \"#utility.yul\":5615:5617   */\n      0x20\n        /* \"mlmContracts/contracts-upgradeable@4.8/token/ERC721/ERC721Upgradeable.sol\":4274:4331  require(to != owner, \"ERC721: approval to current owner\") */\n      0x04\n      dup3\n      add\n        /* \"#utility.yul\":5597:5618   */\n      mstore\n        /* \"#utility.yul\":5654:5656   */\n      0x21\n        /* \"#utility.yul\":5634:5652   */\n      0x24\n      dup3\n      add\n        /* \"#utility.yul\":5627:5657   */\n      mstore\n        /* \"#utility.yul\":5693:5727   */\n      0x4552433732313a20617070726f76616c20746f2063757272656e74206f776e65\n        /* \"#utility.yul\":5673:5691   */\n      0x44\n      dup3\n      add\n        /* \"#utility.yul\":5666:5728   */\n      mstore\n      shl(0xf9, 0x39)\n        /* \"#utility.yul\":5744:5762   */\n      0x64\n      dup3\n      add\n        /* \"#utility.yul\":5737:5768   */\n      mstore\n        /* \"#utility.yul\":5785:5804   */\n      0x84\n      add\n        /* \"mlmContracts/contracts-upgradeable@4.8/token/ERC721/ERC721Upgradeable.sol\":4274:4331  require(to != owner, \"ERC721: approval to current owner\") */\n    tag_99:\n      mload(0x40)\n      dup1\n      swap2\n      sub\n      swap1\n      revert\n    tag_98:\n        /* \"mlmContracts/contracts-upgradeable@4.8/utils/ContextUpgradeable.sol\":929:939  msg.sender */\n      caller\n      sub(shl(0xa0, 0x01), 0x01)\n        /* \"mlmContracts/contracts-upgradeable@4.8/token/ERC721/ERC721Upgradeable.sol\":4363:4384  _msgSender() == owner */\n      dup3\n      and\n      eq\n      dup1\n        /* \"mlmContracts/contracts-upgradeable@4.8/token/ERC721/ERC721Upgradeable.sol\":4363:4425  _msgSender() == owner || isApprovedForAll(owner, _msgSender()) */\n      tag_104\n      jumpi\n      pop\n        /* \"mlmContracts/contracts-upgradeable@4.8/token/ERC721/ERC721Upgradeable.sol\":4388:4425  isApprovedForAll(owner, _msgSender()) */\n      tag_104\n        /* \"mlmContracts/contracts-upgradeable@4.8/token/ERC721/ERC721Upgradeable.sol\":4405:4410  owner */\n      dup2\n        /* \"mlmContracts/contracts-upgradeable@4.8/utils/ContextUpgradeable.sol\":929:939  msg.sender */\n      caller\n        /* \"mlmContracts/contracts-upgradeable@4.8/token/ERC721/ERC721Upgradeable.sol\":5157:5319  function isApprovedForAll(address owner, address operator) public view virtual override returns (bool) {... */\n      tag_77\n      jump\t// in\n        /* \"mlmContracts/contracts-upgradeable@4.8/token/ERC721/ERC721Upgradeable.sol\":4388:4425  isApprovedForAll(owner, _msgSender()) */\n    tag_104:\n        /* \"mlmContracts/contracts-upgradeable@4.8/token/ERC721/ERC721Upgradeable.sol\":4342:4512  require(... */\n      tag_106\n      jumpi\n      mload(0x40)\n      shl(0xe5, 0x461bcd)\n      dup2\n      mstore\n        /* \"#utility.yul\":6017:6019   */\n      0x20\n        /* \"mlmContracts/contracts-upgradeable@4.8/token/ERC721/ERC721Upgradeable.sol\":4342:4512  require(... */\n      0x04\n      dup3\n      add\n        /* \"#utility.yul\":5999:6020   */\n      mstore\n        /* \"#utility.yul\":6056:6058   */\n      0x3d\n        /* \"#utility.yul\":6036:6054   */\n      0x24\n      dup3\n      add\n        /* \"#utility.yul\":6029:6059   */\n      mstore\n        /* \"#utility.yul\":6095:6129   */\n      0x4552433732313a20617070726f76652063616c6c6572206973206e6f7420746f\n        /* \"#utility.yul\":6075:6093   */\n      0x44\n      dup3\n      add\n        /* \"#utility.yul\":6068:6130   */\n      mstore\n        /* \"#utility.yul\":6166:6197   */\n      0x6b656e206f776e6572206f7220617070726f76656420666f7220616c6c000000\n        /* \"#utility.yul\":6146:6164   */\n      0x64\n      dup3\n      add\n        /* \"#utility.yul\":6139:6198   */\n      mstore\n        /* \"#utility.yul\":6215:6234   */\n      0x84\n      add\n        /* \"mlmContracts/contracts-upgradeable@4.8/token/ERC721/ERC721Upgradeable.sol\":4342:4512  require(... */\n      tag_99\n        /* \"#utility.yul\":5815:6240   */\n      jump\n        /* \"mlmContracts/contracts-upgradeable@4.8/token/ERC721/ERC721Upgradeable.sol\":4342:4512  require(... */\n    tag_106:\n        /* \"mlmContracts/contracts-upgradeable@4.8/token/ERC721/ERC721Upgradeable.sol\":4523:4544  _approve(to, tokenId) */\n      tag_109\n        /* \"mlmContracts/contracts-upgradeable@4.8/token/ERC721/ERC721Upgradeable.sol\":4532:4534  to */\n      dup4\n        /* \"mlmContracts/contracts-upgradeable@4.8/token/ERC721/ERC721Upgradeable.sol\":4536:4543  tokenId */\n      dup4\n        /* \"mlmContracts/contracts-upgradeable@4.8/token/ERC721/ERC721Upgradeable.sol\":4523:4531  _approve */\n      tag_110\n        /* \"mlmContracts/contracts-upgradeable@4.8/token/ERC721/ERC721Upgradeable.sol\":4523:4544  _approve(to, tokenId) */\n      jump\t// in\n    tag_109:\n        /* \"mlmContracts/contracts-upgradeable@4.8/token/ERC721/ERC721Upgradeable.sol\":4204:4551  {... */\n      pop\n        /* \"mlmContracts/contracts-upgradeable@4.8/token/ERC721/ERC721Upgradeable.sol\":4134:4551  function approve(address to, uint256 tokenId) public virtual override {... */\n      pop\n      pop\n      jump\t// out\n        /* \"mlmContracts/contracts-upgradeable@4.8/token/ERC721/ERC721Upgradeable.sol\":5381:5707  function transferFrom(... */\n    tag_43:\n        /* \"mlmContracts/contracts-upgradeable@4.8/token/ERC721/ERC721Upgradeable.sol\":5570:5611  _isApprovedOrOwner(_msgSender(), tokenId) */\n      tag_112\n        /* \"mlmContracts/contracts-upgradeable@4.8/utils/ContextUpgradeable.sol\":929:939  msg.sender */\n      caller\n        /* \"mlmContracts/contracts-upgradeable@4.8/token/ERC721/ERC721Upgradeable.sol\":5603:5610  tokenId */\n      dup3\n        /* \"mlmContracts/contracts-upgradeable@4.8/token/ERC721/ERC721Upgradeable.sol\":5570:5588  _isApprovedOrOwner */\n      tag_114\n        /* \"mlmContracts/contracts-upgradeable@4.8/token/ERC721/ERC721Upgradeable.sol\":5570:5611  _isApprovedOrOwner(_msgSender(), tokenId) */\n      jump\t// in\n    tag_112:\n        /* \"mlmContracts/contracts-upgradeable@4.8/token/ERC721/ERC721Upgradeable.sol\":5562:5661  require(_isApprovedOrOwner(_msgSender(), tokenId), \"ERC721: caller is not token owner or approved\") */\n      tag_115\n      jumpi\n      mload(0x40)\n      shl(0xe5, 0x461bcd)\n      dup2\n      mstore\n      0x04\n      add\n      tag_99\n      swap1\n      tag_117\n      jump\t// in\n    tag_115:\n        /* \"mlmContracts/contracts-upgradeable@4.8/token/ERC721/ERC721Upgradeable.sol\":5672:5700  _transfer(from, to, tokenId) */\n      tag_109\n        /* \"mlmContracts/contracts-upgradeable@4.8/token/ERC721/ERC721Upgradeable.sol\":5682:5686  from */\n      dup4\n        /* \"mlmContracts/contracts-upgradeable@4.8/token/ERC721/ERC721Upgradeable.sol\":5688:5690  to */\n      dup4\n        /* \"mlmContracts/contracts-upgradeable@4.8/token/ERC721/ERC721Upgradeable.sol\":5692:5699  tokenId */\n      dup4\n        /* \"mlmContracts/contracts-upgradeable@4.8/token/ERC721/ERC721Upgradeable.sol\":5672:5681  _transfer */\n      tag_119\n        /* \"mlmContracts/contracts-upgradeable@4.8/token/ERC721/ERC721Upgradeable.sol\":5672:5700  _transfer(from, to, tokenId) */\n      jump\t// in\n        /* \"mlmContracts/contracts-upgradeable@4.8/token/ERC721/ERC721Upgradeable.sol\":5773:5952  function safeTransferFrom(... */\n    tag_46:\n        /* \"mlmContracts/contracts-upgradeable@4.8/token/ERC721/ERC721Upgradeable.sol\":5906:5945  safeTransferFrom(from, to, tokenId, \"\") */\n      tag_109\n        /* \"mlmContracts/contracts-upgradeable@4.8/token/ERC721/ERC721Upgradeable.sol\":5923:5927  from */\n      dup4\n        /* \"mlmContracts/contracts-upgradeable@4.8/token/ERC721/ERC721Upgradeable.sol\":5929:5931  to */\n      dup4\n        /* \"mlmContracts/contracts-upgradeable@4.8/token/ERC721/ERC721Upgradeable.sol\":5933:5940  tokenId */\n      dup4\n        /* \"mlmContracts/contracts-upgradeable@4.8/token/ERC721/ERC721Upgradeable.sol\":5906:5945  safeTransferFrom(from, to, tokenId, \"\") */\n      mload(0x40)\n      dup1\n      0x20\n      add\n      0x40\n      mstore\n      dup1\n      0x00\n      dup2\n      mstore\n      pop\n        /* \"mlmContracts/contracts-upgradeable@4.8/token/ERC721/ERC721Upgradeable.sol\":5906:5922  safeTransferFrom */\n      tag_71\n        /* \"mlmContracts/contracts-upgradeable@4.8/token/ERC721/ERC721Upgradeable.sol\":5906:5945  safeTransferFrom(from, to, tokenId, \"\") */\n      jump\t// in\n        /* \"mlmContracts/contracts-upgradeable@4.8/token/ERC721/ERC721Upgradeable.sol\":2740:2959  function ownerOf(uint256 tokenId) public view virtual override returns (address) {... */\n    tag_49:\n        /* \"mlmContracts/contracts-upgradeable@4.8/token/ERC721/ERC721Upgradeable.sol\":2812:2819  address */\n      0x00\n        /* \"mlmContracts/contracts-upgradeable@4.8/token/ERC721/ERC721Upgradeable.sol\":7699:7715  _owners[tokenId] */\n      dup2\n      dup2\n      mstore\n        /* \"mlmContracts/contracts-upgradeable@4.8/token/ERC721/ERC721Upgradeable.sol\":7699:7706  _owners */\n      0x67\n        /* \"mlmContracts/contracts-upgradeable@4.8/token/ERC721/ERC721Upgradeable.sol\":7699:7715  _owners[tokenId] */\n      0x20\n      mstore\n      0x40\n      dup2\n      keccak256\n      sload\n      sub(shl(0xa0, 0x01), 0x01)\n      and\n      dup1\n        /* \"mlmContracts/contracts-upgradeable@4.8/token/ERC721/ERC721Upgradeable.sol\":2874:2930  require(owner != address(0), \"ERC721: invalid token ID\") */\n      tag_84\n      jumpi\n      mload(0x40)\n      shl(0xe5, 0x461bcd)\n      dup2\n      mstore\n        /* \"#utility.yul\":6861:6863   */\n      0x20\n        /* \"mlmContracts/contracts-upgradeable@4.8/token/ERC721/ERC721Upgradeable.sol\":2874:2930  require(owner != address(0), \"ERC721: invalid token ID\") */\n      0x04\n      dup3\n      add\n        /* \"#utility.yul\":6843:6864   */\n      mstore\n        /* \"#utility.yul\":6900:6902   */\n      0x18\n        /* \"#utility.yul\":6880:6898   */\n      0x24\n      dup3\n      add\n        /* \"#utility.yul\":6873:6903   */\n      mstore\n      shl(0x42, 0x115490cdcc8c4e881a5b9d985b1a59081d1bdad95b881251)\n        /* \"#utility.yul\":6919:6937   */\n      0x44\n      dup3\n      add\n        /* \"#utility.yul\":6912:6966   */\n      mstore\n        /* \"#utility.yul\":6983:7001   */\n      0x64\n      add\n        /* \"mlmContracts/contracts-upgradeable@4.8/token/ERC721/ERC721Upgradeable.sol\":2874:2930  require(owner != address(0), \"ERC721: invalid token ID\") */\n      tag_99\n        /* \"#utility.yul\":6659:7007   */\n      jump\n        /* \"mlmContracts/contracts-upgradeable@4.8/token/ERC721/ERC721Upgradeable.sol\":2479:2683  function balanceOf(address owner) public view virtual override returns (uint256) {... */\n    tag_54:\n        /* \"mlmContracts/contracts-upgradeable@4.8/token/ERC721/ERC721Upgradeable.sol\":2551:2558  uint256 */\n      0x00\n      sub(shl(0xa0, 0x01), 0x01)\n        /* \"mlmContracts/contracts-upgradeable@4.8/token/ERC721/ERC721Upgradeable.sol\":2578:2597  owner != address(0) */\n      dup3\n      and\n        /* \"mlmContracts/contracts-upgradeable@4.8/token/ERC721/ERC721Upgradeable.sol\":2570:2643  require(owner != address(0), \"ERC721: address zero is not a valid owner\") */\n      tag_129\n      jumpi\n      mload(0x40)\n      shl(0xe5, 0x461bcd)\n      dup2\n      mstore\n        /* \"#utility.yul\":7214:7216   */\n      0x20\n        /* \"mlmContracts/contracts-upgradeable@4.8/token/ERC721/ERC721Upgradeable.sol\":2570:2643  require(owner != address(0), \"ERC721: address zero is not a valid owner\") */\n      0x04\n      dup3\n      add\n        /* \"#utility.yul\":7196:7217   */\n      mstore\n        /* \"#utility.yul\":7253:7255   */\n      0x29\n        /* \"#utility.yul\":7233:7251   */\n      0x24\n      dup3\n      add\n        /* \"#utility.yul\":7226:7256   */\n      mstore\n        /* \"#utility.yul\":7292:7326   */\n      0x4552433732313a2061646472657373207a65726f206973206e6f742061207661\n        /* \"#utility.yul\":7272:7290   */\n      0x44\n      dup3\n      add\n        /* \"#utility.yul\":7265:7327   */\n      mstore\n      shl(0xb9, 0x3634b21037bbb732b9)\n        /* \"#utility.yul\":7343:7361   */\n      0x64\n      dup3\n      add\n        /* \"#utility.yul\":7336:7375   */\n      mstore\n        /* \"#utility.yul\":7392:7411   */\n      0x84\n      add\n        /* \"mlmContracts/contracts-upgradeable@4.8/token/ERC721/ERC721Upgradeable.sol\":2570:2643  require(owner != address(0), \"ERC721: address zero is not a valid owner\") */\n      tag_99\n        /* \"#utility.yul\":7012:7417   */\n      jump\n        /* \"mlmContracts/contracts-upgradeable@4.8/token/ERC721/ERC721Upgradeable.sol\":2570:2643  require(owner != address(0), \"ERC721: address zero is not a valid owner\") */\n    tag_129:\n      pop\n      sub(shl(0xa0, 0x01), 0x01)\n        /* \"mlmContracts/contracts-upgradeable@4.8/token/ERC721/ERC721Upgradeable.sol\":2660:2676  _balances[owner] */\n      and\n      0x00\n      swap1\n      dup2\n      mstore\n        /* \"mlmContracts/contracts-upgradeable@4.8/token/ERC721/ERC721Upgradeable.sol\":2660:2669  _balances */\n      0x68\n        /* \"mlmContracts/contracts-upgradeable@4.8/token/ERC721/ERC721Upgradeable.sol\":2660:2676  _balances[owner] */\n      0x20\n      mstore\n      0x40\n      swap1\n      keccak256\n      sload\n      swap1\n        /* \"mlmContracts/contracts-upgradeable@4.8/token/ERC721/ERC721Upgradeable.sol\":2479:2683  function balanceOf(address owner) public view virtual override returns (uint256) {... */\n      jump\t// out\n        /* \"mlmContracts/contracts-upgradeable@4.8/token/ERC721/ERC721Upgradeable.sol\":3183:3285  function symbol() public view virtual override returns (string memory) {... */\n    tag_58:\n        /* \"mlmContracts/contracts-upgradeable@4.8/token/ERC721/ERC721Upgradeable.sol\":3239:3252  string memory */\n      0x60\n        /* \"mlmContracts/contracts-upgradeable@4.8/token/ERC721/ERC721Upgradeable.sol\":3271:3278  _symbol */\n      0x66\n        /* \"mlmContracts/contracts-upgradeable@4.8/token/ERC721/ERC721Upgradeable.sol\":3264:3278  return _symbol */\n      dup1\n      sload\n      tag_87\n      swap1\n      tag_88\n      jump\t// in\n        /* \"mlmContracts/contracts-upgradeable@4.8/token/ERC721/ERC721Upgradeable.sol\":4846:4999  function setApprovalForAll(address operator, bool approved) public virtual override {... */\n    tag_63:\n        /* \"mlmContracts/contracts-upgradeable@4.8/token/ERC721/ERC721Upgradeable.sol\":4940:4992  _setApprovalForAll(_msgSender(), operator, approved) */\n      tag_139\n        /* \"mlmContracts/contracts-upgradeable@4.8/utils/ContextUpgradeable.sol\":929:939  msg.sender */\n      caller\n        /* \"mlmContracts/contracts-upgradeable@4.8/token/ERC721/ERC721Upgradeable.sol\":4973:4981  operator */\n      dup4\n        /* \"mlmContracts/contracts-upgradeable@4.8/token/ERC721/ERC721Upgradeable.sol\":4983:4991  approved */\n      dup4\n        /* \"mlmContracts/contracts-upgradeable@4.8/token/ERC721/ERC721Upgradeable.sol\":4940:4958  _setApprovalForAll */\n      tag_141\n        /* \"mlmContracts/contracts-upgradeable@4.8/token/ERC721/ERC721Upgradeable.sol\":4940:4992  _setApprovalForAll(_msgSender(), operator, approved) */\n      jump\t// in\n    tag_139:\n        /* \"mlmContracts/contracts-upgradeable@4.8/token/ERC721/ERC721Upgradeable.sol\":4846:4999  function setApprovalForAll(address operator, bool approved) public virtual override {... */\n      pop\n      pop\n      jump\t// out\n        /* \"mlmContracts/contracts-upgradeable@4.8/token/ERC721/ERC721Upgradeable.sol\":5005:5091  function setIsBounded(bool _flag) public onlyManager{... */\n    tag_67:\n        /* \"mlmContracts/contracts-upgradeable@4.8/token/ERC721/ERC721Upgradeable.sol\":4023:4030  manager */\n      and(sub(shl(0xa0, 0x01), 0x01), sload(0x6b))\n        /* \"mlmContracts/contracts-upgradeable@4.8/token/ERC721/ERC721Upgradeable.sol\":4009:4019  msg.sender */\n      caller\n        /* \"mlmContracts/contracts-upgradeable@4.8/token/ERC721/ERC721Upgradeable.sol\":4009:4030  msg.sender == manager */\n      eq\n        /* \"mlmContracts/contracts-upgradeable@4.8/token/ERC721/ERC721Upgradeable.sol\":4001:4058  require(msg.sender == manager, \"Caller is not the owner\") */\n      tag_143\n      jumpi\n      mload(0x40)\n      shl(0xe5, 0x461bcd)\n      dup2\n      mstore\n        /* \"#utility.yul\":7624:7626   */\n      0x20\n        /* \"mlmContracts/contracts-upgradeable@4.8/token/ERC721/ERC721Upgradeable.sol\":4001:4058  require(msg.sender == manager, \"Caller is not the owner\") */\n      0x04\n      dup3\n      add\n        /* \"#utility.yul\":7606:7627   */\n      mstore\n        /* \"#utility.yul\":7663:7665   */\n      0x17\n        /* \"#utility.yul\":7643:7661   */\n      0x24\n      dup3\n      add\n        /* \"#utility.yul\":7636:7666   */\n      mstore\n        /* \"#utility.yul\":7702:7727   */\n      0x43616c6c6572206973206e6f7420746865206f776e6572000000000000000000\n        /* \"#utility.yul\":7682:7700   */\n      0x44\n      dup3\n      add\n        /* \"#utility.yul\":7675:7728   */\n      mstore\n        /* \"#utility.yul\":7745:7763   */\n      0x64\n      add\n        /* \"mlmContracts/contracts-upgradeable@4.8/token/ERC721/ERC721Upgradeable.sol\":4001:4058  require(msg.sender == manager, \"Caller is not the owner\") */\n      tag_99\n        /* \"#utility.yul\":7422:7769   */\n      jump\n        /* \"mlmContracts/contracts-upgradeable@4.8/token/ERC721/ERC721Upgradeable.sol\":4001:4058  require(msg.sender == manager, \"Caller is not the owner\") */\n    tag_143:\n        /* \"mlmContracts/contracts-upgradeable@4.8/token/ERC721/ERC721Upgradeable.sol\":5067:5076  isBounded */\n      0x6b\n        /* \"mlmContracts/contracts-upgradeable@4.8/token/ERC721/ERC721Upgradeable.sol\":5067:5084  isBounded = _flag */\n      dup1\n      sload\n      swap2\n      iszero\n      iszero\n      shl(0xa0, 0x01)\n      mul\n      not(shl(0xa0, 0xff))\n      swap1\n      swap3\n      and\n      swap2\n      swap1\n      swap2\n      or\n      swap1\n      sstore\n        /* \"mlmContracts/contracts-upgradeable@4.8/token/ERC721/ERC721Upgradeable.sol\":5005:5091  function setIsBounded(bool _flag) public onlyManager{... */\n      jump\t// out\n        /* \"mlmContracts/contracts-upgradeable@4.8/token/ERC721/ERC721Upgradeable.sol\":6018:6332  function safeTransferFrom(... */\n    tag_71:\n        /* \"mlmContracts/contracts-upgradeable@4.8/token/ERC721/ERC721Upgradeable.sol\":6186:6227  _isApprovedOrOwner(_msgSender(), tokenId) */\n      tag_148\n        /* \"mlmContracts/contracts-upgradeable@4.8/utils/ContextUpgradeable.sol\":929:939  msg.sender */\n      caller\n        /* \"mlmContracts/contracts-upgradeable@4.8/token/ERC721/ERC721Upgradeable.sol\":6219:6226  tokenId */\n      dup4\n        /* \"mlmContracts/contracts-upgradeable@4.8/token/ERC721/ERC721Upgradeable.sol\":6186:6204  _isApprovedOrOwner */\n      tag_114\n        /* \"mlmContracts/contracts-upgradeable@4.8/token/ERC721/ERC721Upgradeable.sol\":6186:6227  _isApprovedOrOwner(_msgSender(), tokenId) */\n      jump\t// in\n    tag_148:\n        /* \"mlmContracts/contracts-upgradeable@4.8/token/ERC721/ERC721Upgradeable.sol\":6178:6277  require(_isApprovedOrOwner(_msgSender(), tokenId), \"ERC721: caller is not token owner or approved\") */\n      tag_150\n      jumpi\n      mload(0x40)\n      shl(0xe5, 0x461bcd)\n      dup2\n      mstore\n      0x04\n      add\n      tag_99\n      swap1\n      tag_117\n      jump\t// in\n    tag_150:\n        /* \"mlmContracts/contracts-upgradeable@4.8/token/ERC721/ERC721Upgradeable.sol\":6287:6325  _safeTransfer(from, to, tokenId, data) */\n      tag_152\n        /* \"mlmContracts/contracts-upgradeable@4.8/token/ERC721/ERC721Upgradeable.sol\":6301:6305  from */\n      dup5\n        /* \"mlmContracts/contracts-upgradeable@4.8/token/ERC721/ERC721Upgradeable.sol\":6307:6309  to */\n      dup5\n        /* \"mlmContracts/contracts-upgradeable@4.8/token/ERC721/ERC721Upgradeable.sol\":6311:6318  tokenId */\n      dup5\n        /* \"mlmContracts/contracts-upgradeable@4.8/token/ERC721/ERC721Upgradeable.sol\":6320:6324  data */\n      dup5\n        /* \"mlmContracts/contracts-upgradeable@4.8/token/ERC721/ERC721Upgradeable.sol\":6287:6300  _safeTransfer */\n      tag_153\n        /* \"mlmContracts/contracts-upgradeable@4.8/token/ERC721/ERC721Upgradeable.sol\":6287:6325  _safeTransfer(from, to, tokenId, data) */\n      jump\t// in\n    tag_152:\n        /* \"mlmContracts/contracts-upgradeable@4.8/token/ERC721/ERC721Upgradeable.sol\":6018:6332  function safeTransferFrom(... */\n      pop\n      pop\n      pop\n      pop\n      jump\t// out\n        /* \"mlmContracts/contracts-upgradeable@4.8/token/ERC721/ERC721Upgradeable.sol\":3351:3627  function tokenURI(uint256 tokenId) public view virtual override returns (string memory) {... */\n    tag_74:\n        /* \"mlmContracts/contracts-upgradeable@4.8/token/ERC721/ERC721Upgradeable.sol\":3424:3437  string memory */\n      0x60\n        /* \"mlmContracts/contracts-upgradeable@4.8/token/ERC721/ERC721Upgradeable.sol\":3449:3472  _requireMinted(tokenId) */\n      tag_155\n        /* \"mlmContracts/contracts-upgradeable@4.8/token/ERC721/ERC721Upgradeable.sol\":3464:3471  tokenId */\n      dup3\n        /* \"mlmContracts/contracts-upgradeable@4.8/token/ERC721/ERC721Upgradeable.sol\":3449:3463  _requireMinted */\n      tag_95\n        /* \"mlmContracts/contracts-upgradeable@4.8/token/ERC721/ERC721Upgradeable.sol\":3449:3472  _requireMinted(tokenId) */\n      jump\t// in\n    tag_155:\n        /* \"mlmContracts/contracts-upgradeable@4.8/token/ERC721/ERC721Upgradeable.sol\":3483:3504  string memory baseURI */\n      0x00\n        /* \"mlmContracts/contracts-upgradeable@4.8/token/ERC721/ERC721Upgradeable.sol\":3507:3517  _baseURI() */\n      tag_156\n        /* \"mlmContracts/contracts-upgradeable@4.8/token/ERC721/ERC721Upgradeable.sol\":3945:3954  return \"\" */\n      0x40\n      dup1\n      mload\n      0x20\n      dup2\n      add\n      swap1\n      swap2\n      mstore\n      0x00\n      dup2\n      mstore\n      swap1\n        /* \"mlmContracts/contracts-upgradeable@4.8/token/ERC721/ERC721Upgradeable.sol\":3869:3961  function _baseURI() internal view virtual returns (string memory) {... */\n      jump\n        /* \"mlmContracts/contracts-upgradeable@4.8/token/ERC721/ERC721Upgradeable.sol\":3507:3517  _baseURI() */\n    tag_156:\n        /* \"mlmContracts/contracts-upgradeable@4.8/token/ERC721/ERC721Upgradeable.sol\":3483:3517  string memory baseURI = _baseURI() */\n      swap1\n      pop\n        /* \"mlmContracts/contracts-upgradeable@4.8/token/ERC721/ERC721Upgradeable.sol\":3558:3559  0 */\n      0x00\n        /* \"mlmContracts/contracts-upgradeable@4.8/token/ERC721/ERC721Upgradeable.sol\":3540:3547  baseURI */\n      dup2\n        /* \"mlmContracts/contracts-upgradeable@4.8/token/ERC721/ERC721Upgradeable.sol\":3534:3555  bytes(baseURI).length */\n      mload\n        /* \"mlmContracts/contracts-upgradeable@4.8/token/ERC721/ERC721Upgradeable.sol\":3534:3559  bytes(baseURI).length > 0 */\n      gt\n        /* \"mlmContracts/contracts-upgradeable@4.8/token/ERC721/ERC721Upgradeable.sol\":3534:3620  bytes(baseURI).length > 0 ? string(abi.encodePacked(baseURI, tokenId.toString())) : \"\" */\n      tag_158\n      jumpi\n      mload(0x40)\n      dup1\n      0x20\n      add\n      0x40\n      mstore\n      dup1\n      0x00\n      dup2\n      mstore\n      pop\n      jump(tag_159)\n    tag_158:\n        /* \"mlmContracts/contracts-upgradeable@4.8/token/ERC721/ERC721Upgradeable.sol\":3586:3593  baseURI */\n      dup1\n        /* \"mlmContracts/contracts-upgradeable@4.8/token/ERC721/ERC721Upgradeable.sol\":3595:3613  tokenId.toString() */\n      tag_160\n        /* \"mlmContracts/contracts-upgradeable@4.8/token/ERC721/ERC721Upgradeable.sol\":3595:3602  tokenId */\n      dup5\n        /* \"mlmContracts/contracts-upgradeable@4.8/token/ERC721/ERC721Upgradeable.sol\":3595:3611  tokenId.toString */\n      tag_161\n        /* \"mlmContracts/contracts-upgradeable@4.8/token/ERC721/ERC721Upgradeable.sol\":3595:3613  tokenId.toString() */\n      jump\t// in\n    tag_160:\n        /* \"mlmContracts/contracts-upgradeable@4.8/token/ERC721/ERC721Upgradeable.sol\":3569:3614  abi.encodePacked(baseURI, tokenId.toString()) */\n      add(0x20, mload(0x40))\n      tag_162\n      swap3\n      swap2\n      swap1\n      tag_163\n      jump\t// in\n    tag_162:\n      mload(0x40)\n      0x20\n      dup2\n      dup4\n      sub\n      sub\n      dup2\n      mstore\n      swap1\n      0x40\n      mstore\n        /* \"mlmContracts/contracts-upgradeable@4.8/token/ERC721/ERC721Upgradeable.sol\":3534:3620  bytes(baseURI).length > 0 ? string(abi.encodePacked(baseURI, tokenId.toString())) : \"\" */\n    tag_159:\n        /* \"mlmContracts/contracts-upgradeable@4.8/token/ERC721/ERC721Upgradeable.sol\":3527:3620  return bytes(baseURI).length > 0 ? string(abi.encodePacked(baseURI, tokenId.toString())) : \"\" */\n      swap4\n        /* \"mlmContracts/contracts-upgradeable@4.8/token/ERC721/ERC721Upgradeable.sol\":3351:3627  function tokenURI(uint256 tokenId) public view virtual override returns (string memory) {... */\n      swap3\n      pop\n      pop\n      pop\n      jump\t// out\n        /* \"mlmContracts/contracts-upgradeable@4.8/token/ERC721/ERC721Upgradeable.sol\":14301:14434  function _requireMinted(uint256 tokenId) internal view virtual {... */\n    tag_95:\n        /* \"mlmContracts/contracts-upgradeable@4.8/token/ERC721/ERC721Upgradeable.sol\":8090:8094  bool */\n      0x00\n        /* \"mlmContracts/contracts-upgradeable@4.8/token/ERC721/ERC721Upgradeable.sol\":7699:7715  _owners[tokenId] */\n      dup2\n      dup2\n      mstore\n        /* \"mlmContracts/contracts-upgradeable@4.8/token/ERC721/ERC721Upgradeable.sol\":7699:7706  _owners */\n      0x67\n        /* \"mlmContracts/contracts-upgradeable@4.8/token/ERC721/ERC721Upgradeable.sol\":7699:7715  _owners[tokenId] */\n      0x20\n      mstore\n      0x40\n      swap1\n      keccak256\n      sload\n      sub(shl(0xa0, 0x01), 0x01)\n      and\n        /* \"mlmContracts/contracts-upgradeable@4.8/token/ERC721/ERC721Upgradeable.sol\":14374:14427  require(_exists(tokenId), \"ERC721: invalid token ID\") */\n      tag_169\n      jumpi\n      mload(0x40)\n      shl(0xe5, 0x461bcd)\n      dup2\n      mstore\n        /* \"#utility.yul\":6861:6863   */\n      0x20\n        /* \"mlmContracts/contracts-upgradeable@4.8/token/ERC721/ERC721Upgradeable.sol\":14374:14427  require(_exists(tokenId), \"ERC721: invalid token ID\") */\n      0x04\n      dup3\n      add\n        /* \"#utility.yul\":6843:6864   */\n      mstore\n        /* \"#utility.yul\":6900:6902   */\n      0x18\n        /* \"#utility.yul\":6880:6898   */\n      0x24\n      dup3\n      add\n        /* \"#utility.yul\":6873:6903   */\n      mstore\n      shl(0x42, 0x115490cdcc8c4e881a5b9d985b1a59081d1bdad95b881251)\n        /* \"#utility.yul\":6919:6937   */\n      0x44\n      dup3\n      add\n        /* \"#utility.yul\":6912:6966   */\n      mstore\n        /* \"#utility.yul\":6983:7001   */\n      0x64\n      add\n        /* \"mlmContracts/contracts-upgradeable@4.8/token/ERC721/ERC721Upgradeable.sol\":14374:14427  require(_exists(tokenId), \"ERC721: invalid token ID\") */\n      tag_99\n        /* \"#utility.yul\":6659:7007   */\n      jump\n        /* \"mlmContracts/contracts-upgradeable@4.8/token/ERC721/ERC721Upgradeable.sol\":14374:14427  require(_exists(tokenId), \"ERC721: invalid token ID\") */\n    tag_169:\n        /* \"mlmContracts/contracts-upgradeable@4.8/token/ERC721/ERC721Upgradeable.sol\":14301:14434  function _requireMinted(uint256 tokenId) internal view virtual {... */\n      pop\n      jump\t// out\n        /* \"mlmContracts/contracts-upgradeable@4.8/token/ERC721/ERC721Upgradeable.sol\":13592:13774  function _approve(address to, uint256 tokenId) internal virtual {... */\n    tag_110:\n        /* \"mlmContracts/contracts-upgradeable@4.8/token/ERC721/ERC721Upgradeable.sol\":13666:13690  _tokenApprovals[tokenId] */\n      0x00\n      dup2\n      dup2\n      mstore\n        /* \"mlmContracts/contracts-upgradeable@4.8/token/ERC721/ERC721Upgradeable.sol\":13666:13681  _tokenApprovals */\n      0x69\n        /* \"mlmContracts/contracts-upgradeable@4.8/token/ERC721/ERC721Upgradeable.sol\":13666:13690  _tokenApprovals[tokenId] */\n      0x20\n      mstore\n      0x40\n      swap1\n      keccak256\n        /* \"mlmContracts/contracts-upgradeable@4.8/token/ERC721/ERC721Upgradeable.sol\":13666:13695  _tokenApprovals[tokenId] = to */\n      dup1\n      sload\n      not(sub(shl(0xa0, 0x01), 0x01))\n      and\n      sub(shl(0xa0, 0x01), 0x01)\n      dup5\n      and\n      swap1\n      dup2\n      or\n      swap1\n      swap2\n      sstore\n        /* \"mlmContracts/contracts-upgradeable@4.8/token/ERC721/ERC721Upgradeable.sol\":13666:13690  _tokenApprovals[tokenId] */\n      dup2\n      swap1\n        /* \"mlmContracts/contracts-upgradeable@4.8/token/ERC721/ERC721Upgradeable.sol\":13719:13753  ERC721Upgradeable.ownerOf(tokenId) */\n      tag_173\n        /* \"mlmContracts/contracts-upgradeable@4.8/token/ERC721/ERC721Upgradeable.sol\":13666:13690  _tokenApprovals[tokenId] */\n      dup3\n        /* \"mlmContracts/contracts-upgradeable@4.8/token/ERC721/ERC721Upgradeable.sol\":13719:13744  ERC721Upgradeable.ownerOf */\n      tag_49\n        /* \"mlmContracts/contracts-upgradeable@4.8/token/ERC721/ERC721Upgradeable.sol\":13719:13753  ERC721Upgradeable.ownerOf(tokenId) */\n      jump\t// in\n    tag_173:\n      sub(shl(0xa0, 0x01), 0x01)\n        /* \"mlmContracts/contracts-upgradeable@4.8/token/ERC721/ERC721Upgradeable.sol\":13710:13767  Approval(ERC721Upgradeable.ownerOf(tokenId), to, tokenId) */\n      and\n      0x8c5be1e5ebec7d5bd14f71427d1e84f3dd0314c0f7b2291e5b200ac8c7c3b925\n      mload(0x40)\n      mload(0x40)\n      dup1\n      swap2\n      sub\n      swap1\n      log4\n        /* \"mlmContracts/contracts-upgradeable@4.8/token/ERC721/ERC721Upgradeable.sol\":13592:13774  function _approve(address to, uint256 tokenId) internal virtual {... */\n      pop\n      pop\n      jump\t// out\n        /* \"mlmContracts/contracts-upgradeable@4.8/token/ERC721/ERC721Upgradeable.sol\":8309:8581  function _isApprovedOrOwner(address spender, uint256 tokenId) internal view virtual returns (bool) {... */\n    tag_114:\n        /* \"mlmContracts/contracts-upgradeable@4.8/token/ERC721/ERC721Upgradeable.sol\":8402:8406  bool */\n      0x00\n        /* \"mlmContracts/contracts-upgradeable@4.8/token/ERC721/ERC721Upgradeable.sol\":8418:8431  address owner */\n      dup1\n        /* \"mlmContracts/contracts-upgradeable@4.8/token/ERC721/ERC721Upgradeable.sol\":8434:8468  ERC721Upgradeable.ownerOf(tokenId) */\n      tag_175\n        /* \"mlmContracts/contracts-upgradeable@4.8/token/ERC721/ERC721Upgradeable.sol\":8460:8467  tokenId */\n      dup4\n        /* \"mlmContracts/contracts-upgradeable@4.8/token/ERC721/ERC721Upgradeable.sol\":8434:8459  ERC721Upgradeable.ownerOf */\n      tag_49\n        /* \"mlmContracts/contracts-upgradeable@4.8/token/ERC721/ERC721Upgradeable.sol\":8434:8468  ERC721Upgradeable.ownerOf(tokenId) */\n      jump\t// in\n    tag_175:\n        /* \"mlmContracts/contracts-upgradeable@4.8/token/ERC721/ERC721Upgradeable.sol\":8418:8468  address owner = ERC721Upgradeable.ownerOf(tokenId) */\n      swap1\n      pop\n        /* \"mlmContracts/contracts-upgradeable@4.8/token/ERC721/ERC721Upgradeable.sol\":8497:8502  owner */\n      dup1\n      sub(shl(0xa0, 0x01), 0x01)\n        /* \"mlmContracts/contracts-upgradeable@4.8/token/ERC721/ERC721Upgradeable.sol\":8486:8502  spender == owner */\n      and\n        /* \"mlmContracts/contracts-upgradeable@4.8/token/ERC721/ERC721Upgradeable.sol\":8486:8493  spender */\n      dup5\n      sub(shl(0xa0, 0x01), 0x01)\n        /* \"mlmContracts/contracts-upgradeable@4.8/token/ERC721/ERC721Upgradeable.sol\":8486:8502  spender == owner */\n      and\n      eq\n        /* \"mlmContracts/contracts-upgradeable@4.8/token/ERC721/ERC721Upgradeable.sol\":8486:8538  spender == owner || isApprovedForAll(owner, spender) */\n      dup1\n      tag_177\n      jumpi\n      pop\n      sub(shl(0xa0, 0x01), 0x01)\n        /* \"mlmContracts/contracts-upgradeable@4.8/token/ERC721/ERC721Upgradeable.sol\":5277:5302  _operatorApprovals[owner] */\n      dup1\n      dup3\n      and\n        /* \"mlmContracts/contracts-upgradeable@4.8/token/ERC721/ERC721Upgradeable.sol\":5254:5258  bool */\n      0x00\n        /* \"mlmContracts/contracts-upgradeable@4.8/token/ERC721/ERC721Upgradeable.sol\":5277:5302  _operatorApprovals[owner] */\n      swap1\n      dup2\n      mstore\n        /* \"mlmContracts/contracts-upgradeable@4.8/token/ERC721/ERC721Upgradeable.sol\":5277:5295  _operatorApprovals */\n      0x6a\n        /* \"mlmContracts/contracts-upgradeable@4.8/token/ERC721/ERC721Upgradeable.sol\":5277:5302  _operatorApprovals[owner] */\n      0x20\n      swap1\n      dup2\n      mstore\n      0x40\n      dup1\n      dup4\n      keccak256\n        /* \"mlmContracts/contracts-upgradeable@4.8/token/ERC721/ERC721Upgradeable.sol\":5277:5312  _operatorApprovals[owner][operator] */\n      swap4\n      dup9\n      and\n      dup4\n      mstore\n      swap3\n      swap1\n      mstore\n      keccak256\n      sload\n      0xff\n      and\n        /* \"mlmContracts/contracts-upgradeable@4.8/token/ERC721/ERC721Upgradeable.sol\":8506:8538  isApprovedForAll(owner, spender) */\n    tag_177:\n        /* \"mlmContracts/contracts-upgradeable@4.8/token/ERC721/ERC721Upgradeable.sol\":8486:8573  spender == owner || isApprovedForAll(owner, spender) || getApproved(tokenId) == spender */\n      dup1\n      tag_178\n      jumpi\n      pop\n        /* \"mlmContracts/contracts-upgradeable@4.8/token/ERC721/ERC721Upgradeable.sol\":8566:8573  spender */\n      dup4\n      sub(shl(0xa0, 0x01), 0x01)\n        /* \"mlmContracts/contracts-upgradeable@4.8/token/ERC721/ERC721Upgradeable.sol\":8542:8573  getApproved(tokenId) == spender */\n      and\n        /* \"mlmContracts/contracts-upgradeable@4.8/token/ERC721/ERC721Upgradeable.sol\":8542:8562  getApproved(tokenId) */\n      tag_179\n        /* \"mlmContracts/contracts-upgradeable@4.8/token/ERC721/ERC721Upgradeable.sol\":8554:8561  tokenId */\n      dup5\n        /* \"mlmContracts/contracts-upgradeable@4.8/token/ERC721/ERC721Upgradeable.sol\":8542:8553  getApproved */\n      tag_33\n        /* \"mlmContracts/contracts-upgradeable@4.8/token/ERC721/ERC721Upgradeable.sol\":8542:8562  getApproved(tokenId) */\n      jump\t// in\n    tag_179:\n      sub(shl(0xa0, 0x01), 0x01)\n        /* \"mlmContracts/contracts-upgradeable@4.8/token/ERC721/ERC721Upgradeable.sol\":8542:8573  getApproved(tokenId) == spender */\n      and\n      eq\n        /* \"mlmContracts/contracts-upgradeable@4.8/token/ERC721/ERC721Upgradeable.sol\":8486:8573  spender == owner || isApprovedForAll(owner, spender) || getApproved(tokenId) == spender */\n    tag_178:\n        /* \"mlmContracts/contracts-upgradeable@4.8/token/ERC721/ERC721Upgradeable.sol\":8478:8574  return (spender == owner || isApprovedForAll(owner, spender) || getApproved(tokenId) == spender) */\n      swap5\n        /* \"mlmContracts/contracts-upgradeable@4.8/token/ERC721/ERC721Upgradeable.sol\":8309:8581  function _isApprovedOrOwner(address spender, uint256 tokenId) internal view virtual returns (bool) {... */\n      swap4\n      pop\n      pop\n      pop\n      pop\n      jump\t// out\n        /* \"mlmContracts/contracts-upgradeable@4.8/token/ERC721/ERC721Upgradeable.sol\":12225:13480  function _transfer(... */\n    tag_119:\n        /* \"mlmContracts/contracts-upgradeable@4.8/token/ERC721/ERC721Upgradeable.sol\":12390:12394  from */\n      dup3\n      sub(shl(0xa0, 0x01), 0x01)\n        /* \"mlmContracts/contracts-upgradeable@4.8/token/ERC721/ERC721Upgradeable.sol\":12352:12394  ERC721Upgradeable.ownerOf(tokenId) == from */\n      and\n        /* \"mlmContracts/contracts-upgradeable@4.8/token/ERC721/ERC721Upgradeable.sol\":12352:12386  ERC721Upgradeable.ownerOf(tokenId) */\n      tag_181\n        /* \"mlmContracts/contracts-upgradeable@4.8/token/ERC721/ERC721Upgradeable.sol\":12378:12385  tokenId */\n      dup3\n        /* \"mlmContracts/contracts-upgradeable@4.8/token/ERC721/ERC721Upgradeable.sol\":12352:12377  ERC721Upgradeable.ownerOf */\n      tag_49\n        /* \"mlmContracts/contracts-upgradeable@4.8/token/ERC721/ERC721Upgradeable.sol\":12352:12386  ERC721Upgradeable.ownerOf(tokenId) */\n      jump\t// in\n    tag_181:\n      sub(shl(0xa0, 0x01), 0x01)\n        /* \"mlmContracts/contracts-upgradeable@4.8/token/ERC721/ERC721Upgradeable.sol\":12352:12394  ERC721Upgradeable.ownerOf(tokenId) == from */\n      and\n      eq\n        /* \"mlmContracts/contracts-upgradeable@4.8/token/ERC721/ERC721Upgradeable.sol\":12344:12436  require(ERC721Upgradeable.ownerOf(tokenId) == from, \"ERC721: transfer from incorrect owner\") */\n      tag_182\n      jumpi\n      mload(0x40)\n      shl(0xe5, 0x461bcd)\n      dup2\n      mstore\n      0x04\n      add\n      tag_99\n      swap1\n      tag_184\n      jump\t// in\n    tag_182:\n      sub(shl(0xa0, 0x01), 0x01)\n        /* \"mlmContracts/contracts-upgradeable@4.8/token/ERC721/ERC721Upgradeable.sol\":12454:12470  to != address(0) */\n      dup3\n      and\n        /* \"mlmContracts/contracts-upgradeable@4.8/token/ERC721/ERC721Upgradeable.sol\":12446:12511  require(to != address(0), \"ERC721: transfer to the zero address\") */\n      tag_185\n      jumpi\n      mload(0x40)\n      shl(0xe5, 0x461bcd)\n      dup2\n      mstore\n        /* \"#utility.yul\":8857:8859   */\n      0x20\n        /* \"mlmContracts/contracts-upgradeable@4.8/token/ERC721/ERC721Upgradeable.sol\":12446:12511  require(to != address(0), \"ERC721: transfer to the zero address\") */\n      0x04\n      dup3\n      add\n        /* \"#utility.yul\":8839:8860   */\n      mstore\n        /* \"#utility.yul\":8896:8898   */\n      0x24\n        /* \"#utility.yul\":8876:8894   */\n      dup1\n      dup3\n      add\n        /* \"#utility.yul\":8869:8899   */\n      mstore\n        /* \"#utility.yul\":8935:8969   */\n      0x4552433732313a207472616e7366657220746f20746865207a65726f20616464\n        /* \"#utility.yul\":8915:8933   */\n      0x44\n      dup3\n      add\n        /* \"#utility.yul\":8908:8970   */\n      mstore\n      shl(0xe0, 0x72657373)\n        /* \"#utility.yul\":8986:9004   */\n      0x64\n      dup3\n      add\n        /* \"#utility.yul\":8979:9013   */\n      mstore\n        /* \"#utility.yul\":9030:9049   */\n      0x84\n      add\n        /* \"mlmContracts/contracts-upgradeable@4.8/token/ERC721/ERC721Upgradeable.sol\":12446:12511  require(to != address(0), \"ERC721: transfer to the zero address\") */\n      tag_99\n        /* \"#utility.yul\":8655:9055   */\n      jump\n        /* \"mlmContracts/contracts-upgradeable@4.8/token/ERC721/ERC721Upgradeable.sol\":12446:12511  require(to != address(0), \"ERC721: transfer to the zero address\") */\n    tag_185:\n        /* \"mlmContracts/contracts-upgradeable@4.8/token/ERC721/ERC721Upgradeable.sol\":12702:12706  from */\n      dup3\n      sub(shl(0xa0, 0x01), 0x01)\n        /* \"mlmContracts/contracts-upgradeable@4.8/token/ERC721/ERC721Upgradeable.sol\":12664:12706  ERC721Upgradeable.ownerOf(tokenId) == from */\n      and\n        /* \"mlmContracts/contracts-upgradeable@4.8/token/ERC721/ERC721Upgradeable.sol\":12664:12698  ERC721Upgradeable.ownerOf(tokenId) */\n      tag_190\n        /* \"mlmContracts/contracts-upgradeable@4.8/token/ERC721/ERC721Upgradeable.sol\":12690:12697  tokenId */\n      dup3\n        /* \"mlmContracts/contracts-upgradeable@4.8/token/ERC721/ERC721Upgradeable.sol\":12664:12689  ERC721Upgradeable.ownerOf */\n      tag_49\n        /* \"mlmContracts/contracts-upgradeable@4.8/token/ERC721/ERC721Upgradeable.sol\":12664:12698  ERC721Upgradeable.ownerOf(tokenId) */\n      jump\t// in\n    tag_190:\n      sub(shl(0xa0, 0x01), 0x01)\n        /* \"mlmContracts/contracts-upgradeable@4.8/token/ERC721/ERC721Upgradeable.sol\":12664:12706  ERC721Upgradeable.ownerOf(tokenId) == from */\n      and\n      eq\n        /* \"mlmContracts/contracts-upgradeable@4.8/token/ERC721/ERC721Upgradeable.sol\":12656:12748  require(ERC721Upgradeable.ownerOf(tokenId) == from, \"ERC721: transfer from incorrect owner\") */\n      tag_191\n      jumpi\n      mload(0x40)\n      shl(0xe5, 0x461bcd)\n      dup2\n      mstore\n      0x04\n      add\n      tag_99\n      swap1\n      tag_184\n      jump\t// in\n    tag_191:\n        /* \"mlmContracts/contracts-upgradeable@4.8/token/ERC721/ERC721Upgradeable.sol\":12817:12841  _tokenApprovals[tokenId] */\n      0x00\n      dup2\n      dup2\n      mstore\n        /* \"mlmContracts/contracts-upgradeable@4.8/token/ERC721/ERC721Upgradeable.sol\":12817:12832  _tokenApprovals */\n      0x69\n        /* \"mlmContracts/contracts-upgradeable@4.8/token/ERC721/ERC721Upgradeable.sol\":12817:12841  _tokenApprovals[tokenId] */\n      0x20\n      swap1\n      dup2\n      mstore\n      0x40\n      dup1\n      dup4\n      keccak256\n        /* \"mlmContracts/contracts-upgradeable@4.8/token/ERC721/ERC721Upgradeable.sol\":12810:12841  delete _tokenApprovals[tokenId] */\n      dup1\n      sload\n      not(sub(shl(0xa0, 0x01), 0x01))\n      swap1\n      dup2\n      and\n      swap1\n      swap2\n      sstore\n      sub(shl(0xa0, 0x01), 0x01)\n        /* \"mlmContracts/contracts-upgradeable@4.8/token/ERC721/ERC721Upgradeable.sol\":13285:13300  _balances[from] */\n      dup8\n      dup2\n      and\n      dup1\n      dup7\n      mstore\n        /* \"mlmContracts/contracts-upgradeable@4.8/token/ERC721/ERC721Upgradeable.sol\":13285:13294  _balances */\n      0x68\n        /* \"mlmContracts/contracts-upgradeable@4.8/token/ERC721/ERC721Upgradeable.sol\":13285:13300  _balances[from] */\n      dup6\n      mstore\n      dup4\n      dup7\n      keccak256\n        /* \"mlmContracts/contracts-upgradeable@4.8/token/ERC721/ERC721Upgradeable.sol\":13285:13305  _balances[from] -= 1 */\n      dup1\n      sload\n      not(0x00)\n      add\n      swap1\n      sstore\n        /* \"mlmContracts/contracts-upgradeable@4.8/token/ERC721/ERC721Upgradeable.sol\":13319:13332  _balances[to] */\n      swap1\n      dup8\n      and\n      dup1\n      dup7\n      mstore\n      dup4\n      dup7\n      keccak256\n        /* \"mlmContracts/contracts-upgradeable@4.8/token/ERC721/ERC721Upgradeable.sol\":13319:13337  _balances[to] += 1 */\n      dup1\n      sload\n        /* \"mlmContracts/contracts-upgradeable@4.8/token/ERC721/ERC721Upgradeable.sol\":12810:12841  delete _tokenApprovals[tokenId] */\n      0x01\n        /* \"mlmContracts/contracts-upgradeable@4.8/token/ERC721/ERC721Upgradeable.sol\":13319:13337  _balances[to] += 1 */\n      add\n      swap1\n      sstore\n        /* \"mlmContracts/contracts-upgradeable@4.8/token/ERC721/ERC721Upgradeable.sol\":13357:13373  _owners[tokenId] */\n      dup7\n      dup7\n      mstore\n        /* \"mlmContracts/contracts-upgradeable@4.8/token/ERC721/ERC721Upgradeable.sol\":13357:13364  _owners */\n      0x67\n        /* \"mlmContracts/contracts-upgradeable@4.8/token/ERC721/ERC721Upgradeable.sol\":13357:13373  _owners[tokenId] */\n      swap1\n      swap5\n      mstore\n      dup3\n      dup6\n      keccak256\n        /* \"mlmContracts/contracts-upgradeable@4.8/token/ERC721/ERC721Upgradeable.sol\":13357:13378  _owners[tokenId] = to */\n      dup1\n      sload\n      swap1\n      swap3\n      and\n      dup5\n      or\n      swap1\n      swap2\n      sstore\n        /* \"mlmContracts/contracts-upgradeable@4.8/token/ERC721/ERC721Upgradeable.sol\":13394:13421  Transfer(from, to, tokenId) */\n      swap1\n      mload\n        /* \"mlmContracts/contracts-upgradeable@4.8/token/ERC721/ERC721Upgradeable.sol\":12833:12840  tokenId */\n      dup5\n      swap4\n        /* \"mlmContracts/contracts-upgradeable@4.8/token/ERC721/ERC721Upgradeable.sol\":13394:13421  Transfer(from, to, tokenId) */\n      0xddf252ad1be2c89b69c2b068fc378daa952ba7f163c4a11628f55a4df523b3ef\n      swap2\n      log4\n        /* \"mlmContracts/contracts-upgradeable@4.8/token/ERC721/ERC721Upgradeable.sol\":4204:4551  {... */\n      pop\n        /* \"mlmContracts/contracts-upgradeable@4.8/token/ERC721/ERC721Upgradeable.sol\":4134:4551  function approve(address to, uint256 tokenId) public virtual override {... */\n      pop\n      pop\n      jump\t// out\n        /* \"mlmContracts/contracts-upgradeable@4.8/token/ERC721/ERC721Upgradeable.sol\":13910:14217  function _setApprovalForAll(... */\n    tag_141:\n        /* \"mlmContracts/contracts-upgradeable@4.8/token/ERC721/ERC721Upgradeable.sol\":14060:14068  operator */\n      dup2\n      sub(shl(0xa0, 0x01), 0x01)\n        /* \"mlmContracts/contracts-upgradeable@4.8/token/ERC721/ERC721Upgradeable.sol\":14051:14068  owner != operator */\n      and\n        /* \"mlmContracts/contracts-upgradeable@4.8/token/ERC721/ERC721Upgradeable.sol\":14051:14056  owner */\n      dup4\n      sub(shl(0xa0, 0x01), 0x01)\n        /* \"mlmContracts/contracts-upgradeable@4.8/token/ERC721/ERC721Upgradeable.sol\":14051:14068  owner != operator */\n      and\n      sub\n        /* \"mlmContracts/contracts-upgradeable@4.8/token/ERC721/ERC721Upgradeable.sol\":14043:14098  require(owner != operator, \"ERC721: approve to caller\") */\n      tag_197\n      jumpi\n      mload(0x40)\n      shl(0xe5, 0x461bcd)\n      dup2\n      mstore\n        /* \"#utility.yul\":9262:9264   */\n      0x20\n        /* \"mlmContracts/contracts-upgradeable@4.8/token/ERC721/ERC721Upgradeable.sol\":14043:14098  require(owner != operator, \"ERC721: approve to caller\") */\n      0x04\n      dup3\n      add\n        /* \"#utility.yul\":9244:9265   */\n      mstore\n        /* \"#utility.yul\":9301:9303   */\n      0x19\n        /* \"#utility.yul\":9281:9299   */\n      0x24\n      dup3\n      add\n        /* \"#utility.yul\":9274:9304   */\n      mstore\n        /* \"#utility.yul\":9340:9367   */\n      0x4552433732313a20617070726f766520746f2063616c6c657200000000000000\n        /* \"#utility.yul\":9320:9338   */\n      0x44\n      dup3\n      add\n        /* \"#utility.yul\":9313:9368   */\n      mstore\n        /* \"#utility.yul\":9385:9403   */\n      0x64\n      add\n        /* \"mlmContracts/contracts-upgradeable@4.8/token/ERC721/ERC721Upgradeable.sol\":14043:14098  require(owner != operator, \"ERC721: approve to caller\") */\n      tag_99\n        /* \"#utility.yul\":9060:9409   */\n      jump\n        /* \"mlmContracts/contracts-upgradeable@4.8/token/ERC721/ERC721Upgradeable.sol\":14043:14098  require(owner != operator, \"ERC721: approve to caller\") */\n    tag_197:\n      sub(shl(0xa0, 0x01), 0x01)\n        /* \"mlmContracts/contracts-upgradeable@4.8/token/ERC721/ERC721Upgradeable.sol\":14108:14133  _operatorApprovals[owner] */\n      dup4\n      dup2\n      and\n      0x00\n      dup2\n      dup2\n      mstore\n        /* \"mlmContracts/contracts-upgradeable@4.8/token/ERC721/ERC721Upgradeable.sol\":14108:14126  _operatorApprovals */\n      0x6a\n        /* \"mlmContracts/contracts-upgradeable@4.8/token/ERC721/ERC721Upgradeable.sol\":14108:14133  _operatorApprovals[owner] */\n      0x20\n      swap1\n      dup2\n      mstore\n      0x40\n      dup1\n      dup4\n      keccak256\n        /* \"mlmContracts/contracts-upgradeable@4.8/token/ERC721/ERC721Upgradeable.sol\":14108:14143  _operatorApprovals[owner][operator] */\n      swap5\n      dup8\n      and\n      dup1\n      dup5\n      mstore\n      swap5\n      dup3\n      mstore\n      swap2\n      dup3\n      swap1\n      keccak256\n        /* \"mlmContracts/contracts-upgradeable@4.8/token/ERC721/ERC721Upgradeable.sol\":14108:14154  _operatorApprovals[owner][operator] = approved */\n      dup1\n      sload\n      not(0xff)\n      and\n      dup7\n      iszero\n      iszero\n      swap1\n      dup2\n      or\n      swap1\n      swap2\n      sstore\n        /* \"mlmContracts/contracts-upgradeable@4.8/token/ERC721/ERC721Upgradeable.sol\":14169:14210  ApprovalForAll(owner, operator, approved) */\n      swap2\n      mload\n        /* \"#utility.yul\":540:581   */\n      swap2\n      dup3\n      mstore\n        /* \"mlmContracts/contracts-upgradeable@4.8/token/ERC721/ERC721Upgradeable.sol\":14169:14210  ApprovalForAll(owner, operator, approved) */\n      0x17307eab39ab6107e8899845ad3d59bd9653f200f220920489ca2b5937696c31\n      swap2\n        /* \"#utility.yul\":513:531   */\n      add\n        /* \"mlmContracts/contracts-upgradeable@4.8/token/ERC721/ERC721Upgradeable.sol\":14169:14210  ApprovalForAll(owner, operator, approved) */\n      mload(0x40)\n      dup1\n      swap2\n      sub\n      swap1\n      log3\n        /* \"mlmContracts/contracts-upgradeable@4.8/token/ERC721/ERC721Upgradeable.sol\":13910:14217  function _setApprovalForAll(... */\n      pop\n      pop\n      pop\n      jump\t// out\n        /* \"mlmContracts/contracts-upgradeable@4.8/token/ERC721/ERC721Upgradeable.sol\":7193:7498  function _safeTransfer(... */\n    tag_153:\n        /* \"mlmContracts/contracts-upgradeable@4.8/token/ERC721/ERC721Upgradeable.sol\":7343:7371  _transfer(from, to, tokenId) */\n      tag_202\n        /* \"mlmContracts/contracts-upgradeable@4.8/token/ERC721/ERC721Upgradeable.sol\":7353:7357  from */\n      dup5\n        /* \"mlmContracts/contracts-upgradeable@4.8/token/ERC721/ERC721Upgradeable.sol\":7359:7361  to */\n      dup5\n        /* \"mlmContracts/contracts-upgradeable@4.8/token/ERC721/ERC721Upgradeable.sol\":7363:7370  tokenId */\n      dup5\n        /* \"mlmContracts/contracts-upgradeable@4.8/token/ERC721/ERC721Upgradeable.sol\":7343:7352  _transfer */\n      tag_119\n        /* \"mlmContracts/contracts-upgradeable@4.8/token/ERC721/ERC721Upgradeable.sol\":7343:7371  _transfer(from, to, tokenId) */\n      jump\t// in\n    tag_202:\n        /* \"mlmContracts/contracts-upgradeable@4.8/token/ERC721/ERC721Upgradeable.sol\":7389:7436  _checkOnERC721Received(from, to, tokenId, data) */\n      tag_203\n        /* \"mlmContracts/contracts-upgradeable@4.8/token/ERC721/ERC721Upgradeable.sol\":7412:7416  from */\n      dup5\n        /* \"mlmContracts/contracts-upgradeable@4.8/token/ERC721/ERC721Upgradeable.sol\":7418:7420  to */\n      dup5\n        /* \"mlmContracts/contracts-upgradeable@4.8/token/ERC721/ERC721Upgradeable.sol\":7422:7429  tokenId */\n      dup5\n        /* \"mlmContracts/contracts-upgradeable@4.8/token/ERC721/ERC721Upgradeable.sol\":7431:7435  data */\n      dup5\n        /* \"mlmContracts/contracts-upgradeable@4.8/token/ERC721/ERC721Upgradeable.sol\":7389:7411  _checkOnERC721Received */\n      tag_204\n        /* \"mlmContracts/contracts-upgradeable@4.8/token/ERC721/ERC721Upgradeable.sol\":7389:7436  _checkOnERC721Received(from, to, tokenId, data) */\n      jump\t// in\n    tag_203:\n        /* \"mlmContracts/contracts-upgradeable@4.8/token/ERC721/ERC721Upgradeable.sol\":7381:7491  require(_checkOnERC721Received(from, to, tokenId, data), \"ERC721: transfer to non ERC721Receiver implementer\") */\n      tag_152\n      jumpi\n      mload(0x40)\n      shl(0xe5, 0x461bcd)\n      dup2\n      mstore\n      0x04\n      add\n      tag_99\n      swap1\n      tag_207\n      jump\t// in\n        /* \"mlmContracts/contracts-upgradeable@4.8/utils/StringsUpgradeable.sol\":437:1144  function toString(uint256 value) internal pure returns (string memory) {... */\n    tag_161:\n        /* \"mlmContracts/contracts-upgradeable@4.8/utils/StringsUpgradeable.sol\":493:506  string memory */\n      0x60\n        /* \"mlmContracts/contracts-upgradeable@4.8/utils/StringsUpgradeable.sol\":542:556  uint256 length */\n      0x00\n        /* \"mlmContracts/contracts-upgradeable@4.8/utils/StringsUpgradeable.sol\":559:587  MathUpgradeable.log10(value) */\n      tag_210\n        /* \"mlmContracts/contracts-upgradeable@4.8/utils/StringsUpgradeable.sol\":581:586  value */\n      dup4\n        /* \"mlmContracts/contracts-upgradeable@4.8/utils/StringsUpgradeable.sol\":559:580  MathUpgradeable.log10 */\n      tag_211\n        /* \"mlmContracts/contracts-upgradeable@4.8/utils/StringsUpgradeable.sol\":559:587  MathUpgradeable.log10(value) */\n      jump\t// in\n    tag_210:\n        /* \"mlmContracts/contracts-upgradeable@4.8/utils/StringsUpgradeable.sol\":590:591  1 */\n      0x01\n        /* \"mlmContracts/contracts-upgradeable@4.8/utils/StringsUpgradeable.sol\":559:591  MathUpgradeable.log10(value) + 1 */\n      add\n        /* \"mlmContracts/contracts-upgradeable@4.8/utils/StringsUpgradeable.sol\":542:591  uint256 length = MathUpgradeable.log10(value) + 1 */\n      swap1\n      pop\n        /* \"mlmContracts/contracts-upgradeable@4.8/utils/StringsUpgradeable.sol\":605:625  string memory buffer */\n      0x00\n        /* \"mlmContracts/contracts-upgradeable@4.8/utils/StringsUpgradeable.sol\":639:645  length */\n      dup2\n        /* \"mlmContracts/contracts-upgradeable@4.8/utils/StringsUpgradeable.sol\":628:646  new string(length) */\n      0xffffffffffffffff\n      dup2\n      gt\n      iszero\n      tag_213\n      jumpi\n      tag_213\n      tag_214\n      jump\t// in\n    tag_213:\n      mload(0x40)\n      swap1\n      dup1\n      dup3\n      mstore\n      dup1\n      0x1f\n      add\n      not(0x1f)\n      and\n      0x20\n      add\n      dup3\n      add\n      0x40\n      mstore\n      dup1\n      iszero\n      tag_215\n      jumpi\n      0x20\n      dup3\n      add\n      dup2\n      dup1\n      calldatasize\n      dup4\n      calldatacopy\n      add\n      swap1\n      pop\n    tag_215:\n      pop\n        /* \"mlmContracts/contracts-upgradeable@4.8/utils/StringsUpgradeable.sol\":605:646  string memory buffer = new string(length) */\n      swap1\n      pop\n        /* \"mlmContracts/contracts-upgradeable@4.8/utils/StringsUpgradeable.sol\":766:794  add(buffer, add(32, length)) */\n      dup2\n      dup2\n      add\n        /* \"mlmContracts/contracts-upgradeable@4.8/utils/StringsUpgradeable.sol\":782:784  32 */\n      0x20\n        /* \"mlmContracts/contracts-upgradeable@4.8/utils/StringsUpgradeable.sol\":766:794  add(buffer, add(32, length)) */\n      add\n        /* \"mlmContracts/contracts-upgradeable@4.8/utils/StringsUpgradeable.sol\":821:1101  while (true) {... */\n    tag_216:\n      not(0x00)\n        /* \"mlmContracts/contracts-upgradeable@4.8/utils/StringsUpgradeable.sol\":852:857  ptr-- */\n      add\n      shl(0x81, 0x181899199a1a9b1b9c1cb0b131b232b3)\n        /* \"mlmContracts/contracts-upgradeable@4.8/utils/StringsUpgradeable.sol\":986:988  10 */\n      0x0a\n        /* \"mlmContracts/contracts-upgradeable@4.8/utils/StringsUpgradeable.sol\":975:989  mod(value, 10) */\n      dup7\n      mod\n        /* \"mlmContracts/contracts-upgradeable@4.8/utils/StringsUpgradeable.sol\":970:1000  byte(mod(value, 10), _SYMBOLS) */\n      byte\n        /* \"mlmContracts/contracts-upgradeable@4.8/utils/StringsUpgradeable.sol\":852:857  ptr-- */\n      dup2\n        /* \"mlmContracts/contracts-upgradeable@4.8/utils/StringsUpgradeable.sol\":957:1001  mstore8(ptr, byte(mod(value, 10), _SYMBOLS)) */\n      mstore8\n        /* \"mlmContracts/contracts-upgradeable@4.8/utils/StringsUpgradeable.sol\":1045:1047  10 */\n      0x0a\n        /* \"mlmContracts/contracts-upgradeable@4.8/utils/StringsUpgradeable.sol\":1036:1047  value /= 10 */\n      dup6\n      div\n      swap5\n      pop\n        /* \"mlmContracts/contracts-upgradeable@4.8/utils/StringsUpgradeable.sol\":1065:1086  if (value == 0) break */\n      dup5\n        /* \"mlmContracts/contracts-upgradeable@4.8/utils/StringsUpgradeable.sol\":821:1101  while (true) {... */\n      tag_216\n        /* \"mlmContracts/contracts-upgradeable@4.8/utils/StringsUpgradeable.sol\":1065:1086  if (value == 0) break */\n      jumpi\n      pop\n        /* \"mlmContracts/contracts-upgradeable@4.8/utils/StringsUpgradeable.sol\":1121:1127  buffer */\n      swap4\n        /* \"mlmContracts/contracts-upgradeable@4.8/utils/StringsUpgradeable.sol\":437:1144  function toString(uint256 value) internal pure returns (string memory) {... */\n      swap3\n      pop\n      pop\n      pop\n      jump\t// out\n        /* \"mlmContracts/contracts-upgradeable@4.8/token/ERC721/ERC721Upgradeable.sol\":14986:15839  function _checkOnERC721Received(... */\n    tag_204:\n        /* \"mlmContracts/contracts-upgradeable@4.8/token/ERC721/ERC721Upgradeable.sol\":15135:15139  bool */\n      0x00\n      sub(shl(0xa0, 0x01), 0x01)\n        /* \"mlmContracts/contracts-upgradeable@4.8/token/ERC721/ERC721Upgradeable.sol\":15155:15168  to.isContract */\n      dup5\n      and\n        /* \"mlmContracts/contracts-upgradeable@4.8/utils/AddressUpgradeable.sol\":1476:1495  account.code.length */\n      extcodesize\n        /* \"mlmContracts/contracts-upgradeable@4.8/utils/AddressUpgradeable.sol\":1476:1499  account.code.length > 0 */\n      iszero\n        /* \"mlmContracts/contracts-upgradeable@4.8/token/ERC721/ERC721Upgradeable.sol\":15151:15833  if (to.isContract()) {... */\n      tag_229\n      jumpi\n        /* \"mlmContracts/contracts-upgradeable@4.8/token/ERC721/ERC721Upgradeable.sol\":15190:15272  IERC721ReceiverUpgradeable(to).onERC721Received(_msgSender(), from, tokenId, data) */\n      mload(0x40)\n      shl(0xe1, 0x0a85bd01)\n      dup2\n      mstore\n      sub(shl(0xa0, 0x01), 0x01)\n        /* \"mlmContracts/contracts-upgradeable@4.8/token/ERC721/ERC721Upgradeable.sol\":15190:15237  IERC721ReceiverUpgradeable(to).onERC721Received */\n      dup6\n      and\n      swap1\n      0x150b7a02\n      swap1\n        /* \"mlmContracts/contracts-upgradeable@4.8/token/ERC721/ERC721Upgradeable.sol\":15190:15272  IERC721ReceiverUpgradeable(to).onERC721Received(_msgSender(), from, tokenId, data) */\n      tag_231\n      swap1\n        /* \"mlmContracts/contracts-upgradeable@4.8/utils/ContextUpgradeable.sol\":929:939  msg.sender */\n      caller\n      swap1\n        /* \"mlmContracts/contracts-upgradeable@4.8/token/ERC721/ERC721Upgradeable.sol\":15252:15256  from */\n      dup10\n      swap1\n        /* \"mlmContracts/contracts-upgradeable@4.8/token/ERC721/ERC721Upgradeable.sol\":15258:15265  tokenId */\n      dup9\n      swap1\n        /* \"mlmContracts/contracts-upgradeable@4.8/token/ERC721/ERC721Upgradeable.sol\":15267:15271  data */\n      dup9\n      swap1\n        /* \"mlmContracts/contracts-upgradeable@4.8/token/ERC721/ERC721Upgradeable.sol\":15190:15272  IERC721ReceiverUpgradeable(to).onERC721Received(_msgSender(), from, tokenId, data) */\n      0x04\n      add\n      tag_232\n      jump\t// in\n    tag_231:\n      0x20\n      mload(0x40)\n      dup1\n      dup4\n      sub\n      dup2\n      0x00\n      dup8\n      gas\n      call\n      swap3\n      pop\n      pop\n      pop\n      dup1\n      iszero\n      tag_233\n      jumpi\n      pop\n      0x40\n      dup1\n      mload\n      0x1f\n      returndatasize\n      swap1\n      dup2\n      add\n      not(0x1f)\n      and\n      dup3\n      add\n      swap1\n      swap3\n      mstore\n      tag_234\n      swap2\n      dup2\n      add\n      swap1\n      tag_235\n      jump\t// in\n    tag_234:\n      0x01\n    tag_233:\n        /* \"mlmContracts/contracts-upgradeable@4.8/token/ERC721/ERC721Upgradeable.sol\":15186:15781  try IERC721ReceiverUpgradeable(to).onERC721Received(_msgSender(), from, tokenId, data) returns (bytes4 retval) {... */\n      tag_236\n      jumpi\n      returndatasize\n      dup1\n      dup1\n      iszero\n      tag_241\n      jumpi\n      mload(0x40)\n      swap2\n      pop\n      and(add(returndatasize, 0x3f), not(0x1f))\n      dup3\n      add\n      0x40\n      mstore\n      returndatasize\n      dup3\n      mstore\n      returndatasize\n      0x00\n      0x20\n      dup5\n      add\n      returndatacopy\n      jump(tag_240)\n    tag_241:\n      0x60\n      swap2\n      pop\n    tag_240:\n      pop\n        /* \"mlmContracts/contracts-upgradeable@4.8/token/ERC721/ERC721Upgradeable.sol\":15450:15456  reason */\n      dup1\n        /* \"mlmContracts/contracts-upgradeable@4.8/token/ERC721/ERC721Upgradeable.sol\":15450:15463  reason.length */\n      mload\n        /* \"mlmContracts/contracts-upgradeable@4.8/token/ERC721/ERC721Upgradeable.sol\":15467:15468  0 */\n      0x00\n        /* \"mlmContracts/contracts-upgradeable@4.8/token/ERC721/ERC721Upgradeable.sol\":15450:15468  reason.length == 0 */\n      sub\n        /* \"mlmContracts/contracts-upgradeable@4.8/token/ERC721/ERC721Upgradeable.sol\":15446:15767  if (reason.length == 0) {... */\n      tag_242\n      jumpi\n        /* \"mlmContracts/contracts-upgradeable@4.8/token/ERC721/ERC721Upgradeable.sol\":15492:15552  revert(\"ERC721: transfer to non ERC721Receiver implementer\") */\n      mload(0x40)\n      shl(0xe5, 0x461bcd)\n      dup2\n      mstore\n      0x04\n      add\n      tag_99\n      swap1\n      tag_207\n      jump\t// in\n        /* \"mlmContracts/contracts-upgradeable@4.8/token/ERC721/ERC721Upgradeable.sol\":15446:15767  if (reason.length == 0) {... */\n    tag_242:\n        /* \"mlmContracts/contracts-upgradeable@4.8/token/ERC721/ERC721Upgradeable.sol\":15719:15725  reason */\n      dup1\n        /* \"mlmContracts/contracts-upgradeable@4.8/token/ERC721/ERC721Upgradeable.sol\":15713:15726  mload(reason) */\n      mload\n        /* \"mlmContracts/contracts-upgradeable@4.8/token/ERC721/ERC721Upgradeable.sol\":15704:15710  reason */\n      dup2\n        /* \"mlmContracts/contracts-upgradeable@4.8/token/ERC721/ERC721Upgradeable.sol\":15700:15702  32 */\n      0x20\n        /* \"mlmContracts/contracts-upgradeable@4.8/token/ERC721/ERC721Upgradeable.sol\":15696:15711  add(32, reason) */\n      add\n        /* \"mlmContracts/contracts-upgradeable@4.8/token/ERC721/ERC721Upgradeable.sol\":15689:15727  revert(add(32, reason), mload(reason)) */\n      revert\n        /* \"mlmContracts/contracts-upgradeable@4.8/token/ERC721/ERC721Upgradeable.sol\":15186:15781  try IERC721ReceiverUpgradeable(to).onERC721Received(_msgSender(), from, tokenId, data) returns (bytes4 retval) {... */\n    tag_236:\n      not(sub(shl(0xe0, 0x01), 0x01))\n        /* \"mlmContracts/contracts-upgradeable@4.8/token/ERC721/ERC721Upgradeable.sol\":15322:15384  retval == IERC721ReceiverUpgradeable.onERC721Received.selector */\n      and\n      shl(0xe1, 0x0a85bd01)\n      eq\n      swap1\n      pop\n        /* \"mlmContracts/contracts-upgradeable@4.8/token/ERC721/ERC721Upgradeable.sol\":15315:15384  return retval == IERC721ReceiverUpgradeable.onERC721Received.selector */\n      jump(tag_178)\n        /* \"mlmContracts/contracts-upgradeable@4.8/token/ERC721/ERC721Upgradeable.sol\":15151:15833  if (to.isContract()) {... */\n    tag_229:\n      pop\n        /* \"mlmContracts/contracts-upgradeable@4.8/token/ERC721/ERC721Upgradeable.sol\":15818:15822  true */\n      0x01\n        /* \"mlmContracts/contracts-upgradeable@4.8/token/ERC721/ERC721Upgradeable.sol\":14986:15839  function _checkOnERC721Received(... */\n      swap5\n      swap4\n      pop\n      pop\n      pop\n      pop\n      jump\t// out\n        /* \"mlmContracts/contracts-upgradeable@4.8/utils/math/MathUpgradeable.sol\":9900:10790  function log10(uint256 value) internal pure returns (uint256) {... */\n    tag_211:\n        /* \"mlmContracts/contracts-upgradeable@4.8/utils/math/MathUpgradeable.sol\":9953:9960  uint256 */\n      0x00\n      dup1\n      shl(0x40, 0x184f03e93ff9f4daa797ed6e38ed64bf6a1f01)\n        /* \"mlmContracts/contracts-upgradeable@4.8/utils/math/MathUpgradeable.sol\":10028:10043  value >= 10**64 */\n      dup4\n      lt\n        /* \"mlmContracts/contracts-upgradeable@4.8/utils/math/MathUpgradeable.sol\":10024:10123  if (value >= 10**64) {... */\n      tag_248\n      jumpi\n      shl(0x40, 0x184f03e93ff9f4daa797ed6e38ed64bf6a1f01)\n        /* \"mlmContracts/contracts-upgradeable@4.8/utils/math/MathUpgradeable.sol\":10063:10078  value /= 10**64 */\n      dup4\n      div\n      swap3\n      pop\n        /* \"mlmContracts/contracts-upgradeable@4.8/utils/math/MathUpgradeable.sol\":10106:10108  64 */\n      0x40\n        /* \"mlmContracts/contracts-upgradeable@4.8/utils/math/MathUpgradeable.sol\":10096:10108  result += 64 */\n      add\n        /* \"mlmContracts/contracts-upgradeable@4.8/utils/math/MathUpgradeable.sol\":10024:10123  if (value >= 10**64) {... */\n    tag_248:\n        /* \"mlmContracts/contracts-upgradeable@4.8/utils/math/MathUpgradeable.sol\":10149:10155  10**32 */\n      0x04ee2d6d415b85acef8100000000\n        /* \"mlmContracts/contracts-upgradeable@4.8/utils/math/MathUpgradeable.sol\":10140:10145  value */\n      dup4\n        /* \"mlmContracts/contracts-upgradeable@4.8/utils/math/MathUpgradeable.sol\":10140:10155  value >= 10**32 */\n      lt\n        /* \"mlmContracts/contracts-upgradeable@4.8/utils/math/MathUpgradeable.sol\":10136:10235  if (value >= 10**32) {... */\n      tag_251\n      jumpi\n        /* \"mlmContracts/contracts-upgradeable@4.8/utils/math/MathUpgradeable.sol\":10184:10190  10**32 */\n      0x04ee2d6d415b85acef8100000000\n        /* \"mlmContracts/contracts-upgradeable@4.8/utils/math/MathUpgradeable.sol\":10175:10190  value /= 10**32 */\n      dup4\n      div\n      swap3\n      pop\n        /* \"mlmContracts/contracts-upgradeable@4.8/utils/math/MathUpgradeable.sol\":10218:10220  32 */\n      0x20\n        /* \"mlmContracts/contracts-upgradeable@4.8/utils/math/MathUpgradeable.sol\":10208:10220  result += 32 */\n      add\n        /* \"mlmContracts/contracts-upgradeable@4.8/utils/math/MathUpgradeable.sol\":10136:10235  if (value >= 10**32) {... */\n    tag_251:\n        /* \"mlmContracts/contracts-upgradeable@4.8/utils/math/MathUpgradeable.sol\":10261:10267  10**16 */\n      0x2386f26fc10000\n        /* \"mlmContracts/contracts-upgradeable@4.8/utils/math/MathUpgradeable.sol\":10252:10257  value */\n      dup4\n        /* \"mlmContracts/contracts-upgradeable@4.8/utils/math/MathUpgradeable.sol\":10252:10267  value >= 10**16 */\n      lt\n        /* \"mlmContracts/contracts-upgradeable@4.8/utils/math/MathUpgradeable.sol\":10248:10347  if (value >= 10**16) {... */\n      tag_254\n      jumpi\n        /* \"mlmContracts/contracts-upgradeable@4.8/utils/math/MathUpgradeable.sol\":10296:10302  10**16 */\n      0x2386f26fc10000\n        /* \"mlmContracts/contracts-upgradeable@4.8/utils/math/MathUpgradeable.sol\":10287:10302  value /= 10**16 */\n      dup4\n      div\n      swap3\n      pop\n        /* \"mlmContracts/contracts-upgradeable@4.8/utils/math/MathUpgradeable.sol\":10330:10332  16 */\n      0x10\n        /* \"mlmContracts/contracts-upgradeable@4.8/utils/math/MathUpgradeable.sol\":10320:10332  result += 16 */\n      add\n        /* \"mlmContracts/contracts-upgradeable@4.8/utils/math/MathUpgradeable.sol\":10248:10347  if (value >= 10**16) {... */\n    tag_254:\n        /* \"mlmContracts/contracts-upgradeable@4.8/utils/math/MathUpgradeable.sol\":10373:10378  10**8 */\n      0x05f5e100\n        /* \"mlmContracts/contracts-upgradeable@4.8/utils/math/MathUpgradeable.sol\":10364:10369  value */\n      dup4\n        /* \"mlmContracts/contracts-upgradeable@4.8/utils/math/MathUpgradeable.sol\":10364:10378  value >= 10**8 */\n      lt\n        /* \"mlmContracts/contracts-upgradeable@4.8/utils/math/MathUpgradeable.sol\":10360:10456  if (value >= 10**8) {... */\n      tag_257\n      jumpi\n        /* \"mlmContracts/contracts-upgradeable@4.8/utils/math/MathUpgradeable.sol\":10407:10412  10**8 */\n      0x05f5e100\n        /* \"mlmContracts/contracts-upgradeable@4.8/utils/math/MathUpgradeable.sol\":10398:10412  value /= 10**8 */\n      dup4\n      div\n      swap3\n      pop\n        /* \"mlmContracts/contracts-upgradeable@4.8/utils/math/MathUpgradeable.sol\":10440:10441  8 */\n      0x08\n        /* \"mlmContracts/contracts-upgradeable@4.8/utils/math/MathUpgradeable.sol\":10430:10441  result += 8 */\n      add\n        /* \"mlmContracts/contracts-upgradeable@4.8/utils/math/MathUpgradeable.sol\":10360:10456  if (value >= 10**8) {... */\n    tag_257:\n        /* \"mlmContracts/contracts-upgradeable@4.8/utils/math/MathUpgradeable.sol\":10482:10487  10**4 */\n      0x2710\n        /* \"mlmContracts/contracts-upgradeable@4.8/utils/math/MathUpgradeable.sol\":10473:10478  value */\n      dup4\n        /* \"mlmContracts/contracts-upgradeable@4.8/utils/math/MathUpgradeable.sol\":10473:10487  value >= 10**4 */\n      lt\n        /* \"mlmContracts/contracts-upgradeable@4.8/utils/math/MathUpgradeable.sol\":10469:10565  if (value >= 10**4) {... */\n      tag_260\n      jumpi\n        /* \"mlmContracts/contracts-upgradeable@4.8/utils/math/MathUpgradeable.sol\":10516:10521  10**4 */\n      0x2710\n        /* \"mlmContracts/contracts-upgradeable@4.8/utils/math/MathUpgradeable.sol\":10507:10521  value /= 10**4 */\n      dup4\n      div\n      swap3\n      pop\n        /* \"mlmContracts/contracts-upgradeable@4.8/utils/math/MathUpgradeable.sol\":10549:10550  4 */\n      0x04\n        /* \"mlmContracts/contracts-upgradeable@4.8/utils/math/MathUpgradeable.sol\":10539:10550  result += 4 */\n      add\n        /* \"mlmContracts/contracts-upgradeable@4.8/utils/math/MathUpgradeable.sol\":10469:10565  if (value >= 10**4) {... */\n    tag_260:\n        /* \"mlmContracts/contracts-upgradeable@4.8/utils/math/MathUpgradeable.sol\":10591:10596  10**2 */\n      0x64\n        /* \"mlmContracts/contracts-upgradeable@4.8/utils/math/MathUpgradeable.sol\":10582:10587  value */\n      dup4\n        /* \"mlmContracts/contracts-upgradeable@4.8/utils/math/MathUpgradeable.sol\":10582:10596  value >= 10**2 */\n      lt\n        /* \"mlmContracts/contracts-upgradeable@4.8/utils/math/MathUpgradeable.sol\":10578:10674  if (value >= 10**2) {... */\n      tag_263\n      jumpi\n        /* \"mlmContracts/contracts-upgradeable@4.8/utils/math/MathUpgradeable.sol\":10625:10630  10**2 */\n      0x64\n        /* \"mlmContracts/contracts-upgradeable@4.8/utils/math/MathUpgradeable.sol\":10616:10630  value /= 10**2 */\n      dup4\n      div\n      swap3\n      pop\n        /* \"mlmContracts/contracts-upgradeable@4.8/utils/math/MathUpgradeable.sol\":10658:10659  2 */\n      0x02\n        /* \"mlmContracts/contracts-upgradeable@4.8/utils/math/MathUpgradeable.sol\":10648:10659  result += 2 */\n      add\n        /* \"mlmContracts/contracts-upgradeable@4.8/utils/math/MathUpgradeable.sol\":10578:10674  if (value >= 10**2) {... */\n    tag_263:\n        /* \"mlmContracts/contracts-upgradeable@4.8/utils/math/MathUpgradeable.sol\":10700:10705  10**1 */\n      0x0a\n        /* \"mlmContracts/contracts-upgradeable@4.8/utils/math/MathUpgradeable.sol\":10691:10696  value */\n      dup4\n        /* \"mlmContracts/contracts-upgradeable@4.8/utils/math/MathUpgradeable.sol\":10691:10705  value >= 10**1 */\n      lt\n        /* \"mlmContracts/contracts-upgradeable@4.8/utils/math/MathUpgradeable.sol\":10687:10751  if (value >= 10**1) {... */\n      tag_84\n      jumpi\n        /* \"mlmContracts/contracts-upgradeable@4.8/utils/math/MathUpgradeable.sol\":10735:10736  1 */\n      0x01\n        /* \"mlmContracts/contracts-upgradeable@4.8/utils/math/MathUpgradeable.sol\":10725:10736  result += 1 */\n      add\n        /* \"mlmContracts/contracts-upgradeable@4.8/utils/math/MathUpgradeable.sol\":10777:10783  result */\n      swap3\n        /* \"mlmContracts/contracts-upgradeable@4.8/utils/math/MathUpgradeable.sol\":9900:10790  function log10(uint256 value) internal pure returns (uint256) {... */\n      swap2\n      pop\n      pop\n      jump\t// out\n        /* \"#utility.yul\":14:145   */\n    tag_268:\n      not(sub(shl(0xe0, 0x01), 0x01))\n        /* \"#utility.yul\":88:120   */\n      dup2\n      and\n        /* \"#utility.yul\":78:121   */\n      dup2\n      eq\n        /* \"#utility.yul\":68:139   */\n      tag_169\n      jumpi\n        /* \"#utility.yul\":135:136   */\n      0x00\n        /* \"#utility.yul\":132:133   */\n      dup1\n        /* \"#utility.yul\":125:137   */\n      revert\n        /* \"#utility.yul\":150:395   */\n    tag_22:\n        /* \"#utility.yul\":208:214   */\n      0x00\n        /* \"#utility.yul\":261:263   */\n      0x20\n        /* \"#utility.yul\":249:258   */\n      dup3\n        /* \"#utility.yul\":240:247   */\n      dup5\n        /* \"#utility.yul\":236:259   */\n      sub\n        /* \"#utility.yul\":232:264   */\n      slt\n        /* \"#utility.yul\":229:281   */\n      iszero\n      tag_277\n      jumpi\n        /* \"#utility.yul\":277:278   */\n      0x00\n        /* \"#utility.yul\":274:275   */\n      dup1\n        /* \"#utility.yul\":267:279   */\n      revert\n        /* \"#utility.yul\":229:281   */\n    tag_277:\n        /* \"#utility.yul\":316:325   */\n      dup2\n        /* \"#utility.yul\":303:326   */\n      calldataload\n        /* \"#utility.yul\":335:365   */\n      tag_159\n        /* \"#utility.yul\":359:364   */\n      dup2\n        /* \"#utility.yul\":335:365   */\n      tag_268\n      jump\t// in\n        /* \"#utility.yul\":592:850   */\n    tag_269:\n        /* \"#utility.yul\":664:665   */\n      0x00\n        /* \"#utility.yul\":674:787   */\n    tag_281:\n        /* \"#utility.yul\":688:694   */\n      dup4\n        /* \"#utility.yul\":685:686   */\n      dup2\n        /* \"#utility.yul\":682:695   */\n      lt\n        /* \"#utility.yul\":674:787   */\n      iszero\n      tag_283\n      jumpi\n        /* \"#utility.yul\":764:775   */\n      dup2\n      dup2\n      add\n        /* \"#utility.yul\":758:776   */\n      mload\n        /* \"#utility.yul\":745:756   */\n      dup4\n      dup3\n      add\n        /* \"#utility.yul\":738:777   */\n      mstore\n        /* \"#utility.yul\":710:712   */\n      0x20\n        /* \"#utility.yul\":703:713   */\n      add\n        /* \"#utility.yul\":674:787   */\n      jump(tag_281)\n    tag_283:\n        /* \"#utility.yul\":805:811   */\n      dup4\n        /* \"#utility.yul\":802:803   */\n      dup2\n        /* \"#utility.yul\":799:812   */\n      gt\n        /* \"#utility.yul\":796:844   */\n      iszero\n      tag_152\n      jumpi\n      pop\n      pop\n        /* \"#utility.yul\":840:841   */\n      0x00\n        /* \"#utility.yul\":822:838   */\n      swap2\n      add\n        /* \"#utility.yul\":815:842   */\n      mstore\n        /* \"#utility.yul\":592:850   */\n      jump\t// out\n        /* \"#utility.yul\":855:1113   */\n    tag_270:\n        /* \"#utility.yul\":897:900   */\n      0x00\n        /* \"#utility.yul\":935:940   */\n      dup2\n        /* \"#utility.yul\":929:941   */\n      mload\n        /* \"#utility.yul\":962:968   */\n      dup1\n        /* \"#utility.yul\":957:960   */\n      dup5\n        /* \"#utility.yul\":950:969   */\n      mstore\n        /* \"#utility.yul\":978:1041   */\n      tag_286\n        /* \"#utility.yul\":1034:1040   */\n      dup2\n        /* \"#utility.yul\":1027:1031   */\n      0x20\n        /* \"#utility.yul\":1022:1025   */\n      dup7\n        /* \"#utility.yul\":1018:1032   */\n      add\n        /* \"#utility.yul\":1011:1015   */\n      0x20\n        /* \"#utility.yul\":1004:1009   */\n      dup7\n        /* \"#utility.yul\":1000:1016   */\n      add\n        /* \"#utility.yul\":978:1041   */\n      tag_269\n      jump\t// in\n    tag_286:\n        /* \"#utility.yul\":1095:1097   */\n      0x1f\n        /* \"#utility.yul\":1074:1089   */\n      add\n      not(0x1f)\n        /* \"#utility.yul\":1070:1099   */\n      and\n        /* \"#utility.yul\":1061:1100   */\n      swap3\n      swap1\n      swap3\n      add\n        /* \"#utility.yul\":1102:1106   */\n      0x20\n        /* \"#utility.yul\":1057:1107   */\n      add\n      swap3\n        /* \"#utility.yul\":855:1113   */\n      swap2\n      pop\n      pop\n      jump\t// out\n        /* \"#utility.yul\":1118:1338   */\n    tag_29:\n        /* \"#utility.yul\":1267:1269   */\n      0x20\n        /* \"#utility.yul\":1256:1265   */\n      dup2\n        /* \"#utility.yul\":1249:1270   */\n      mstore\n        /* \"#utility.yul\":1230:1234   */\n      0x00\n        /* \"#utility.yul\":1287:1332   */\n      tag_159\n        /* \"#utility.yul\":1328:1330   */\n      0x20\n        /* \"#utility.yul\":1317:1326   */\n      dup4\n        /* \"#utility.yul\":1313:1331   */\n      add\n        /* \"#utility.yul\":1305:1311   */\n      dup5\n        /* \"#utility.yul\":1287:1332   */\n      tag_270\n      jump\t// in\n        /* \"#utility.yul\":1343:1523   */\n    tag_32:\n        /* \"#utility.yul\":1402:1408   */\n      0x00\n        /* \"#utility.yul\":1455:1457   */\n      0x20\n        /* \"#utility.yul\":1443:1452   */\n      dup3\n        /* \"#utility.yul\":1434:1441   */\n      dup5\n        /* \"#utility.yul\":1430:1453   */\n      sub\n        /* \"#utility.yul\":1426:1458   */\n      slt\n        /* \"#utility.yul\":1423:1475   */\n      iszero\n      tag_290\n      jumpi\n        /* \"#utility.yul\":1471:1472   */\n      0x00\n        /* \"#utility.yul\":1468:1469   */\n      dup1\n        /* \"#utility.yul\":1461:1473   */\n      revert\n        /* \"#utility.yul\":1423:1475   */\n    tag_290:\n      pop\n        /* \"#utility.yul\":1494:1517   */\n      calldataload\n      swap2\n        /* \"#utility.yul\":1343:1523   */\n      swap1\n      pop\n      jump\t// out\n        /* \"#utility.yul\":1736:1909   */\n    tag_271:\n        /* \"#utility.yul\":1804:1824   */\n      dup1\n      calldataload\n      sub(shl(0xa0, 0x01), 0x01)\n        /* \"#utility.yul\":1853:1884   */\n      dup2\n      and\n        /* \"#utility.yul\":1843:1885   */\n      dup2\n      eq\n        /* \"#utility.yul\":1833:1903   */\n      tag_293\n      jumpi\n        /* \"#utility.yul\":1899:1900   */\n      0x00\n        /* \"#utility.yul\":1896:1897   */\n      dup1\n        /* \"#utility.yul\":1889:1901   */\n      revert\n        /* \"#utility.yul\":1833:1903   */\n    tag_293:\n        /* \"#utility.yul\":1736:1909   */\n      swap2\n      swap1\n      pop\n      jump\t// out\n        /* \"#utility.yul\":1914:2168   */\n    tag_38:\n        /* \"#utility.yul\":1982:1988   */\n      0x00\n        /* \"#utility.yul\":1990:1996   */\n      dup1\n        /* \"#utility.yul\":2043:2045   */\n      0x40\n        /* \"#utility.yul\":2031:2040   */\n      dup4\n        /* \"#utility.yul\":2022:2029   */\n      dup6\n        /* \"#utility.yul\":2018:2041   */\n      sub\n        /* \"#utility.yul\":2014:2046   */\n      slt\n        /* \"#utility.yul\":2011:2063   */\n      iszero\n      tag_295\n      jumpi\n        /* \"#utility.yul\":2059:2060   */\n      0x00\n        /* \"#utility.yul\":2056:2057   */\n      dup1\n        /* \"#utility.yul\":2049:2061   */\n      revert\n        /* \"#utility.yul\":2011:2063   */\n    tag_295:\n        /* \"#utility.yul\":2082:2111   */\n      tag_296\n        /* \"#utility.yul\":2101:2110   */\n      dup4\n        /* \"#utility.yul\":2082:2111   */\n      tag_271\n      jump\t// in\n    tag_296:\n        /* \"#utility.yul\":2072:2111   */\n      swap5\n        /* \"#utility.yul\":2158:2160   */\n      0x20\n        /* \"#utility.yul\":2143:2161   */\n      swap4\n      swap1\n      swap4\n      add\n        /* \"#utility.yul\":2130:2162   */\n      calldataload\n      swap4\n      pop\n      pop\n      pop\n        /* \"#utility.yul\":1914:2168   */\n      jump\t// out\n        /* \"#utility.yul\":2173:2501   */\n    tag_42:\n        /* \"#utility.yul\":2250:2256   */\n      0x00\n        /* \"#utility.yul\":2258:2264   */\n      dup1\n        /* \"#utility.yul\":2266:2272   */\n      0x00\n        /* \"#utility.yul\":2319:2321   */\n      0x60\n        /* \"#utility.yul\":2307:2316   */\n      dup5\n        /* \"#utility.yul\":2298:2305   */\n      dup7\n        /* \"#utility.yul\":2294:2317   */\n      sub\n        /* \"#utility.yul\":2290:2322   */\n      slt\n        /* \"#utility.yul\":2287:2339   */\n      iszero\n      tag_298\n      jumpi\n        /* \"#utility.yul\":2335:2336   */\n      0x00\n        /* \"#utility.yul\":2332:2333   */\n      dup1\n        /* \"#utility.yul\":2325:2337   */\n      revert\n        /* \"#utility.yul\":2287:2339   */\n    tag_298:\n        /* \"#utility.yul\":2358:2387   */\n      tag_299\n        /* \"#utility.yul\":2377:2386   */\n      dup5\n        /* \"#utility.yul\":2358:2387   */\n      tag_271\n      jump\t// in\n    tag_299:\n        /* \"#utility.yul\":2348:2387   */\n      swap3\n      pop\n        /* \"#utility.yul\":2406:2444   */\n      tag_300\n        /* \"#utility.yul\":2440:2442   */\n      0x20\n        /* \"#utility.yul\":2429:2438   */\n      dup6\n        /* \"#utility.yul\":2425:2443   */\n      add\n        /* \"#utility.yul\":2406:2444   */\n      tag_271\n      jump\t// in\n    tag_300:\n        /* \"#utility.yul\":2396:2444   */\n      swap2\n      pop\n        /* \"#utility.yul\":2491:2493   */\n      0x40\n        /* \"#utility.yul\":2480:2489   */\n      dup5\n        /* \"#utility.yul\":2476:2494   */\n      add\n        /* \"#utility.yul\":2463:2495   */\n      calldataload\n        /* \"#utility.yul\":2453:2495   */\n      swap1\n      pop\n        /* \"#utility.yul\":2173:2501   */\n      swap3\n      pop\n      swap3\n      pop\n      swap3\n      jump\t// out\n        /* \"#utility.yul\":2506:2692   */\n    tag_53:\n        /* \"#utility.yul\":2565:2571   */\n      0x00\n        /* \"#utility.yul\":2618:2620   */\n      0x20\n        /* \"#utility.yul\":2606:2615   */\n      dup3\n        /* \"#utility.yul\":2597:2604   */\n      dup5\n        /* \"#utility.yul\":2593:2616   */\n      sub\n        /* \"#utility.yul\":2589:2621   */\n      slt\n        /* \"#utility.yul\":2586:2638   */\n      iszero\n      tag_302\n      jumpi\n        /* \"#utility.yul\":2634:2635   */\n      0x00\n        /* \"#utility.yul\":2631:2632   */\n      dup1\n        /* \"#utility.yul\":2624:2636   */\n      revert\n        /* \"#utility.yul\":2586:2638   */\n    tag_302:\n        /* \"#utility.yul\":2657:2686   */\n      tag_159\n        /* \"#utility.yul\":2676:2685   */\n      dup3\n        /* \"#utility.yul\":2657:2686   */\n      tag_271\n      jump\t// in\n        /* \"#utility.yul\":2879:3039   */\n    tag_272:\n        /* \"#utility.yul\":2944:2964   */\n      dup1\n      calldataload\n        /* \"#utility.yul\":3000:3013   */\n      dup1\n      iszero\n        /* \"#utility.yul\":2993:3014   */\n      iszero\n        /* \"#utility.yul\":2983:3015   */\n      dup2\n      eq\n        /* \"#utility.yul\":2973:3033   */\n      tag_293\n      jumpi\n        /* \"#utility.yul\":3029:3030   */\n      0x00\n        /* \"#utility.yul\":3026:3027   */\n      dup1\n        /* \"#utility.yul\":3019:3031   */\n      revert\n        /* \"#utility.yul\":3044:3298   */\n    tag_62:\n        /* \"#utility.yul\":3109:3115   */\n      0x00\n        /* \"#utility.yul\":3117:3123   */\n      dup1\n        /* \"#utility.yul\":3170:3172   */\n      0x40\n        /* \"#utility.yul\":3158:3167   */\n      dup4\n        /* \"#utility.yul\":3149:3156   */\n      dup6\n        /* \"#utility.yul\":3145:3168   */\n      sub\n        /* \"#utility.yul\":3141:3173   */\n      slt\n        /* \"#utility.yul\":3138:3190   */\n      iszero\n      tag_308\n      jumpi\n        /* \"#utility.yul\":3186:3187   */\n      0x00\n        /* \"#utility.yul\":3183:3184   */\n      dup1\n        /* \"#utility.yul\":3176:3188   */\n      revert\n        /* \"#utility.yul\":3138:3190   */\n    tag_308:\n        /* \"#utility.yul\":3209:3238   */\n      tag_309\n        /* \"#utility.yul\":3228:3237   */\n      dup4\n        /* \"#utility.yul\":3209:3238   */\n      tag_271\n      jump\t// in\n    tag_309:\n        /* \"#utility.yul\":3199:3238   */\n      swap2\n      pop\n        /* \"#utility.yul\":3257:3292   */\n      tag_310\n        /* \"#utility.yul\":3288:3290   */\n      0x20\n        /* \"#utility.yul\":3277:3286   */\n      dup5\n        /* \"#utility.yul\":3273:3291   */\n      add\n        /* \"#utility.yul\":3257:3292   */\n      tag_272\n      jump\t// in\n    tag_310:\n        /* \"#utility.yul\":3247:3292   */\n      swap1\n      pop\n        /* \"#utility.yul\":3044:3298   */\n      swap3\n      pop\n      swap3\n      swap1\n      pop\n      jump\t// out\n        /* \"#utility.yul\":3303:3483   */\n    tag_66:\n        /* \"#utility.yul\":3359:3365   */\n      0x00\n        /* \"#utility.yul\":3412:3414   */\n      0x20\n        /* \"#utility.yul\":3400:3409   */\n      dup3\n        /* \"#utility.yul\":3391:3398   */\n      dup5\n        /* \"#utility.yul\":3387:3410   */\n      sub\n        /* \"#utility.yul\":3383:3415   */\n      slt\n        /* \"#utility.yul\":3380:3432   */\n      iszero\n      tag_312\n      jumpi\n        /* \"#utility.yul\":3428:3429   */\n      0x00\n        /* \"#utility.yul\":3425:3426   */\n      dup1\n        /* \"#utility.yul\":3418:3430   */\n      revert\n        /* \"#utility.yul\":3380:3432   */\n    tag_312:\n        /* \"#utility.yul\":3451:3477   */\n      tag_159\n        /* \"#utility.yul\":3467:3476   */\n      dup3\n        /* \"#utility.yul\":3451:3477   */\n      tag_272\n      jump\t// in\n        /* \"#utility.yul\":3488:3615   */\n    tag_214:\n        /* \"#utility.yul\":3549:3559   */\n      0x4e487b71\n        /* \"#utility.yul\":3544:3547   */\n      0xe0\n        /* \"#utility.yul\":3540:3560   */\n      shl\n        /* \"#utility.yul\":3537:3538   */\n      0x00\n        /* \"#utility.yul\":3530:3561   */\n      mstore\n        /* \"#utility.yul\":3580:3584   */\n      0x41\n        /* \"#utility.yul\":3577:3578   */\n      0x04\n        /* \"#utility.yul\":3570:3585   */\n      mstore\n        /* \"#utility.yul\":3604:3608   */\n      0x24\n        /* \"#utility.yul\":3601:3602   */\n      0x00\n        /* \"#utility.yul\":3594:3609   */\n      revert\n        /* \"#utility.yul\":3620:4758   */\n    tag_70:\n        /* \"#utility.yul\":3715:3721   */\n      0x00\n        /* \"#utility.yul\":3723:3729   */\n      dup1\n        /* \"#utility.yul\":3731:3737   */\n      0x00\n        /* \"#utility.yul\":3739:3745   */\n      dup1\n        /* \"#utility.yul\":3792:3795   */\n      0x80\n        /* \"#utility.yul\":3780:3789   */\n      dup6\n        /* \"#utility.yul\":3771:3778   */\n      dup8\n        /* \"#utility.yul\":3767:3790   */\n      sub\n        /* \"#utility.yul\":3763:3796   */\n      slt\n        /* \"#utility.yul\":3760:3813   */\n      iszero\n      tag_316\n      jumpi\n        /* \"#utility.yul\":3809:3810   */\n      0x00\n        /* \"#utility.yul\":3806:3807   */\n      dup1\n        /* \"#utility.yul\":3799:3811   */\n      revert\n        /* \"#utility.yul\":3760:3813   */\n    tag_316:\n        /* \"#utility.yul\":3832:3861   */\n      tag_317\n        /* \"#utility.yul\":3851:3860   */\n      dup6\n        /* \"#utility.yul\":3832:3861   */\n      tag_271\n      jump\t// in\n    tag_317:\n        /* \"#utility.yul\":3822:3861   */\n      swap4\n      pop\n        /* \"#utility.yul\":3880:3918   */\n      tag_318\n        /* \"#utility.yul\":3914:3916   */\n      0x20\n        /* \"#utility.yul\":3903:3912   */\n      dup7\n        /* \"#utility.yul\":3899:3917   */\n      add\n        /* \"#utility.yul\":3880:3918   */\n      tag_271\n      jump\t// in\n    tag_318:\n        /* \"#utility.yul\":3870:3918   */\n      swap3\n      pop\n        /* \"#utility.yul\":3965:3967   */\n      0x40\n        /* \"#utility.yul\":3954:3963   */\n      dup6\n        /* \"#utility.yul\":3950:3968   */\n      add\n        /* \"#utility.yul\":3937:3969   */\n      calldataload\n        /* \"#utility.yul\":3927:3969   */\n      swap2\n      pop\n        /* \"#utility.yul\":4020:4022   */\n      0x60\n        /* \"#utility.yul\":4009:4018   */\n      dup6\n        /* \"#utility.yul\":4005:4023   */\n      add\n        /* \"#utility.yul\":3992:4024   */\n      calldataload\n        /* \"#utility.yul\":4043:4061   */\n      0xffffffffffffffff\n        /* \"#utility.yul\":4084:4086   */\n      dup1\n        /* \"#utility.yul\":4076:4082   */\n      dup3\n        /* \"#utility.yul\":4073:4087   */\n      gt\n        /* \"#utility.yul\":4070:4104   */\n      iszero\n      tag_319\n      jumpi\n        /* \"#utility.yul\":4100:4101   */\n      0x00\n        /* \"#utility.yul\":4097:4098   */\n      dup1\n        /* \"#utility.yul\":4090:4102   */\n      revert\n        /* \"#utility.yul\":4070:4104   */\n    tag_319:\n        /* \"#utility.yul\":4138:4144   */\n      dup2\n        /* \"#utility.yul\":4127:4136   */\n      dup8\n        /* \"#utility.yul\":4123:4145   */\n      add\n        /* \"#utility.yul\":4113:4145   */\n      swap2\n      pop\n        /* \"#utility.yul\":4183:4190   */\n      dup8\n        /* \"#utility.yul\":4176:4180   */\n      0x1f\n        /* \"#utility.yul\":4172:4174   */\n      dup4\n        /* \"#utility.yul\":4168:4181   */\n      add\n        /* \"#utility.yul\":4164:4191   */\n      slt\n        /* \"#utility.yul\":4154:4209   */\n      tag_320\n      jumpi\n        /* \"#utility.yul\":4205:4206   */\n      0x00\n        /* \"#utility.yul\":4202:4203   */\n      dup1\n        /* \"#utility.yul\":4195:4207   */\n      revert\n        /* \"#utility.yul\":4154:4209   */\n    tag_320:\n        /* \"#utility.yul\":4241:4243   */\n      dup2\n        /* \"#utility.yul\":4228:4244   */\n      calldataload\n        /* \"#utility.yul\":4263:4265   */\n      dup2\n        /* \"#utility.yul\":4259:4261   */\n      dup2\n        /* \"#utility.yul\":4256:4266   */\n      gt\n        /* \"#utility.yul\":4253:4289   */\n      iszero\n      tag_322\n      jumpi\n        /* \"#utility.yul\":4269:4287   */\n      tag_322\n      tag_214\n      jump\t// in\n    tag_322:\n        /* \"#utility.yul\":4344:4346   */\n      0x40\n        /* \"#utility.yul\":4338:4347   */\n      mload\n        /* \"#utility.yul\":4312:4314   */\n      0x1f\n        /* \"#utility.yul\":4398:4411   */\n      dup3\n      add\n      not(0x1f)\n        /* \"#utility.yul\":4394:4416   */\n      swap1\n      dup2\n      and\n        /* \"#utility.yul\":4418:4420   */\n      0x3f\n        /* \"#utility.yul\":4390:4421   */\n      add\n        /* \"#utility.yul\":4386:4426   */\n      and\n        /* \"#utility.yul\":4374:4427   */\n      dup2\n      add\n      swap1\n        /* \"#utility.yul\":4442:4460   */\n      dup4\n      dup3\n      gt\n        /* \"#utility.yul\":4462:4484   */\n      dup2\n      dup4\n      lt\n        /* \"#utility.yul\":4439:4485   */\n      or\n        /* \"#utility.yul\":4436:4508   */\n      iszero\n      tag_324\n      jumpi\n        /* \"#utility.yul\":4488:4506   */\n      tag_324\n      tag_214\n      jump\t// in\n    tag_324:\n        /* \"#utility.yul\":4528:4538   */\n      dup2\n        /* \"#utility.yul\":4524:4526   */\n      0x40\n        /* \"#utility.yul\":4517:4539   */\n      mstore\n        /* \"#utility.yul\":4563:4565   */\n      dup3\n        /* \"#utility.yul\":4555:4561   */\n      dup2\n        /* \"#utility.yul\":4548:4566   */\n      mstore\n        /* \"#utility.yul\":4603:4610   */\n      dup11\n        /* \"#utility.yul\":4598:4600   */\n      0x20\n        /* \"#utility.yul\":4593:4595   */\n      dup5\n        /* \"#utility.yul\":4589:4591   */\n      dup8\n        /* \"#utility.yul\":4585:4596   */\n      add\n        /* \"#utility.yul\":4581:4601   */\n      add\n        /* \"#utility.yul\":4578:4611   */\n      gt\n        /* \"#utility.yul\":4575:4628   */\n      iszero\n      tag_325\n      jumpi\n        /* \"#utility.yul\":4624:4625   */\n      0x00\n        /* \"#utility.yul\":4621:4622   */\n      dup1\n        /* \"#utility.yul\":4614:4626   */\n      revert\n        /* \"#utility.yul\":4575:4628   */\n    tag_325:\n        /* \"#utility.yul\":4680:4682   */\n      dup3\n        /* \"#utility.yul\":4675:4677   */\n      0x20\n        /* \"#utility.yul\":4671:4673   */\n      dup7\n        /* \"#utility.yul\":4667:4678   */\n      add\n        /* \"#utility.yul\":4662:4664   */\n      0x20\n        /* \"#utility.yul\":4654:4660   */\n      dup4\n        /* \"#utility.yul\":4650:4665   */\n      add\n        /* \"#utility.yul\":4637:4683   */\n      calldatacopy\n        /* \"#utility.yul\":4725:4726   */\n      0x00\n        /* \"#utility.yul\":4720:4722   */\n      0x20\n        /* \"#utility.yul\":4715:4717   */\n      dup5\n        /* \"#utility.yul\":4707:4713   */\n      dup4\n        /* \"#utility.yul\":4703:4718   */\n      add\n        /* \"#utility.yul\":4699:4723   */\n      add\n        /* \"#utility.yul\":4692:4727   */\n      mstore\n        /* \"#utility.yul\":4746:4752   */\n      dup1\n        /* \"#utility.yul\":4736:4752   */\n      swap6\n      pop\n      pop\n      pop\n      pop\n      pop\n      pop\n        /* \"#utility.yul\":3620:4758   */\n      swap3\n      swap6\n      swap2\n      swap5\n      pop\n      swap3\n      pop\n      jump\t// out\n        /* \"#utility.yul\":4763:5023   */\n    tag_78:\n        /* \"#utility.yul\":4831:4837   */\n      0x00\n        /* \"#utility.yul\":4839:4845   */\n      dup1\n        /* \"#utility.yul\":4892:4894   */\n      0x40\n        /* \"#utility.yul\":4880:4889   */\n      dup4\n        /* \"#utility.yul\":4871:4878   */\n      dup6\n        /* \"#utility.yul\":4867:4890   */\n      sub\n        /* \"#utility.yul\":4863:4895   */\n      slt\n        /* \"#utility.yul\":4860:4912   */\n      iszero\n      tag_327\n      jumpi\n        /* \"#utility.yul\":4908:4909   */\n      0x00\n        /* \"#utility.yul\":4905:4906   */\n      dup1\n        /* \"#utility.yul\":4898:4910   */\n      revert\n        /* \"#utility.yul\":4860:4912   */\n    tag_327:\n        /* \"#utility.yul\":4931:4960   */\n      tag_328\n        /* \"#utility.yul\":4950:4959   */\n      dup4\n        /* \"#utility.yul\":4931:4960   */\n      tag_271\n      jump\t// in\n    tag_328:\n        /* \"#utility.yul\":4921:4960   */\n      swap2\n      pop\n        /* \"#utility.yul\":4979:5017   */\n      tag_310\n        /* \"#utility.yul\":5013:5015   */\n      0x20\n        /* \"#utility.yul\":5002:5011   */\n      dup5\n        /* \"#utility.yul\":4998:5016   */\n      add\n        /* \"#utility.yul\":4979:5017   */\n      tag_271\n      jump\t// in\n        /* \"#utility.yul\":5028:5408   */\n    tag_88:\n        /* \"#utility.yul\":5107:5108   */\n      0x01\n        /* \"#utility.yul\":5103:5115   */\n      dup2\n      dup2\n      shr\n      swap1\n        /* \"#utility.yul\":5150:5162   */\n      dup3\n      and\n      dup1\n        /* \"#utility.yul\":5171:5232   */\n      tag_331\n      jumpi\n        /* \"#utility.yul\":5225:5229   */\n      0x7f\n        /* \"#utility.yul\":5217:5223   */\n      dup3\n        /* \"#utility.yul\":5213:5230   */\n      and\n        /* \"#utility.yul\":5203:5230   */\n      swap2\n      pop\n        /* \"#utility.yul\":5171:5232   */\n    tag_331:\n        /* \"#utility.yul\":5278:5280   */\n      0x20\n        /* \"#utility.yul\":5270:5276   */\n      dup3\n        /* \"#utility.yul\":5267:5281   */\n      lt\n        /* \"#utility.yul\":5247:5265   */\n      dup2\n        /* \"#utility.yul\":5244:5282   */\n      sub\n        /* \"#utility.yul\":5241:5402   */\n      tag_332\n      jumpi\n        /* \"#utility.yul\":5324:5334   */\n      0x4e487b71\n        /* \"#utility.yul\":5319:5322   */\n      0xe0\n        /* \"#utility.yul\":5315:5335   */\n      shl\n        /* \"#utility.yul\":5312:5313   */\n      0x00\n        /* \"#utility.yul\":5305:5336   */\n      mstore\n        /* \"#utility.yul\":5359:5363   */\n      0x22\n        /* \"#utility.yul\":5356:5357   */\n      0x04\n        /* \"#utility.yul\":5349:5364   */\n      mstore\n        /* \"#utility.yul\":5387:5391   */\n      0x24\n        /* \"#utility.yul\":5384:5385   */\n      0x00\n        /* \"#utility.yul\":5377:5392   */\n      revert\n        /* \"#utility.yul\":5241:5402   */\n    tag_332:\n      pop\n        /* \"#utility.yul\":5028:5408   */\n      swap2\n      swap1\n      pop\n      jump\t// out\n        /* \"#utility.yul\":6245:6654   */\n    tag_117:\n        /* \"#utility.yul\":6447:6449   */\n      0x20\n        /* \"#utility.yul\":6429:6450   */\n      dup1\n      dup3\n      mstore\n        /* \"#utility.yul\":6486:6488   */\n      0x2d\n        /* \"#utility.yul\":6466:6484   */\n      swap1\n      dup3\n      add\n        /* \"#utility.yul\":6459:6489   */\n      mstore\n        /* \"#utility.yul\":6525:6559   */\n      0x4552433732313a2063616c6c6572206973206e6f7420746f6b656e206f776e65\n        /* \"#utility.yul\":6520:6522   */\n      0x40\n        /* \"#utility.yul\":6505:6523   */\n      dup3\n      add\n        /* \"#utility.yul\":6498:6560   */\n      mstore\n      shl(0x9a, 0x1c881bdc88185c1c1c9bdd9959)\n        /* \"#utility.yul\":6591:6593   */\n      0x60\n        /* \"#utility.yul\":6576:6594   */\n      dup3\n      add\n        /* \"#utility.yul\":6569:6612   */\n      mstore\n        /* \"#utility.yul\":6644:6647   */\n      0x80\n        /* \"#utility.yul\":6629:6648   */\n      add\n      swap1\n        /* \"#utility.yul\":6245:6654   */\n      jump\t// out\n        /* \"#utility.yul\":7774:8244   */\n    tag_163:\n        /* \"#utility.yul\":7953:7956   */\n      0x00\n        /* \"#utility.yul\":7991:7997   */\n      dup4\n        /* \"#utility.yul\":7985:7998   */\n      mload\n        /* \"#utility.yul\":8007:8060   */\n      tag_340\n        /* \"#utility.yul\":8053:8059   */\n      dup2\n        /* \"#utility.yul\":8048:8051   */\n      dup5\n        /* \"#utility.yul\":8041:8045   */\n      0x20\n        /* \"#utility.yul\":8033:8039   */\n      dup9\n        /* \"#utility.yul\":8029:8046   */\n      add\n        /* \"#utility.yul\":8007:8060   */\n      tag_269\n      jump\t// in\n    tag_340:\n        /* \"#utility.yul\":8123:8136   */\n      dup4\n      mload\n        /* \"#utility.yul\":8082:8098   */\n      swap1\n      dup4\n      add\n      swap1\n        /* \"#utility.yul\":8145:8202   */\n      tag_341\n        /* \"#utility.yul\":8123:8136   */\n      dup2\n        /* \"#utility.yul\":8082:8098   */\n      dup4\n        /* \"#utility.yul\":8179:8183   */\n      0x20\n        /* \"#utility.yul\":8167:8184   */\n      dup9\n      add\n        /* \"#utility.yul\":8145:8202   */\n      tag_269\n      jump\t// in\n    tag_341:\n        /* \"#utility.yul\":8218:8238   */\n      add\n      swap5\n        /* \"#utility.yul\":7774:8244   */\n      swap4\n      pop\n      pop\n      pop\n      pop\n      jump\t// out\n        /* \"#utility.yul\":8249:8650   */\n    tag_184:\n        /* \"#utility.yul\":8451:8453   */\n      0x20\n        /* \"#utility.yul\":8433:8454   */\n      dup1\n      dup3\n      mstore\n        /* \"#utility.yul\":8490:8492   */\n      0x25\n        /* \"#utility.yul\":8470:8488   */\n      swap1\n      dup3\n      add\n        /* \"#utility.yul\":8463:8493   */\n      mstore\n        /* \"#utility.yul\":8529:8563   */\n      0x4552433732313a207472616e736665722066726f6d20696e636f727265637420\n        /* \"#utility.yul\":8524:8526   */\n      0x40\n        /* \"#utility.yul\":8509:8527   */\n      dup3\n      add\n        /* \"#utility.yul\":8502:8564   */\n      mstore\n      shl(0xd9, 0x37bbb732b9)\n        /* \"#utility.yul\":8595:8597   */\n      0x60\n        /* \"#utility.yul\":8580:8598   */\n      dup3\n      add\n        /* \"#utility.yul\":8573:8608   */\n      mstore\n        /* \"#utility.yul\":8640:8643   */\n      0x80\n        /* \"#utility.yul\":8625:8644   */\n      add\n      swap1\n        /* \"#utility.yul\":8249:8650   */\n      jump\t// out\n        /* \"#utility.yul\":9414:9828   */\n    tag_207:\n        /* \"#utility.yul\":9616:9618   */\n      0x20\n        /* \"#utility.yul\":9598:9619   */\n      dup1\n      dup3\n      mstore\n        /* \"#utility.yul\":9655:9657   */\n      0x32\n        /* \"#utility.yul\":9635:9653   */\n      swap1\n      dup3\n      add\n        /* \"#utility.yul\":9628:9658   */\n      mstore\n        /* \"#utility.yul\":9694:9728   */\n      0x4552433732313a207472616e7366657220746f206e6f6e204552433732315265\n        /* \"#utility.yul\":9689:9691   */\n      0x40\n        /* \"#utility.yul\":9674:9692   */\n      dup3\n      add\n        /* \"#utility.yul\":9667:9729   */\n      mstore\n      shl(0x71, 0x31b2b4bb32b91034b6b83632b6b2b73a32b9)\n        /* \"#utility.yul\":9760:9762   */\n      0x60\n        /* \"#utility.yul\":9745:9763   */\n      dup3\n      add\n        /* \"#utility.yul\":9738:9786   */\n      mstore\n        /* \"#utility.yul\":9818:9821   */\n      0x80\n        /* \"#utility.yul\":9803:9822   */\n      add\n      swap1\n        /* \"#utility.yul\":9414:9828   */\n      jump\t// out\n        /* \"#utility.yul\":9965:10454   */\n    tag_232:\n      sub(shl(0xa0, 0x01), 0x01)\n        /* \"#utility.yul\":10234:10249   */\n      dup6\n      dup2\n      and\n        /* \"#utility.yul\":10216:10250   */\n      dup3\n      mstore\n        /* \"#utility.yul\":10286:10301   */\n      dup5\n      and\n        /* \"#utility.yul\":10281:10283   */\n      0x20\n        /* \"#utility.yul\":10266:10284   */\n      dup3\n      add\n        /* \"#utility.yul\":10259:10302   */\n      mstore\n        /* \"#utility.yul\":10333:10335   */\n      0x40\n        /* \"#utility.yul\":10318:10336   */\n      dup2\n      add\n        /* \"#utility.yul\":10311:10345   */\n      dup4\n      swap1\n      mstore\n        /* \"#utility.yul\":10381:10384   */\n      0x80\n        /* \"#utility.yul\":10376:10378   */\n      0x60\n        /* \"#utility.yul\":10361:10379   */\n      dup3\n      add\n        /* \"#utility.yul\":10354:10385   */\n      dup2\n      swap1\n      mstore\n        /* \"#utility.yul\":10159:10163   */\n      0x00\n      swap1\n        /* \"#utility.yul\":10402:10448   */\n      tag_348\n      swap1\n        /* \"#utility.yul\":10428:10447   */\n      dup4\n      add\n        /* \"#utility.yul\":10420:10426   */\n      dup5\n        /* \"#utility.yul\":10402:10448   */\n      tag_270\n      jump\t// in\n    tag_348:\n        /* \"#utility.yul\":10394:10448   */\n      swap7\n        /* \"#utility.yul\":9965:10454   */\n      swap6\n      pop\n      pop\n      pop\n      pop\n      pop\n      pop\n      jump\t// out\n        /* \"#utility.yul\":10459:10708   */\n    tag_235:\n        /* \"#utility.yul\":10528:10534   */\n      0x00\n        /* \"#utility.yul\":10581:10583   */\n      0x20\n        /* \"#utility.yul\":10569:10578   */\n      dup3\n        /* \"#utility.yul\":10560:10567   */\n      dup5\n        /* \"#utility.yul\":10556:10579   */\n      sub\n        /* \"#utility.yul\":10552:10584   */\n      slt\n        /* \"#utility.yul\":10549:10601   */\n      iszero\n      tag_350\n      jumpi\n        /* \"#utility.yul\":10597:10598   */\n      0x00\n        /* \"#utility.yul\":10594:10595   */\n      dup1\n        /* \"#utility.yul\":10587:10599   */\n      revert\n        /* \"#utility.yul\":10549:10601   */\n    tag_350:\n        /* \"#utility.yul\":10629:10638   */\n      dup2\n        /* \"#utility.yul\":10623:10639   */\n      mload\n        /* \"#utility.yul\":10648:10678   */\n      tag_159\n        /* \"#utility.yul\":10672:10677   */\n      dup2\n        /* \"#utility.yul\":10648:10678   */\n      tag_268\n      jump\t// in\n\n    auxdata: 0xa264697066735822122035c795b59e81869432db45df7f8a7a365bb4e3f0e2b08ebd1b207c4a2dfe8cc564736f6c634300080d0033\n}\n",
				"bytecode": {
					"linkReferences": {},
					"object": "608060405234801561001057600080fd5b506111ba806100206000396000f3fe608060405234801561001057600080fd5b50600436106100ea5760003560e01c806370a082311161008c578063a9f51b2311610066578063a9f51b23146101e1578063b88d4fde146101f4578063c87b56dd14610207578063e985e9c51461021a57600080fd5b806370a08231146101a557806395d89b41146101c6578063a22cb465146101ce57600080fd5b8063095ea7b3116100c8578063095ea7b31461015757806323b872dd1461016c57806342842e0e1461017f5780636352211e1461019257600080fd5b806301ffc9a7146100ef57806306fdde0314610117578063081812fc1461012c575b600080fd5b6101026100fd366004610d25565b610256565b60405190151581526020015b60405180910390f35b61011f6102a8565b60405161010e9190610d9a565b61013f61013a366004610dad565b61033a565b6040516001600160a01b03909116815260200161010e565b61016a610165366004610de2565b610361565b005b61016a61017a366004610e0c565b61047b565b61016a61018d366004610e0c565b6104ac565b61013f6101a0366004610dad565b6104c7565b6101b86101b3366004610e48565b610527565b60405190815260200161010e565b61011f6105ad565b61016a6101dc366004610e73565b6105bc565b61016a6101ef366004610ea6565b6105cb565b61016a610202366004610ed7565b610643565b61011f610215366004610dad565b61067b565b610102610228366004610fb3565b6001600160a01b039182166000908152606a6020908152604080832093909416825291909152205460ff1690565b60006001600160e01b031982166380ac58cd60e01b148061028757506001600160e01b03198216635b5e139f60e01b145b806102a257506301ffc9a760e01b6001600160e01b03198316145b92915050565b6060606580546102b790610fdd565b80601f01602080910402602001604051908101604052809291908181526020018280546102e390610fdd565b80156103305780601f1061030557610100808354040283529160200191610330565b820191906000526020600020905b81548152906001019060200180831161031357829003601f168201915b5050505050905090565b6000610345826106ef565b506000908152606960205260409020546001600160a01b031690565b600061036c826104c7565b9050806001600160a01b0316836001600160a01b0316036103de5760405162461bcd60e51b815260206004820152602160248201527f4552433732313a20617070726f76616c20746f2063757272656e74206f776e656044820152603960f91b60648201526084015b60405180910390fd5b336001600160a01b03821614806103fa57506103fa8133610228565b61046c5760405162461bcd60e51b815260206004820152603d60248201527f4552433732313a20617070726f76652063616c6c6572206973206e6f7420746f60448201527f6b656e206f776e6572206f7220617070726f76656420666f7220616c6c00000060648201526084016103d5565b6104768383610751565b505050565b61048533826107bf565b6104a15760405162461bcd60e51b81526004016103d590611017565b61047683838361083e565b61047683838360405180602001604052806000815250610643565b6000818152606760205260408120546001600160a01b0316806102a25760405162461bcd60e51b8152602060048201526018602482015277115490cdcc8c4e881a5b9d985b1a59081d1bdad95b88125160421b60448201526064016103d5565b60006001600160a01b0382166105915760405162461bcd60e51b815260206004820152602960248201527f4552433732313a2061646472657373207a65726f206973206e6f7420612076616044820152683634b21037bbb732b960b91b60648201526084016103d5565b506001600160a01b031660009081526068602052604090205490565b6060606680546102b790610fdd565b6105c73383836109a2565b5050565b606b546001600160a01b031633146106255760405162461bcd60e51b815260206004820152601760248201527f43616c6c6572206973206e6f7420746865206f776e657200000000000000000060448201526064016103d5565b606b8054911515600160a01b0260ff60a01b19909216919091179055565b61064d33836107bf565b6106695760405162461bcd60e51b81526004016103d590611017565b61067584848484610a70565b50505050565b6060610686826106ef565b600061069d60408051602081019091526000815290565b905060008151116106bd57604051806020016040528060008152506106e8565b806106c784610aa3565b6040516020016106d8929190611064565b6040516020818303038152906040525b9392505050565b6000818152606760205260409020546001600160a01b031661074e5760405162461bcd60e51b8152602060048201526018602482015277115490cdcc8c4e881a5b9d985b1a59081d1bdad95b88125160421b60448201526064016103d5565b50565b600081815260696020526040902080546001600160a01b0319166001600160a01b0384169081179091558190610786826104c7565b6001600160a01b03167f8c5be1e5ebec7d5bd14f71427d1e84f3dd0314c0f7b2291e5b200ac8c7c3b92560405160405180910390a45050565b6000806107cb836104c7565b9050806001600160a01b0316846001600160a01b0316148061081257506001600160a01b038082166000908152606a602090815260408083209388168352929052205460ff165b806108365750836001600160a01b031661082b8461033a565b6001600160a01b0316145b949350505050565b826001600160a01b0316610851826104c7565b6001600160a01b0316146108775760405162461bcd60e51b81526004016103d590611093565b6001600160a01b0382166108d95760405162461bcd60e51b8152602060048201526024808201527f4552433732313a207472616e7366657220746f20746865207a65726f206164646044820152637265737360e01b60648201526084016103d5565b826001600160a01b03166108ec826104c7565b6001600160a01b0316146109125760405162461bcd60e51b81526004016103d590611093565b600081815260696020908152604080832080546001600160a01b03199081169091556001600160a01b0387811680865260688552838620805460001901905590871680865283862080546001019055868652606790945282852080549092168417909155905184937fddf252ad1be2c89b69c2b068fc378daa952ba7f163c4a11628f55a4df523b3ef91a4505050565b816001600160a01b0316836001600160a01b031603610a035760405162461bcd60e51b815260206004820152601960248201527f4552433732313a20617070726f766520746f2063616c6c65720000000000000060448201526064016103d5565b6001600160a01b038381166000818152606a6020908152604080832094871680845294825291829020805460ff191686151590811790915591519182527f17307eab39ab6107e8899845ad3d59bd9653f200f220920489ca2b5937696c31910160405180910390a3505050565b610a7b84848461083e565b610a8784848484610b36565b6106755760405162461bcd60e51b81526004016103d5906110d8565b60606000610ab083610c37565b600101905060008167ffffffffffffffff811115610ad057610ad0610ec1565b6040519080825280601f01601f191660200182016040528015610afa576020820181803683370190505b5090508181016020015b600019016f181899199a1a9b1b9c1cb0b131b232b360811b600a86061a8153600a8504945084610b0457509392505050565b60006001600160a01b0384163b15610c2c57604051630a85bd0160e11b81526001600160a01b0385169063150b7a0290610b7a90339089908890889060040161112a565b6020604051808303816000875af1925050508015610bb5575060408051601f3d908101601f19168201909252610bb291810190611167565b60015b610c12573d808015610be3576040519150601f19603f3d011682016040523d82523d6000602084013e610be8565b606091505b508051600003610c0a5760405162461bcd60e51b81526004016103d5906110d8565b805181602001fd5b6001600160e01b031916630a85bd0160e11b149050610836565b506001949350505050565b60008072184f03e93ff9f4daa797ed6e38ed64bf6a1f0160401b8310610c765772184f03e93ff9f4daa797ed6e38ed64bf6a1f0160401b830492506040015b6d04ee2d6d415b85acef81000000008310610ca2576d04ee2d6d415b85acef8100000000830492506020015b662386f26fc100008310610cc057662386f26fc10000830492506010015b6305f5e1008310610cd8576305f5e100830492506008015b6127108310610cec57612710830492506004015b60648310610cfe576064830492506002015b600a83106102a25760010192915050565b6001600160e01b03198116811461074e57600080fd5b600060208284031215610d3757600080fd5b81356106e881610d0f565b60005b83811015610d5d578181015183820152602001610d45565b838111156106755750506000910152565b60008151808452610d86816020860160208601610d42565b601f01601f19169290920160200192915050565b6020815260006106e86020830184610d6e565b600060208284031215610dbf57600080fd5b5035919050565b80356001600160a01b0381168114610ddd57600080fd5b919050565b60008060408385031215610df557600080fd5b610dfe83610dc6565b946020939093013593505050565b600080600060608486031215610e2157600080fd5b610e2a84610dc6565b9250610e3860208501610dc6565b9150604084013590509250925092565b600060208284031215610e5a57600080fd5b6106e882610dc6565b80358015158114610ddd57600080fd5b60008060408385031215610e8657600080fd5b610e8f83610dc6565b9150610e9d60208401610e63565b90509250929050565b600060208284031215610eb857600080fd5b6106e882610e63565b634e487b7160e01b600052604160045260246000fd5b60008060008060808587031215610eed57600080fd5b610ef685610dc6565b9350610f0460208601610dc6565b925060408501359150606085013567ffffffffffffffff80821115610f2857600080fd5b818701915087601f830112610f3c57600080fd5b813581811115610f4e57610f4e610ec1565b604051601f8201601f19908116603f01168101908382118183101715610f7657610f76610ec1565b816040528281528a6020848701011115610f8f57600080fd5b82602086016020830137600060208483010152809550505050505092959194509250565b60008060408385031215610fc657600080fd5b610fcf83610dc6565b9150610e9d60208401610dc6565b600181811c90821680610ff157607f821691505b60208210810361101157634e487b7160e01b600052602260045260246000fd5b50919050565b6020808252602d908201527f4552433732313a2063616c6c6572206973206e6f7420746f6b656e206f776e6560408201526c1c881bdc88185c1c1c9bdd9959609a1b606082015260800190565b60008351611076818460208801610d42565b83519083019061108a818360208801610d42565b01949350505050565b60208082526025908201527f4552433732313a207472616e736665722066726f6d20696e636f72726563742060408201526437bbb732b960d91b606082015260800190565b60208082526032908201527f4552433732313a207472616e7366657220746f206e6f6e20455243373231526560408201527131b2b4bb32b91034b6b83632b6b2b73a32b960711b606082015260800190565b6001600160a01b038581168252841660208201526040810183905260806060820181905260009061115d90830184610d6e565b9695505050505050565b60006020828403121561117957600080fd5b81516106e881610d0f56fea264697066735822122035c795b59e81869432db45df7f8a7a365bb4e3f0e2b08ebd1b207c4a2dfe8cc564736f6c634300080d0033",
					"opcodes": "PUSH1 0x80 PUSH1 0x40 MSTORE CALLVALUE DUP1 ISZERO PUSH2 0x10 JUMPI PUSH1 0x0 DUP1 REVERT JUMPDEST POP PUSH2 0x11BA DUP1 PUSH2 0x20 PUSH1 0x0 CODECOPY PUSH1 0x0 RETURN INVALID PUSH1 0x80 PUSH1 0x40 MSTORE CALLVALUE DUP1 ISZERO PUSH2 0x10 JUMPI PUSH1 0x0 DUP1 REVERT JUMPDEST POP PUSH1 0x4 CALLDATASIZE LT PUSH2 0xEA JUMPI PUSH1 0x0 CALLDATALOAD PUSH1 0xE0 SHR DUP1 PUSH4 0x70A08231 GT PUSH2 0x8C JUMPI DUP1 PUSH4 0xA9F51B23 GT PUSH2 0x66 JUMPI DUP1 PUSH4 0xA9F51B23 EQ PUSH2 0x1E1 JUMPI DUP1 PUSH4 0xB88D4FDE EQ PUSH2 0x1F4 JUMPI DUP1 PUSH4 0xC87B56DD EQ PUSH2 0x207 JUMPI DUP1 PUSH4 0xE985E9C5 EQ PUSH2 0x21A JUMPI PUSH1 0x0 DUP1 REVERT JUMPDEST DUP1 PUSH4 0x70A08231 EQ PUSH2 0x1A5 JUMPI DUP1 PUSH4 0x95D89B41 EQ PUSH2 0x1C6 JUMPI DUP1 PUSH4 0xA22CB465 EQ PUSH2 0x1CE JUMPI PUSH1 0x0 DUP1 REVERT JUMPDEST DUP1 PUSH4 0x95EA7B3 GT PUSH2 0xC8 JUMPI DUP1 PUSH4 0x95EA7B3 EQ PUSH2 0x157 JUMPI DUP1 PUSH4 0x23B872DD EQ PUSH2 0x16C JUMPI DUP1 PUSH4 0x42842E0E EQ PUSH2 0x17F JUMPI DUP1 PUSH4 0x6352211E EQ PUSH2 0x192 JUMPI PUSH1 0x0 DUP1 REVERT JUMPDEST DUP1 PUSH4 0x1FFC9A7 EQ PUSH2 0xEF JUMPI DUP1 PUSH4 0x6FDDE03 EQ PUSH2 0x117 JUMPI DUP1 PUSH4 0x81812FC EQ PUSH2 0x12C JUMPI JUMPDEST PUSH1 0x0 DUP1 REVERT JUMPDEST PUSH2 0x102 PUSH2 0xFD CALLDATASIZE PUSH1 0x4 PUSH2 0xD25 JUMP JUMPDEST PUSH2 0x256 JUMP JUMPDEST PUSH1 0x40 MLOAD SWAP1 ISZERO ISZERO DUP2 MSTORE PUSH1 0x20 ADD JUMPDEST PUSH1 0x40 MLOAD DUP1 SWAP2 SUB SWAP1 RETURN JUMPDEST PUSH2 0x11F PUSH2 0x2A8 JUMP JUMPDEST PUSH1 0x40 MLOAD PUSH2 0x10E SWAP2 SWAP1 PUSH2 0xD9A JUMP JUMPDEST PUSH2 0x13F PUSH2 0x13A CALLDATASIZE PUSH1 0x4 PUSH2 0xDAD JUMP JUMPDEST PUSH2 0x33A JUMP JUMPDEST PUSH1 0x40 MLOAD PUSH1 0x1 PUSH1 0x1 PUSH1 0xA0 SHL SUB SWAP1 SWAP2 AND DUP2 MSTORE PUSH1 0x20 ADD PUSH2 0x10E JUMP JUMPDEST PUSH2 0x16A PUSH2 0x165 CALLDATASIZE PUSH1 0x4 PUSH2 0xDE2 JUMP JUMPDEST PUSH2 0x361 JUMP JUMPDEST STOP JUMPDEST PUSH2 0x16A PUSH2 0x17A CALLDATASIZE PUSH1 0x4 PUSH2 0xE0C JUMP JUMPDEST PUSH2 0x47B JUMP JUMPDEST PUSH2 0x16A PUSH2 0x18D CALLDATASIZE PUSH1 0x4 PUSH2 0xE0C JUMP JUMPDEST PUSH2 0x4AC JUMP JUMPDEST PUSH2 0x13F PUSH2 0x1A0 CALLDATASIZE PUSH1 0x4 PUSH2 0xDAD JUMP JUMPDEST PUSH2 0x4C7 JUMP JUMPDEST PUSH2 0x1B8 PUSH2 0x1B3 CALLDATASIZE PUSH1 0x4 PUSH2 0xE48 JUMP JUMPDEST PUSH2 0x527 JUMP JUMPDEST PUSH1 0x40 MLOAD SWAP1 DUP2 MSTORE PUSH1 0x20 ADD PUSH2 0x10E JUMP JUMPDEST PUSH2 0x11F PUSH2 0x5AD JUMP JUMPDEST PUSH2 0x16A PUSH2 0x1DC CALLDATASIZE PUSH1 0x4 PUSH2 0xE73 JUMP JUMPDEST PUSH2 0x5BC JUMP JUMPDEST PUSH2 0x16A PUSH2 0x1EF CALLDATASIZE PUSH1 0x4 PUSH2 0xEA6 JUMP JUMPDEST PUSH2 0x5CB JUMP JUMPDEST PUSH2 0x16A PUSH2 0x202 CALLDATASIZE PUSH1 0x4 PUSH2 0xED7 JUMP JUMPDEST PUSH2 0x643 JUMP JUMPDEST PUSH2 0x11F PUSH2 0x215 CALLDATASIZE PUSH1 0x4 PUSH2 0xDAD JUMP JUMPDEST PUSH2 0x67B JUMP JUMPDEST PUSH2 0x102 PUSH2 0x228 CALLDATASIZE PUSH1 0x4 PUSH2 0xFB3 JUMP JUMPDEST PUSH1 0x1 PUSH1 0x1 PUSH1 0xA0 SHL SUB SWAP2 DUP3 AND PUSH1 0x0 SWAP1 DUP2 MSTORE PUSH1 0x6A PUSH1 0x20 SWAP1 DUP2 MSTORE PUSH1 0x40 DUP1 DUP4 KECCAK256 SWAP4 SWAP1 SWAP5 AND DUP3 MSTORE SWAP2 SWAP1 SWAP2 MSTORE KECCAK256 SLOAD PUSH1 0xFF AND SWAP1 JUMP JUMPDEST PUSH1 0x0 PUSH1 0x1 PUSH1 0x1 PUSH1 0xE0 SHL SUB NOT DUP3 AND PUSH4 0x80AC58CD PUSH1 0xE0 SHL EQ DUP1 PUSH2 0x287 JUMPI POP PUSH1 0x1 PUSH1 0x1 PUSH1 0xE0 SHL SUB NOT DUP3 AND PUSH4 0x5B5E139F PUSH1 0xE0 SHL EQ JUMPDEST DUP1 PUSH2 0x2A2 JUMPI POP PUSH4 0x1FFC9A7 PUSH1 0xE0 SHL PUSH1 0x1 PUSH1 0x1 PUSH1 0xE0 SHL SUB NOT DUP4 AND EQ JUMPDEST SWAP3 SWAP2 POP POP JUMP JUMPDEST PUSH1 0x60 PUSH1 0x65 DUP1 SLOAD PUSH2 0x2B7 SWAP1 PUSH2 0xFDD JUMP JUMPDEST DUP1 PUSH1 0x1F ADD PUSH1 0x20 DUP1 SWAP2 DIV MUL PUSH1 0x20 ADD PUSH1 0x40 MLOAD SWAP1 DUP2 ADD PUSH1 0x40 MSTORE DUP1 SWAP3 SWAP2 SWAP1 DUP2 DUP2 MSTORE PUSH1 0x20 ADD DUP3 DUP1 SLOAD PUSH2 0x2E3 SWAP1 PUSH2 0xFDD JUMP JUMPDEST DUP1 ISZERO PUSH2 0x330 JUMPI DUP1 PUSH1 0x1F LT PUSH2 0x305 JUMPI PUSH2 0x100 DUP1 DUP4 SLOAD DIV MUL DUP4 MSTORE SWAP2 PUSH1 0x20 ADD SWAP2 PUSH2 0x330 JUMP JUMPDEST DUP3 ADD SWAP2 SWAP1 PUSH1 0x0 MSTORE PUSH1 0x20 PUSH1 0x0 KECCAK256 SWAP1 JUMPDEST DUP2 SLOAD DUP2 MSTORE SWAP1 PUSH1 0x1 ADD SWAP1 PUSH1 0x20 ADD DUP1 DUP4 GT PUSH2 0x313 JUMPI DUP3 SWAP1 SUB PUSH1 0x1F AND DUP3 ADD SWAP2 JUMPDEST POP POP POP POP POP SWAP1 POP SWAP1 JUMP JUMPDEST PUSH1 0x0 PUSH2 0x345 DUP3 PUSH2 0x6EF JUMP JUMPDEST POP PUSH1 0x0 SWAP1 DUP2 MSTORE PUSH1 0x69 PUSH1 0x20 MSTORE PUSH1 0x40 SWAP1 KECCAK256 SLOAD PUSH1 0x1 PUSH1 0x1 PUSH1 0xA0 SHL SUB AND SWAP1 JUMP JUMPDEST PUSH1 0x0 PUSH2 0x36C DUP3 PUSH2 0x4C7 JUMP JUMPDEST SWAP1 POP DUP1 PUSH1 0x1 PUSH1 0x1 PUSH1 0xA0 SHL SUB AND DUP4 PUSH1 0x1 PUSH1 0x1 PUSH1 0xA0 SHL SUB AND SUB PUSH2 0x3DE JUMPI PUSH1 0x40 MLOAD PUSH3 0x461BCD PUSH1 0xE5 SHL DUP2 MSTORE PUSH1 0x20 PUSH1 0x4 DUP3 ADD MSTORE PUSH1 0x21 PUSH1 0x24 DUP3 ADD MSTORE PUSH32 0x4552433732313A20617070726F76616C20746F2063757272656E74206F776E65 PUSH1 0x44 DUP3 ADD MSTORE PUSH1 0x39 PUSH1 0xF9 SHL PUSH1 0x64 DUP3 ADD MSTORE PUSH1 0x84 ADD JUMPDEST PUSH1 0x40 MLOAD DUP1 SWAP2 SUB SWAP1 REVERT JUMPDEST CALLER PUSH1 0x1 PUSH1 0x1 PUSH1 0xA0 SHL SUB DUP3 AND EQ DUP1 PUSH2 0x3FA JUMPI POP PUSH2 0x3FA DUP2 CALLER PUSH2 0x228 JUMP JUMPDEST PUSH2 0x46C JUMPI PUSH1 0x40 MLOAD PUSH3 0x461BCD PUSH1 0xE5 SHL DUP2 MSTORE PUSH1 0x20 PUSH1 0x4 DUP3 ADD MSTORE PUSH1 0x3D PUSH1 0x24 DUP3 ADD MSTORE PUSH32 0x4552433732313A20617070726F76652063616C6C6572206973206E6F7420746F PUSH1 0x44 DUP3 ADD MSTORE PUSH32 0x6B656E206F776E6572206F7220617070726F76656420666F7220616C6C000000 PUSH1 0x64 DUP3 ADD MSTORE PUSH1 0x84 ADD PUSH2 0x3D5 JUMP JUMPDEST PUSH2 0x476 DUP4 DUP4 PUSH2 0x751 JUMP JUMPDEST POP POP POP JUMP JUMPDEST PUSH2 0x485 CALLER DUP3 PUSH2 0x7BF JUMP JUMPDEST PUSH2 0x4A1 JUMPI PUSH1 0x40 MLOAD PUSH3 0x461BCD PUSH1 0xE5 SHL DUP2 MSTORE PUSH1 0x4 ADD PUSH2 0x3D5 SWAP1 PUSH2 0x1017 JUMP JUMPDEST PUSH2 0x476 DUP4 DUP4 DUP4 PUSH2 0x83E JUMP JUMPDEST PUSH2 0x476 DUP4 DUP4 DUP4 PUSH1 0x40 MLOAD DUP1 PUSH1 0x20 ADD PUSH1 0x40 MSTORE DUP1 PUSH1 0x0 DUP2 MSTORE POP PUSH2 0x643 JUMP JUMPDEST PUSH1 0x0 DUP2 DUP2 MSTORE PUSH1 0x67 PUSH1 0x20 MSTORE PUSH1 0x40 DUP2 KECCAK256 SLOAD PUSH1 0x1 PUSH1 0x1 PUSH1 0xA0 SHL SUB AND DUP1 PUSH2 0x2A2 JUMPI PUSH1 0x40 MLOAD PUSH3 0x461BCD PUSH1 0xE5 SHL DUP2 MSTORE PUSH1 0x20 PUSH1 0x4 DUP3 ADD MSTORE PUSH1 0x18 PUSH1 0x24 DUP3 ADD MSTORE PUSH24 0x115490CDCC8C4E881A5B9D985B1A59081D1BDAD95B881251 PUSH1 0x42 SHL PUSH1 0x44 DUP3 ADD MSTORE PUSH1 0x64 ADD PUSH2 0x3D5 JUMP JUMPDEST PUSH1 0x0 PUSH1 0x1 PUSH1 0x1 PUSH1 0xA0 SHL SUB DUP3 AND PUSH2 0x591 JUMPI PUSH1 0x40 MLOAD PUSH3 0x461BCD PUSH1 0xE5 SHL DUP2 MSTORE PUSH1 0x20 PUSH1 0x4 DUP3 ADD MSTORE PUSH1 0x29 PUSH1 0x24 DUP3 ADD MSTORE PUSH32 0x4552433732313A2061646472657373207A65726F206973206E6F742061207661 PUSH1 0x44 DUP3 ADD MSTORE PUSH9 0x3634B21037BBB732B9 PUSH1 0xB9 SHL PUSH1 0x64 DUP3 ADD MSTORE PUSH1 0x84 ADD PUSH2 0x3D5 JUMP JUMPDEST POP PUSH1 0x1 PUSH1 0x1 PUSH1 0xA0 SHL SUB AND PUSH1 0x0 SWAP1 DUP2 MSTORE PUSH1 0x68 PUSH1 0x20 MSTORE PUSH1 0x40 SWAP1 KECCAK256 SLOAD SWAP1 JUMP JUMPDEST PUSH1 0x60 PUSH1 0x66 DUP1 SLOAD PUSH2 0x2B7 SWAP1 PUSH2 0xFDD JUMP JUMPDEST PUSH2 0x5C7 CALLER DUP4 DUP4 PUSH2 0x9A2 JUMP JUMPDEST POP POP JUMP JUMPDEST PUSH1 0x6B SLOAD PUSH1 0x1 PUSH1 0x1 PUSH1 0xA0 SHL SUB AND CALLER EQ PUSH2 0x625 JUMPI PUSH1 0x40 MLOAD PUSH3 0x461BCD PUSH1 0xE5 SHL DUP2 MSTORE PUSH1 0x20 PUSH1 0x4 DUP3 ADD MSTORE PUSH1 0x17 PUSH1 0x24 DUP3 ADD MSTORE PUSH32 0x43616C6C6572206973206E6F7420746865206F776E6572000000000000000000 PUSH1 0x44 DUP3 ADD MSTORE PUSH1 0x64 ADD PUSH2 0x3D5 JUMP JUMPDEST PUSH1 0x6B DUP1 SLOAD SWAP2 ISZERO ISZERO PUSH1 0x1 PUSH1 0xA0 SHL MUL PUSH1 0xFF PUSH1 0xA0 SHL NOT SWAP1 SWAP3 AND SWAP2 SWAP1 SWAP2 OR SWAP1 SSTORE JUMP JUMPDEST PUSH2 0x64D CALLER DUP4 PUSH2 0x7BF JUMP JUMPDEST PUSH2 0x669 JUMPI PUSH1 0x40 MLOAD PUSH3 0x461BCD PUSH1 0xE5 SHL DUP2 MSTORE PUSH1 0x4 ADD PUSH2 0x3D5 SWAP1 PUSH2 0x1017 JUMP JUMPDEST PUSH2 0x675 DUP5 DUP5 DUP5 DUP5 PUSH2 0xA70 JUMP JUMPDEST POP POP POP POP JUMP JUMPDEST PUSH1 0x60 PUSH2 0x686 DUP3 PUSH2 0x6EF JUMP JUMPDEST PUSH1 0x0 PUSH2 0x69D PUSH1 0x40 DUP1 MLOAD PUSH1 0x20 DUP2 ADD SWAP1 SWAP2 MSTORE PUSH1 0x0 DUP2 MSTORE SWAP1 JUMP JUMPDEST SWAP1 POP PUSH1 0x0 DUP2 MLOAD GT PUSH2 0x6BD JUMPI PUSH1 0x40 MLOAD DUP1 PUSH1 0x20 ADD PUSH1 0x40 MSTORE DUP1 PUSH1 0x0 DUP2 MSTORE POP PUSH2 0x6E8 JUMP JUMPDEST DUP1 PUSH2 0x6C7 DUP5 PUSH2 0xAA3 JUMP JUMPDEST PUSH1 0x40 MLOAD PUSH1 0x20 ADD PUSH2 0x6D8 SWAP3 SWAP2 SWAP1 PUSH2 0x1064 JUMP JUMPDEST PUSH1 0x40 MLOAD PUSH1 0x20 DUP2 DUP4 SUB SUB DUP2 MSTORE SWAP1 PUSH1 0x40 MSTORE JUMPDEST SWAP4 SWAP3 POP POP POP JUMP JUMPDEST PUSH1 0x0 DUP2 DUP2 MSTORE PUSH1 0x67 PUSH1 0x20 MSTORE PUSH1 0x40 SWAP1 KECCAK256 SLOAD PUSH1 0x1 PUSH1 0x1 PUSH1 0xA0 SHL SUB AND PUSH2 0x74E JUMPI PUSH1 0x40 MLOAD PUSH3 0x461BCD PUSH1 0xE5 SHL DUP2 MSTORE PUSH1 0x20 PUSH1 0x4 DUP3 ADD MSTORE PUSH1 0x18 PUSH1 0x24 DUP3 ADD MSTORE PUSH24 0x115490CDCC8C4E881A5B9D985B1A59081D1BDAD95B881251 PUSH1 0x42 SHL PUSH1 0x44 DUP3 ADD MSTORE PUSH1 0x64 ADD PUSH2 0x3D5 JUMP JUMPDEST POP JUMP JUMPDEST PUSH1 0x0 DUP2 DUP2 MSTORE PUSH1 0x69 PUSH1 0x20 MSTORE PUSH1 0x40 SWAP1 KECCAK256 DUP1 SLOAD PUSH1 0x1 PUSH1 0x1 PUSH1 0xA0 SHL SUB NOT AND PUSH1 0x1 PUSH1 0x1 PUSH1 0xA0 SHL SUB DUP5 AND SWAP1 DUP2 OR SWAP1 SWAP2 SSTORE DUP2 SWAP1 PUSH2 0x786 DUP3 PUSH2 0x4C7 JUMP JUMPDEST PUSH1 0x1 PUSH1 0x1 PUSH1 0xA0 SHL SUB AND PUSH32 0x8C5BE1E5EBEC7D5BD14F71427D1E84F3DD0314C0F7B2291E5B200AC8C7C3B925 PUSH1 0x40 MLOAD PUSH1 0x40 MLOAD DUP1 SWAP2 SUB SWAP1 LOG4 POP POP JUMP JUMPDEST PUSH1 0x0 DUP1 PUSH2 0x7CB DUP4 PUSH2 0x4C7 JUMP JUMPDEST SWAP1 POP DUP1 PUSH1 0x1 PUSH1 0x1 PUSH1 0xA0 SHL SUB AND DUP5 PUSH1 0x1 PUSH1 0x1 PUSH1 0xA0 SHL SUB AND EQ DUP1 PUSH2 0x812 JUMPI POP PUSH1 0x1 PUSH1 0x1 PUSH1 0xA0 SHL SUB DUP1 DUP3 AND PUSH1 0x0 SWAP1 DUP2 MSTORE PUSH1 0x6A PUSH1 0x20 SWAP1 DUP2 MSTORE PUSH1 0x40 DUP1 DUP4 KECCAK256 SWAP4 DUP9 AND DUP4 MSTORE SWAP3 SWAP1 MSTORE KECCAK256 SLOAD PUSH1 0xFF AND JUMPDEST DUP1 PUSH2 0x836 JUMPI POP DUP4 PUSH1 0x1 PUSH1 0x1 PUSH1 0xA0 SHL SUB AND PUSH2 0x82B DUP5 PUSH2 0x33A JUMP JUMPDEST PUSH1 0x1 PUSH1 0x1 PUSH1 0xA0 SHL SUB AND EQ JUMPDEST SWAP5 SWAP4 POP POP POP POP JUMP JUMPDEST DUP3 PUSH1 0x1 PUSH1 0x1 PUSH1 0xA0 SHL SUB AND PUSH2 0x851 DUP3 PUSH2 0x4C7 JUMP JUMPDEST PUSH1 0x1 PUSH1 0x1 PUSH1 0xA0 SHL SUB AND EQ PUSH2 0x877 JUMPI PUSH1 0x40 MLOAD PUSH3 0x461BCD PUSH1 0xE5 SHL DUP2 MSTORE PUSH1 0x4 ADD PUSH2 0x3D5 SWAP1 PUSH2 0x1093 JUMP JUMPDEST PUSH1 0x1 PUSH1 0x1 PUSH1 0xA0 SHL SUB DUP3 AND PUSH2 0x8D9 JUMPI PUSH1 0x40 MLOAD PUSH3 0x461BCD PUSH1 0xE5 SHL DUP2 MSTORE PUSH1 0x20 PUSH1 0x4 DUP3 ADD MSTORE PUSH1 0x24 DUP1 DUP3 ADD MSTORE PUSH32 0x4552433732313A207472616E7366657220746F20746865207A65726F20616464 PUSH1 0x44 DUP3 ADD MSTORE PUSH4 0x72657373 PUSH1 0xE0 SHL PUSH1 0x64 DUP3 ADD MSTORE PUSH1 0x84 ADD PUSH2 0x3D5 JUMP JUMPDEST DUP3 PUSH1 0x1 PUSH1 0x1 PUSH1 0xA0 SHL SUB AND PUSH2 0x8EC DUP3 PUSH2 0x4C7 JUMP JUMPDEST PUSH1 0x1 PUSH1 0x1 PUSH1 0xA0 SHL SUB AND EQ PUSH2 0x912 JUMPI PUSH1 0x40 MLOAD PUSH3 0x461BCD PUSH1 0xE5 SHL DUP2 MSTORE PUSH1 0x4 ADD PUSH2 0x3D5 SWAP1 PUSH2 0x1093 JUMP JUMPDEST PUSH1 0x0 DUP2 DUP2 MSTORE PUSH1 0x69 PUSH1 0x20 SWAP1 DUP2 MSTORE PUSH1 0x40 DUP1 DUP4 KECCAK256 DUP1 SLOAD PUSH1 0x1 PUSH1 0x1 PUSH1 0xA0 SHL SUB NOT SWAP1 DUP2 AND SWAP1 SWAP2 SSTORE PUSH1 0x1 PUSH1 0x1 PUSH1 0xA0 SHL SUB DUP8 DUP2 AND DUP1 DUP7 MSTORE PUSH1 0x68 DUP6 MSTORE DUP4 DUP7 KECCAK256 DUP1 SLOAD PUSH1 0x0 NOT ADD SWAP1 SSTORE SWAP1 DUP8 AND DUP1 DUP7 MSTORE DUP4 DUP7 KECCAK256 DUP1 SLOAD PUSH1 0x1 ADD SWAP1 SSTORE DUP7 DUP7 MSTORE PUSH1 0x67 SWAP1 SWAP5 MSTORE DUP3 DUP6 KECCAK256 DUP1 SLOAD SWAP1 SWAP3 AND DUP5 OR SWAP1 SWAP2 SSTORE SWAP1 MLOAD DUP5 SWAP4 PUSH32 0xDDF252AD1BE2C89B69C2B068FC378DAA952BA7F163C4A11628F55A4DF523B3EF SWAP2 LOG4 POP POP POP JUMP JUMPDEST DUP2 PUSH1 0x1 PUSH1 0x1 PUSH1 0xA0 SHL SUB AND DUP4 PUSH1 0x1 PUSH1 0x1 PUSH1 0xA0 SHL SUB AND SUB PUSH2 0xA03 JUMPI PUSH1 0x40 MLOAD PUSH3 0x461BCD PUSH1 0xE5 SHL DUP2 MSTORE PUSH1 0x20 PUSH1 0x4 DUP3 ADD MSTORE PUSH1 0x19 PUSH1 0x24 DUP3 ADD MSTORE PUSH32 0x4552433732313A20617070726F766520746F2063616C6C657200000000000000 PUSH1 0x44 DUP3 ADD MSTORE PUSH1 0x64 ADD PUSH2 0x3D5 JUMP JUMPDEST PUSH1 0x1 PUSH1 0x1 PUSH1 0xA0 SHL SUB DUP4 DUP2 AND PUSH1 0x0 DUP2 DUP2 MSTORE PUSH1 0x6A PUSH1 0x20 SWAP1 DUP2 MSTORE PUSH1 0x40 DUP1 DUP4 KECCAK256 SWAP5 DUP8 AND DUP1 DUP5 MSTORE SWAP5 DUP3 MSTORE SWAP2 DUP3 SWAP1 KECCAK256 DUP1 SLOAD PUSH1 0xFF NOT AND DUP7 ISZERO ISZERO SWAP1 DUP2 OR SWAP1 SWAP2 SSTORE SWAP2 MLOAD SWAP2 DUP3 MSTORE PUSH32 0x17307EAB39AB6107E8899845AD3D59BD9653F200F220920489CA2B5937696C31 SWAP2 ADD PUSH1 0x40 MLOAD DUP1 SWAP2 SUB SWAP1 LOG3 POP POP POP JUMP JUMPDEST PUSH2 0xA7B DUP5 DUP5 DUP5 PUSH2 0x83E JUMP JUMPDEST PUSH2 0xA87 DUP5 DUP5 DUP5 DUP5 PUSH2 0xB36 JUMP JUMPDEST PUSH2 0x675 JUMPI PUSH1 0x40 MLOAD PUSH3 0x461BCD PUSH1 0xE5 SHL DUP2 MSTORE PUSH1 0x4 ADD PUSH2 0x3D5 SWAP1 PUSH2 0x10D8 JUMP JUMPDEST PUSH1 0x60 PUSH1 0x0 PUSH2 0xAB0 DUP4 PUSH2 0xC37 JUMP JUMPDEST PUSH1 0x1 ADD SWAP1 POP PUSH1 0x0 DUP2 PUSH8 0xFFFFFFFFFFFFFFFF DUP2 GT ISZERO PUSH2 0xAD0 JUMPI PUSH2 0xAD0 PUSH2 0xEC1 JUMP JUMPDEST PUSH1 0x40 MLOAD SWAP1 DUP1 DUP3 MSTORE DUP1 PUSH1 0x1F ADD PUSH1 0x1F NOT AND PUSH1 0x20 ADD DUP3 ADD PUSH1 0x40 MSTORE DUP1 ISZERO PUSH2 0xAFA JUMPI PUSH1 0x20 DUP3 ADD DUP2 DUP1 CALLDATASIZE DUP4 CALLDATACOPY ADD SWAP1 POP JUMPDEST POP SWAP1 POP DUP2 DUP2 ADD PUSH1 0x20 ADD JUMPDEST PUSH1 0x0 NOT ADD PUSH16 0x181899199A1A9B1B9C1CB0B131B232B3 PUSH1 0x81 SHL PUSH1 0xA DUP7 MOD BYTE DUP2 MSTORE8 PUSH1 0xA DUP6 DIV SWAP5 POP DUP5 PUSH2 0xB04 JUMPI POP SWAP4 SWAP3 POP POP POP JUMP JUMPDEST PUSH1 0x0 PUSH1 0x1 PUSH1 0x1 PUSH1 0xA0 SHL SUB DUP5 AND EXTCODESIZE ISZERO PUSH2 0xC2C JUMPI PUSH1 0x40 MLOAD PUSH4 0xA85BD01 PUSH1 0xE1 SHL DUP2 MSTORE PUSH1 0x1 PUSH1 0x1 PUSH1 0xA0 SHL SUB DUP6 AND SWAP1 PUSH4 0x150B7A02 SWAP1 PUSH2 0xB7A SWAP1 CALLER SWAP1 DUP10 SWAP1 DUP9 SWAP1 DUP9 SWAP1 PUSH1 0x4 ADD PUSH2 0x112A JUMP JUMPDEST PUSH1 0x20 PUSH1 0x40 MLOAD DUP1 DUP4 SUB DUP2 PUSH1 0x0 DUP8 GAS CALL SWAP3 POP POP POP DUP1 ISZERO PUSH2 0xBB5 JUMPI POP PUSH1 0x40 DUP1 MLOAD PUSH1 0x1F RETURNDATASIZE SWAP1 DUP2 ADD PUSH1 0x1F NOT AND DUP3 ADD SWAP1 SWAP3 MSTORE PUSH2 0xBB2 SWAP2 DUP2 ADD SWAP1 PUSH2 0x1167 JUMP JUMPDEST PUSH1 0x1 JUMPDEST PUSH2 0xC12 JUMPI RETURNDATASIZE DUP1 DUP1 ISZERO PUSH2 0xBE3 JUMPI PUSH1 0x40 MLOAD SWAP2 POP PUSH1 0x1F NOT PUSH1 0x3F RETURNDATASIZE ADD AND DUP3 ADD PUSH1 0x40 MSTORE RETURNDATASIZE DUP3 MSTORE RETURNDATASIZE PUSH1 0x0 PUSH1 0x20 DUP5 ADD RETURNDATACOPY PUSH2 0xBE8 JUMP JUMPDEST PUSH1 0x60 SWAP2 POP JUMPDEST POP DUP1 MLOAD PUSH1 0x0 SUB PUSH2 0xC0A JUMPI PUSH1 0x40 MLOAD PUSH3 0x461BCD PUSH1 0xE5 SHL DUP2 MSTORE PUSH1 0x4 ADD PUSH2 0x3D5 SWAP1 PUSH2 0x10D8 JUMP JUMPDEST DUP1 MLOAD DUP2 PUSH1 0x20 ADD REVERT JUMPDEST PUSH1 0x1 PUSH1 0x1 PUSH1 0xE0 SHL SUB NOT AND PUSH4 0xA85BD01 PUSH1 0xE1 SHL EQ SWAP1 POP PUSH2 0x836 JUMP JUMPDEST POP PUSH1 0x1 SWAP5 SWAP4 POP POP POP POP JUMP JUMPDEST PUSH1 0x0 DUP1 PUSH19 0x184F03E93FF9F4DAA797ED6E38ED64BF6A1F01 PUSH1 0x40 SHL DUP4 LT PUSH2 0xC76 JUMPI PUSH19 0x184F03E93FF9F4DAA797ED6E38ED64BF6A1F01 PUSH1 0x40 SHL DUP4 DIV SWAP3 POP PUSH1 0x40 ADD JUMPDEST PUSH14 0x4EE2D6D415B85ACEF8100000000 DUP4 LT PUSH2 0xCA2 JUMPI PUSH14 0x4EE2D6D415B85ACEF8100000000 DUP4 DIV SWAP3 POP PUSH1 0x20 ADD JUMPDEST PUSH7 0x2386F26FC10000 DUP4 LT PUSH2 0xCC0 JUMPI PUSH7 0x2386F26FC10000 DUP4 DIV SWAP3 POP PUSH1 0x10 ADD JUMPDEST PUSH4 0x5F5E100 DUP4 LT PUSH2 0xCD8 JUMPI PUSH4 0x5F5E100 DUP4 DIV SWAP3 POP PUSH1 0x8 ADD JUMPDEST PUSH2 0x2710 DUP4 LT PUSH2 0xCEC JUMPI PUSH2 0x2710 DUP4 DIV SWAP3 POP PUSH1 0x4 ADD JUMPDEST PUSH1 0x64 DUP4 LT PUSH2 0xCFE JUMPI PUSH1 0x64 DUP4 DIV SWAP3 POP PUSH1 0x2 ADD JUMPDEST PUSH1 0xA DUP4 LT PUSH2 0x2A2 JUMPI PUSH1 0x1 ADD SWAP3 SWAP2 POP POP JUMP JUMPDEST PUSH1 0x1 PUSH1 0x1 PUSH1 0xE0 SHL SUB NOT DUP2 AND DUP2 EQ PUSH2 0x74E JUMPI PUSH1 0x0 DUP1 REVERT JUMPDEST PUSH1 0x0 PUSH1 0x20 DUP3 DUP5 SUB SLT ISZERO PUSH2 0xD37 JUMPI PUSH1 0x0 DUP1 REVERT JUMPDEST DUP2 CALLDATALOAD PUSH2 0x6E8 DUP2 PUSH2 0xD0F JUMP JUMPDEST PUSH1 0x0 JUMPDEST DUP4 DUP2 LT ISZERO PUSH2 0xD5D JUMPI DUP2 DUP2 ADD MLOAD DUP4 DUP3 ADD MSTORE PUSH1 0x20 ADD PUSH2 0xD45 JUMP JUMPDEST DUP4 DUP2 GT ISZERO PUSH2 0x675 JUMPI POP POP PUSH1 0x0 SWAP2 ADD MSTORE JUMP JUMPDEST PUSH1 0x0 DUP2 MLOAD DUP1 DUP5 MSTORE PUSH2 0xD86 DUP2 PUSH1 0x20 DUP7 ADD PUSH1 0x20 DUP7 ADD PUSH2 0xD42 JUMP JUMPDEST PUSH1 0x1F ADD PUSH1 0x1F NOT AND SWAP3 SWAP1 SWAP3 ADD PUSH1 0x20 ADD SWAP3 SWAP2 POP POP JUMP JUMPDEST PUSH1 0x20 DUP2 MSTORE PUSH1 0x0 PUSH2 0x6E8 PUSH1 0x20 DUP4 ADD DUP5 PUSH2 0xD6E JUMP JUMPDEST PUSH1 0x0 PUSH1 0x20 DUP3 DUP5 SUB SLT ISZERO PUSH2 0xDBF JUMPI PUSH1 0x0 DUP1 REVERT JUMPDEST POP CALLDATALOAD SWAP2 SWAP1 POP JUMP JUMPDEST DUP1 CALLDATALOAD PUSH1 0x1 PUSH1 0x1 PUSH1 0xA0 SHL SUB DUP2 AND DUP2 EQ PUSH2 0xDDD JUMPI PUSH1 0x0 DUP1 REVERT JUMPDEST SWAP2 SWAP1 POP JUMP JUMPDEST PUSH1 0x0 DUP1 PUSH1 0x40 DUP4 DUP6 SUB SLT ISZERO PUSH2 0xDF5 JUMPI PUSH1 0x0 DUP1 REVERT JUMPDEST PUSH2 0xDFE DUP4 PUSH2 0xDC6 JUMP JUMPDEST SWAP5 PUSH1 0x20 SWAP4 SWAP1 SWAP4 ADD CALLDATALOAD SWAP4 POP POP POP JUMP JUMPDEST PUSH1 0x0 DUP1 PUSH1 0x0 PUSH1 0x60 DUP5 DUP7 SUB SLT ISZERO PUSH2 0xE21 JUMPI PUSH1 0x0 DUP1 REVERT JUMPDEST PUSH2 0xE2A DUP5 PUSH2 0xDC6 JUMP JUMPDEST SWAP3 POP PUSH2 0xE38 PUSH1 0x20 DUP6 ADD PUSH2 0xDC6 JUMP JUMPDEST SWAP2 POP PUSH1 0x40 DUP5 ADD CALLDATALOAD SWAP1 POP SWAP3 POP SWAP3 POP SWAP3 JUMP JUMPDEST PUSH1 0x0 PUSH1 0x20 DUP3 DUP5 SUB SLT ISZERO PUSH2 0xE5A JUMPI PUSH1 0x0 DUP1 REVERT JUMPDEST PUSH2 0x6E8 DUP3 PUSH2 0xDC6 JUMP JUMPDEST DUP1 CALLDATALOAD DUP1 ISZERO ISZERO DUP2 EQ PUSH2 0xDDD JUMPI PUSH1 0x0 DUP1 REVERT JUMPDEST PUSH1 0x0 DUP1 PUSH1 0x40 DUP4 DUP6 SUB SLT ISZERO PUSH2 0xE86 JUMPI PUSH1 0x0 DUP1 REVERT JUMPDEST PUSH2 0xE8F DUP4 PUSH2 0xDC6 JUMP JUMPDEST SWAP2 POP PUSH2 0xE9D PUSH1 0x20 DUP5 ADD PUSH2 0xE63 JUMP JUMPDEST SWAP1 POP SWAP3 POP SWAP3 SWAP1 POP JUMP JUMPDEST PUSH1 0x0 PUSH1 0x20 DUP3 DUP5 SUB SLT ISZERO PUSH2 0xEB8 JUMPI PUSH1 0x0 DUP1 REVERT JUMPDEST PUSH2 0x6E8 DUP3 PUSH2 0xE63 JUMP JUMPDEST PUSH4 0x4E487B71 PUSH1 0xE0 SHL PUSH1 0x0 MSTORE PUSH1 0x41 PUSH1 0x4 MSTORE PUSH1 0x24 PUSH1 0x0 REVERT JUMPDEST PUSH1 0x0 DUP1 PUSH1 0x0 DUP1 PUSH1 0x80 DUP6 DUP8 SUB SLT ISZERO PUSH2 0xEED JUMPI PUSH1 0x0 DUP1 REVERT JUMPDEST PUSH2 0xEF6 DUP6 PUSH2 0xDC6 JUMP JUMPDEST SWAP4 POP PUSH2 0xF04 PUSH1 0x20 DUP7 ADD PUSH2 0xDC6 JUMP JUMPDEST SWAP3 POP PUSH1 0x40 DUP6 ADD CALLDATALOAD SWAP2 POP PUSH1 0x60 DUP6 ADD CALLDATALOAD PUSH8 0xFFFFFFFFFFFFFFFF DUP1 DUP3 GT ISZERO PUSH2 0xF28 JUMPI PUSH1 0x0 DUP1 REVERT JUMPDEST DUP2 DUP8 ADD SWAP2 POP DUP8 PUSH1 0x1F DUP4 ADD SLT PUSH2 0xF3C JUMPI PUSH1 0x0 DUP1 REVERT JUMPDEST DUP2 CALLDATALOAD DUP2 DUP2 GT ISZERO PUSH2 0xF4E JUMPI PUSH2 0xF4E PUSH2 0xEC1 JUMP JUMPDEST PUSH1 0x40 MLOAD PUSH1 0x1F DUP3 ADD PUSH1 0x1F NOT SWAP1 DUP2 AND PUSH1 0x3F ADD AND DUP2 ADD SWAP1 DUP4 DUP3 GT DUP2 DUP4 LT OR ISZERO PUSH2 0xF76 JUMPI PUSH2 0xF76 PUSH2 0xEC1 JUMP JUMPDEST DUP2 PUSH1 0x40 MSTORE DUP3 DUP2 MSTORE DUP11 PUSH1 0x20 DUP5 DUP8 ADD ADD GT ISZERO PUSH2 0xF8F JUMPI PUSH1 0x0 DUP1 REVERT JUMPDEST DUP3 PUSH1 0x20 DUP7 ADD PUSH1 0x20 DUP4 ADD CALLDATACOPY PUSH1 0x0 PUSH1 0x20 DUP5 DUP4 ADD ADD MSTORE DUP1 SWAP6 POP POP POP POP POP POP SWAP3 SWAP6 SWAP2 SWAP5 POP SWAP3 POP JUMP JUMPDEST PUSH1 0x0 DUP1 PUSH1 0x40 DUP4 DUP6 SUB SLT ISZERO PUSH2 0xFC6 JUMPI PUSH1 0x0 DUP1 REVERT JUMPDEST PUSH2 0xFCF DUP4 PUSH2 0xDC6 JUMP JUMPDEST SWAP2 POP PUSH2 0xE9D PUSH1 0x20 DUP5 ADD PUSH2 0xDC6 JUMP JUMPDEST PUSH1 0x1 DUP2 DUP2 SHR SWAP1 DUP3 AND DUP1 PUSH2 0xFF1 JUMPI PUSH1 0x7F DUP3 AND SWAP2 POP JUMPDEST PUSH1 0x20 DUP3 LT DUP2 SUB PUSH2 0x1011 JUMPI PUSH4 0x4E487B71 PUSH1 0xE0 SHL PUSH1 0x0 MSTORE PUSH1 0x22 PUSH1 0x4 MSTORE PUSH1 0x24 PUSH1 0x0 REVERT JUMPDEST POP SWAP2 SWAP1 POP JUMP JUMPDEST PUSH1 0x20 DUP1 DUP3 MSTORE PUSH1 0x2D SWAP1 DUP3 ADD MSTORE PUSH32 0x4552433732313A2063616C6C6572206973206E6F7420746F6B656E206F776E65 PUSH1 0x40 DUP3 ADD MSTORE PUSH13 0x1C881BDC88185C1C1C9BDD9959 PUSH1 0x9A SHL PUSH1 0x60 DUP3 ADD MSTORE PUSH1 0x80 ADD SWAP1 JUMP JUMPDEST PUSH1 0x0 DUP4 MLOAD PUSH2 0x1076 DUP2 DUP5 PUSH1 0x20 DUP9 ADD PUSH2 0xD42 JUMP JUMPDEST DUP4 MLOAD SWAP1 DUP4 ADD SWAP1 PUSH2 0x108A DUP2 DUP4 PUSH1 0x20 DUP9 ADD PUSH2 0xD42 JUMP JUMPDEST ADD SWAP5 SWAP4 POP POP POP POP JUMP JUMPDEST PUSH1 0x20 DUP1 DUP3 MSTORE PUSH1 0x25 SWAP1 DUP3 ADD MSTORE PUSH32 0x4552433732313A207472616E736665722066726F6D20696E636F727265637420 PUSH1 0x40 DUP3 ADD MSTORE PUSH5 0x37BBB732B9 PUSH1 0xD9 SHL PUSH1 0x60 DUP3 ADD MSTORE PUSH1 0x80 ADD SWAP1 JUMP JUMPDEST PUSH1 0x20 DUP1 DUP3 MSTORE PUSH1 0x32 SWAP1 DUP3 ADD MSTORE PUSH32 0x4552433732313A207472616E7366657220746F206E6F6E204552433732315265 PUSH1 0x40 DUP3 ADD MSTORE PUSH18 0x31B2B4BB32B91034B6B83632B6B2B73A32B9 PUSH1 0x71 SHL PUSH1 0x60 DUP3 ADD MSTORE PUSH1 0x80 ADD SWAP1 JUMP JUMPDEST PUSH1 0x1 PUSH1 0x1 PUSH1 0xA0 SHL SUB DUP6 DUP2 AND DUP3 MSTORE DUP5 AND PUSH1 0x20 DUP3 ADD MSTORE PUSH1 0x40 DUP2 ADD DUP4 SWAP1 MSTORE PUSH1 0x80 PUSH1 0x60 DUP3 ADD DUP2 SWAP1 MSTORE PUSH1 0x0 SWAP1 PUSH2 0x115D SWAP1 DUP4 ADD DUP5 PUSH2 0xD6E JUMP JUMPDEST SWAP7 SWAP6 POP POP POP POP POP POP JUMP JUMPDEST PUSH1 0x0 PUSH1 0x20 DUP3 DUP5 SUB SLT ISZERO PUSH2 0x1179 JUMPI PUSH1 0x0 DUP1 REVERT JUMPDEST DUP2 MLOAD PUSH2 0x6E8 DUP2 PUSH2 0xD0F JUMP INVALID LOG2 PUSH5 0x6970667358 0x22 SLT KECCAK256 CALLDATALOAD 0xC7 SWAP6 0xB5 SWAP15 DUP2 DUP7 SWAP5 ORIGIN 0xDB GASLIMIT 0xDF PUSH32 0x8A7A365BB4E3F0E2B08EBD1B207C4A2DFE8CC564736F6C634300080D00330000 "
				},
				"gasEstimates": {
					"creation": {
						"codeDepositCost": "907600",
						"executionCost": "942",
						"totalCost": "908542"
					},
					"external": {
						"approve(address,uint256)": "infinite",
						"balanceOf(address)": "2612",
						"getApproved(uint256)": "4792",
						"isApprovedForAll(address,address)": "infinite",
						"name()": "infinite",
						"ownerOf(uint256)": "2627",
						"safeTransferFrom(address,address,uint256)": "infinite",
						"safeTransferFrom(address,address,uint256,bytes)": "infinite",
						"setApprovalForAll(address,bool)": "infinite",
						"setIsBounded(bool)": "26717",
						"supportsInterface(bytes4)": "534",
						"symbol()": "infinite",
						"tokenURI(uint256)": "infinite",
						"transferFrom(address,address,uint256)": "infinite"
					},
					"internal": {
						"__ERC721_init(string memory,string memory,address)": "infinite",
						"__ERC721_init_unchained(string memory,string memory)": "infinite",
						"__unsafe_increaseBalance(address,uint256)": "infinite",
						"_afterTokenTransfer(address,address,uint256,uint256)": "infinite",
						"_approve(address,uint256)": "infinite",
						"_baseURI()": "infinite",
						"_beforeTokenTransfer(address,address,uint256,uint256)": "infinite",
						"_burn(uint256)": "infinite",
						"_checkOnERC721Received(address,address,uint256,bytes memory)": "infinite",
						"_exists(uint256)": "infinite",
						"_isApprovedOrOwner(address,uint256)": "infinite",
						"_mint(address,uint256)": "infinite",
						"_ownerOf(uint256)": "infinite",
						"_requireMinted(uint256)": "infinite",
						"_safeMint(address,uint256)": "infinite",
						"_safeMint(address,uint256,bytes memory)": "infinite",
						"_safeTransfer(address,address,uint256,bytes memory)": "infinite",
						"_setApprovalForAll(address,address,bool)": "infinite",
						"_transfer(address,address,uint256)": "infinite"
					}
				},
				"methodIdentifiers": {
					"approve(address,uint256)": "095ea7b3",
					"balanceOf(address)": "70a08231",
					"getApproved(uint256)": "081812fc",
					"isApprovedForAll(address,address)": "e985e9c5",
					"name()": "06fdde03",
					"ownerOf(uint256)": "6352211e",
					"safeTransferFrom(address,address,uint256)": "42842e0e",
					"safeTransferFrom(address,address,uint256,bytes)": "b88d4fde",
					"setApprovalForAll(address,bool)": "a22cb465",
					"setIsBounded(bool)": "a9f51b23",
					"supportsInterface(bytes4)": "01ffc9a7",
					"symbol()": "95d89b41",
					"tokenURI(uint256)": "c87b56dd",
					"transferFrom(address,address,uint256)": "23b872dd"
				}
			},
			"storageLayout": {
				"storage": [
					{
						"astId": 6,
						"contract": "mlmContracts/contracts-upgradeable@4.8/token/ERC721/ERC721Upgradeable.sol:ERC721Upgradeable",
						"label": "_initialized",
						"offset": 0,
						"slot": "0",
						"type": "t_uint8"
					},
					{
						"astId": 9,
						"contract": "mlmContracts/contracts-upgradeable@4.8/token/ERC721/ERC721Upgradeable.sol:ERC721Upgradeable",
						"label": "_initializing",
						"offset": 1,
						"slot": "0",
						"type": "t_bool"
					},
					{
						"astId": 1640,
						"contract": "mlmContracts/contracts-upgradeable@4.8/token/ERC721/ERC721Upgradeable.sol:ERC721Upgradeable",
						"label": "__gap",
						"offset": 0,
						"slot": "1",
						"type": "t_array(t_uint256)50_storage"
					},
					{
						"astId": 1859,
						"contract": "mlmContracts/contracts-upgradeable@4.8/token/ERC721/ERC721Upgradeable.sol:ERC721Upgradeable",
						"label": "__gap",
						"offset": 0,
						"slot": "51",
						"type": "t_array(t_uint256)50_storage"
					},
					{
						"astId": 197,
						"contract": "mlmContracts/contracts-upgradeable@4.8/token/ERC721/ERC721Upgradeable.sol:ERC721Upgradeable",
						"label": "_name",
						"offset": 0,
						"slot": "101",
						"type": "t_string_storage"
					},
					{
						"astId": 199,
						"contract": "mlmContracts/contracts-upgradeable@4.8/token/ERC721/ERC721Upgradeable.sol:ERC721Upgradeable",
						"label": "_symbol",
						"offset": 0,
						"slot": "102",
						"type": "t_string_storage"
					},
					{
						"astId": 203,
						"contract": "mlmContracts/contracts-upgradeable@4.8/token/ERC721/ERC721Upgradeable.sol:ERC721Upgradeable",
						"label": "_owners",
						"offset": 0,
						"slot": "103",
						"type": "t_mapping(t_uint256,t_address)"
					},
					{
						"astId": 207,
						"contract": "mlmContracts/contracts-upgradeable@4.8/token/ERC721/ERC721Upgradeable.sol:ERC721Upgradeable",
						"label": "_balances",
						"offset": 0,
						"slot": "104",
						"type": "t_mapping(t_address,t_uint256)"
					},
					{
						"astId": 211,
						"contract": "mlmContracts/contracts-upgradeable@4.8/token/ERC721/ERC721Upgradeable.sol:ERC721Upgradeable",
						"label": "_tokenApprovals",
						"offset": 0,
						"slot": "105",
						"type": "t_mapping(t_uint256,t_address)"
					},
					{
						"astId": 217,
						"contract": "mlmContracts/contracts-upgradeable@4.8/token/ERC721/ERC721Upgradeable.sol:ERC721Upgradeable",
						"label": "_operatorApprovals",
						"offset": 0,
						"slot": "106",
						"type": "t_mapping(t_address,t_mapping(t_address,t_bool))"
					},
					{
						"astId": 219,
						"contract": "mlmContracts/contracts-upgradeable@4.8/token/ERC721/ERC721Upgradeable.sol:ERC721Upgradeable",
						"label": "manager",
						"offset": 0,
						"slot": "107",
						"type": "t_address"
					},
					{
						"astId": 221,
						"contract": "mlmContracts/contracts-upgradeable@4.8/token/ERC721/ERC721Upgradeable.sol:ERC721Upgradeable",
						"label": "isBounded",
						"offset": 20,
						"slot": "107",
						"type": "t_bool"
					},
					{
						"astId": 1153,
						"contract": "mlmContracts/contracts-upgradeable@4.8/token/ERC721/ERC721Upgradeable.sol:ERC721Upgradeable",
						"label": "__gap",
						"offset": 0,
						"slot": "108",
						"type": "t_array(t_uint256)44_storage"
					}
				],
				"types": {
					"t_address": {
						"encoding": "inplace",
						"label": "address",
						"numberOfBytes": "20"
					},
					"t_array(t_uint256)44_storage": {
						"base": "t_uint256",
						"encoding": "inplace",
						"label": "uint256[44]",
						"numberOfBytes": "1408"
					},
					"t_array(t_uint256)50_storage": {
						"base": "t_uint256",
						"encoding": "inplace",
						"label": "uint256[50]",
						"numberOfBytes": "1600"
					},
					"t_bool": {
						"encoding": "inplace",
						"label": "bool",
						"numberOfBytes": "1"
					},
					"t_mapping(t_address,t_bool)": {
						"encoding": "mapping",
						"key": "t_address",
						"label": "mapping(address => bool)",
						"numberOfBytes": "32",
						"value": "t_bool"
					},
					"t_mapping(t_address,t_mapping(t_address,t_bool))": {
						"encoding": "mapping",
						"key": "t_address",
						"label": "mapping(address => mapping(address => bool))",
						"numberOfBytes": "32",
						"value": "t_mapping(t_address,t_bool)"
					},
					"t_mapping(t_address,t_uint256)": {
						"encoding": "mapping",
						"key": "t_address",
						"label": "mapping(address => uint256)",
						"numberOfBytes": "32",
						"value": "t_uint256"
					},
					"t_mapping(t_uint256,t_address)": {
						"encoding": "mapping",
						"key": "t_uint256",
						"label": "mapping(uint256 => address)",
						"numberOfBytes": "32",
						"value": "t_address"
					},
					"t_string_storage": {
						"encoding": "bytes",
						"label": "string",
						"numberOfBytes": "32"
					},
					"t_uint256": {
						"encoding": "inplace",
						"label": "uint256",
						"numberOfBytes": "32"
					},
					"t_uint8": {
						"encoding": "inplace",
						"label": "uint8",
						"numberOfBytes": "1"
					}
				}
			},
			"userdoc": {
				"kind": "user",
				"methods": {},
				"version": 1
			}
		}
	}
}